{
  "contractName": "GOIssuingBody",
  "abi": [
    {
      "inputs": [
        {
          "internalType": "address",
          "name": "regAddress",
          "type": "address"
        }
      ],
      "stateMutability": "nonpayable",
      "type": "constructor"
    },
    {
      "anonymous": false,
      "inputs": [
        {
          "indexed": true,
          "internalType": "uint256",
          "name": "requestId",
          "type": "uint256"
        },
        {
          "indexed": true,
          "internalType": "uint256",
          "name": "goId",
          "type": "uint256"
        },
        {
          "indexed": true,
          "internalType": "address",
          "name": "owner",
          "type": "address"
        },
        {
          "indexed": false,
          "internalType": "bytes32",
          "name": "rootHash",
          "type": "bytes32"
        }
      ],
      "name": "GOPrivateRequestConfirmed",
      "type": "event"
    },
    {
      "anonymous": false,
      "inputs": [
        {
          "indexed": true,
          "internalType": "address",
          "name": "theGOOwner",
          "type": "address"
        },
        {
          "indexed": true,
          "internalType": "uint256",
          "name": "reqId",
          "type": "uint256"
        },
        {
          "indexed": false,
          "internalType": "bytes32",
          "name": "rootHash",
          "type": "bytes32"
        }
      ],
      "name": "GOPrivateRequested",
      "type": "event"
    },
    {
      "anonymous": false,
      "inputs": [
        {
          "indexed": true,
          "internalType": "uint256",
          "name": "requestId",
          "type": "uint256"
        },
        {
          "indexed": true,
          "internalType": "uint256",
          "name": "goId",
          "type": "uint256"
        },
        {
          "indexed": true,
          "internalType": "address",
          "name": "owner",
          "type": "address"
        }
      ],
      "name": "GORequestConfirmed",
      "type": "event"
    },
    {
      "anonymous": false,
      "inputs": [
        {
          "indexed": true,
          "internalType": "uint256",
          "name": "reqId",
          "type": "uint256"
        },
        {
          "indexed": true,
          "internalType": "address",
          "name": "reqOwner",
          "type": "address"
        }
      ],
      "name": "GORequestWithdrawn",
      "type": "event"
    },
    {
      "anonymous": false,
      "inputs": [
        {
          "indexed": true,
          "internalType": "address",
          "name": "theGOOwner",
          "type": "address"
        },
        {
          "indexed": true,
          "internalType": "uint256",
          "name": "reqId",
          "type": "uint256"
        }
      ],
      "name": "GORequested",
      "type": "event"
    },
    {
      "anonymous": false,
      "inputs": [
        {
          "indexed": true,
          "internalType": "uint256",
          "name": "tokenGOId",
          "type": "uint256"
        }
      ],
      "name": "IssuedGOWithdrawn",
      "type": "event"
    },
    {
      "anonymous": false,
      "inputs": [
        {
          "indexed": true,
          "internalType": "address",
          "name": "previousOwner",
          "type": "address"
        },
        {
          "indexed": true,
          "internalType": "address",
          "name": "newOwner",
          "type": "address"
        }
      ],
      "name": "OwnershipTransferred",
      "type": "event"
    },
    {
      "inputs": [
        {
          "internalType": "address",
          "name": "",
          "type": "address"
        },
        {
          "internalType": "address",
          "name": "",
          "type": "address"
        },
        {
          "internalType": "uint256[]",
          "name": "",
          "type": "uint256[]"
        },
        {
          "internalType": "uint256[]",
          "name": "",
          "type": "uint256[]"
        },
        {
          "internalType": "bytes",
          "name": "",
          "type": "bytes"
        }
      ],
      "name": "onERC1155BatchReceived",
      "outputs": [
        {
          "internalType": "bytes4",
          "name": "",
          "type": "bytes4"
        }
      ],
      "stateMutability": "nonpayable",
      "type": "function"
    },
    {
      "inputs": [
        {
          "internalType": "address",
          "name": "",
          "type": "address"
        },
        {
          "internalType": "address",
          "name": "",
          "type": "address"
        },
        {
          "internalType": "uint256",
          "name": "",
          "type": "uint256"
        },
        {
          "internalType": "uint256",
          "name": "",
          "type": "uint256"
        },
        {
          "internalType": "bytes",
          "name": "",
          "type": "bytes"
        }
      ],
      "name": "onERC1155Received",
      "outputs": [
        {
          "internalType": "bytes4",
          "name": "",
          "type": "bytes4"
        }
      ],
      "stateMutability": "nonpayable",
      "type": "function"
    },
    {
      "inputs": [],
      "name": "owner",
      "outputs": [
        {
          "internalType": "address",
          "name": "",
          "type": "address"
        }
      ],
      "stateMutability": "view",
      "type": "function",
      "constant": true
    },
    {
      "inputs": [],
      "name": "renounceOwnership",
      "outputs": [],
      "stateMutability": "nonpayable",
      "type": "function"
    },
    {
      "inputs": [
        {
          "internalType": "bytes4",
          "name": "interfaceId",
          "type": "bytes4"
        }
      ],
      "name": "supportsInterface",
      "outputs": [
        {
          "internalType": "bool",
          "name": "",
          "type": "bool"
        }
      ],
      "stateMutability": "view",
      "type": "function",
      "constant": true
    },
    {
      "inputs": [],
      "name": "theGORegistry",
      "outputs": [
        {
          "internalType": "contract GORegistry",
          "name": "",
          "type": "address"
        }
      ],
      "stateMutability": "view",
      "type": "function",
      "constant": true
    },
    {
      "inputs": [
        {
          "internalType": "address",
          "name": "newOwner",
          "type": "address"
        }
      ],
      "name": "transferOwnership",
      "outputs": [],
      "stateMutability": "nonpayable",
      "type": "function"
    },
    {
      "inputs": [
        {
          "internalType": "address",
          "name": "theGOOwner",
          "type": "address"
        },
        {
          "internalType": "bytes",
          "name": "theGOData",
          "type": "bytes"
        },
        {
          "internalType": "int256",
          "name": "_type",
          "type": "int256"
        }
      ],
      "name": "requestGO",
      "outputs": [
        {
          "internalType": "uint256",
          "name": "id",
          "type": "uint256"
        }
      ],
      "stateMutability": "nonpayable",
      "type": "function"
    },
    {
      "inputs": [
        {
          "internalType": "address",
          "name": "theGOOwner",
          "type": "address"
        },
        {
          "internalType": "bytes",
          "name": "theGOData",
          "type": "bytes"
        },
        {
          "internalType": "int256",
          "name": "_type",
          "type": "int256"
        },
        {
          "internalType": "bytes32",
          "name": "_rootHash",
          "type": "bytes32"
        }
      ],
      "name": "requestGOPrivate",
      "outputs": [
        {
          "internalType": "uint256",
          "name": "id",
          "type": "uint256"
        }
      ],
      "stateMutability": "nonpayable",
      "type": "function"
    },
    {
      "inputs": [
        {
          "internalType": "bytes",
          "name": "validityFunc",
          "type": "bytes"
        },
        {
          "internalType": "uint256",
          "name": "reqId",
          "type": "uint256"
        },
        {
          "internalType": "uint256",
          "name": "amount",
          "type": "uint256"
        }
      ],
      "name": "confirmGORequest",
      "outputs": [
        {
          "internalType": "uint256",
          "name": "",
          "type": "uint256"
        }
      ],
      "stateMutability": "nonpayable",
      "type": "function"
    },
    {
      "inputs": [
        {
          "internalType": "bytes",
          "name": "validityFunc",
          "type": "bytes"
        },
        {
          "internalType": "uint256",
          "name": "reqId",
          "type": "uint256"
        },
        {
          "internalType": "uint256",
          "name": "amount",
          "type": "uint256"
        }
      ],
      "name": "confirmGoPrivateRequest",
      "outputs": [
        {
          "internalType": "uint256",
          "name": "",
          "type": "uint256"
        }
      ],
      "stateMutability": "nonpayable",
      "type": "function"
    },
    {
      "inputs": [
        {
          "internalType": "uint256",
          "name": "amount",
          "type": "uint256"
        },
        {
          "internalType": "address",
          "name": "receiver",
          "type": "address"
        },
        {
          "internalType": "int256",
          "name": "energyType",
          "type": "int256"
        },
        {
          "internalType": "bytes",
          "name": "goData",
          "type": "bytes"
        }
      ],
      "name": "issueGO",
      "outputs": [
        {
          "internalType": "uint256",
          "name": "",
          "type": "uint256"
        }
      ],
      "stateMutability": "nonpayable",
      "type": "function"
    },
    {
      "inputs": [
        {
          "internalType": "uint256",
          "name": "amount",
          "type": "uint256"
        },
        {
          "internalType": "address",
          "name": "receiver",
          "type": "address"
        },
        {
          "internalType": "int256",
          "name": "energyType",
          "type": "int256"
        },
        {
          "internalType": "bytes",
          "name": "goData",
          "type": "bytes"
        },
        {
          "internalType": "bytes32",
          "name": "rootHash",
          "type": "bytes32"
        }
      ],
      "name": "issueGOPrivate",
      "outputs": [
        {
          "internalType": "uint256",
          "name": "",
          "type": "uint256"
        }
      ],
      "stateMutability": "nonpayable",
      "type": "function"
    },
    {
      "inputs": [
        {
          "internalType": "uint256",
          "name": "goId",
          "type": "uint256"
        },
        {
          "internalType": "bytes",
          "name": "privateData",
          "type": "bytes"
        }
      ],
      "name": "revealGOPrivateData",
      "outputs": [],
      "stateMutability": "nonpayable",
      "type": "function"
    },
    {
      "inputs": [
        {
          "internalType": "uint256",
          "name": "reqId",
          "type": "uint256"
        }
      ],
      "name": "withdrawGORequest",
      "outputs": [
        {
          "internalType": "bool",
          "name": "",
          "type": "bool"
        }
      ],
      "stateMutability": "nonpayable",
      "type": "function"
    },
    {
      "inputs": [
        {
          "internalType": "uint256",
          "name": "goTokenId",
          "type": "uint256"
        }
      ],
      "name": "withdrawIssuedGO",
      "outputs": [
        {
          "internalType": "bool",
          "name": "",
          "type": "bool"
        }
      ],
      "stateMutability": "nonpayable",
      "type": "function"
    },
    {
      "inputs": [
        {
          "internalType": "uint256",
          "name": "reqId",
          "type": "uint256"
        }
      ],
      "name": "validateGO",
      "outputs": [
        {
          "internalType": "bool",
          "name": "",
          "type": "bool"
        }
      ],
      "stateMutability": "view",
      "type": "function",
      "constant": true
    },
    {
      "inputs": [
        {
          "internalType": "address",
          "name": "theIBAddress",
          "type": "address"
        },
        {
          "internalType": "bool",
          "name": "value",
          "type": "bool"
        }
      ],
      "name": "setTradesWith",
      "outputs": [],
      "stateMutability": "nonpayable",
      "type": "function"
    },
    {
      "inputs": [
        {
          "internalType": "address",
          "name": "issuingBodyAddress",
          "type": "address"
        }
      ],
      "name": "isTradingWith",
      "outputs": [
        {
          "internalType": "bool",
          "name": "",
          "type": "bool"
        }
      ],
      "stateMutability": "view",
      "type": "function",
      "constant": true
    },
    {
      "inputs": [
        {
          "internalType": "address",
          "name": "from",
          "type": "address"
        },
        {
          "internalType": "address",
          "name": "to",
          "type": "address"
        },
        {
          "internalType": "uint256",
          "name": "id",
          "type": "uint256"
        },
        {
          "internalType": "uint256",
          "name": "amount",
          "type": "uint256"
        },
        {
          "internalType": "bytes",
          "name": "data",
          "type": "bytes"
        }
      ],
      "name": "transferGO",
      "outputs": [],
      "stateMutability": "nonpayable",
      "type": "function"
    },
    {
      "inputs": [
        {
          "internalType": "address",
          "name": "from",
          "type": "address"
        },
        {
          "internalType": "address",
          "name": "to",
          "type": "address"
        },
        {
          "internalType": "uint256[]",
          "name": "ids",
          "type": "uint256[]"
        },
        {
          "internalType": "uint256[]",
          "name": "amounts",
          "type": "uint256[]"
        },
        {
          "internalType": "bytes",
          "name": "data",
          "type": "bytes"
        }
      ],
      "name": "transferGOBatch",
      "outputs": [],
      "stateMutability": "nonpayable",
      "type": "function"
    },
    {
      "inputs": [
        {
          "internalType": "address",
          "name": "registrant",
          "type": "address"
        }
      ],
      "name": "addUserToIBinRegistry",
      "outputs": [],
      "stateMutability": "nonpayable",
      "type": "function"
    }
  ],
  "bytecode": "0x60806040523480156200001157600080fd5b5060405162001f2538038062001f25833981016040819052620000349162000156565b600062000040620000fd565b600080546001600160a01b0319166001600160a01b0383169081178255604051929350917f8be0079c531659141344cd1fd0a4f28419497f9722a3daafe3b4186f6b6457e0908290a3506200009c6301ffc9a760e01b62000101565b620000ae630271189760e51b62000101565b33620000d75760405162461bcd60e51b8152600401620000ce90620001bd565b60405180910390fd5b600280546001600160a01b0319166001600160a01b039290921691909117905562000234565b3390565b6001600160e01b031980821614156200012e5760405162461bcd60e51b8152600401620000ce9062000186565b6001600160e01b0319166000908152600160208190526040909120805460ff19169091179055565b60006020828403121562000168578081fd5b81516001600160a01b03811681146200017f578182fd5b9392505050565b6020808252601c908201527f4552433136353a20696e76616c696420696e7465726661636520696400000000604082015260600190565b60208082526051908201527f636f6e7374727563746f7228293a2049737375696e6720626f647920736d617260408201527f7420636f6e74726163742063616e206e6f20626520696e7374616e746961746560608201527064206279207a65726f206164647265737360781b608082015260a00190565b611ce180620002446000396000f3fe608060405234801561001057600080fd5b50600436106101425760003560e01c806383f36c77116100b8578063bc197c811161007c578063bc197c8114610288578063ca429ac7146102a8578063cbd812bd146102bb578063f23a6e61146102ce578063f2fde38b146102e1578063f94837ec146102f457610142565b806383f36c77146102345780638da5cb5b14610247578063a31fca6d1461024f578063a498801114610262578063b84d5d191461027557610142565b80634d3440131161010a5780634d344013146101cb5780635a11219d146101de5780636aacff54146101f35780636bc2618714610206578063715018a6146102195780637af8bedf1461022157610142565b806301ffc9a71461014757806316a9824c14610170578063299ccd871461018557806333a83118146101985780634bd83580146101b8575b600080fd5b61015a61015536600461158b565b610307565b6040516101679190611946565b60405180910390f35b610178610326565b60405161016791906117c4565b61015a6101933660046115fe565b610335565b6101ab6101a63660046114d9565b6104ab565b6040516101679190611951565b6101ab6101c63660046115b3565b6105ee565b6101ab6101d936600461152f565b6107a5565b6101f16101ec366004611391565b6108f8565b005b6101f161020136600461136f565b61099e565b61015a61021436600461136f565b610a38565b6101f1610a56565b61015a61022f3660046115fe565b610ad5565b6101f161024236600461149e565b610bd3565b610178610c33565b61015a61025d3660046115fe565b610c42565b6101ab61027036600461162e565b610cb9565b6101ab61028336600461168e565b610d4e565b61029b610296366004611391565b610de5565b604051610167919061195a565b6101f16102b636600461143a565b610df6565b6101f16102c93660046116f5565b610e63565b61029b6102dc36600461143a565b610efe565b6101f16102ef36600461136f565b610f0f565b6101ab6103023660046115b3565b610fc5565b6001600160e01b03191660009081526001602052604090205460ff1690565b6002546001600160a01b031681565b600061033f61119b565b6000838152600460209081526040918290208251610100808201855282546001600160a01b038082168452600160a01b820460ff908116151585880152600160a81b9092049091161515838701526001808501549091166060840152600280850180548851938116159094026000190190931604601f8101869004860282018601909652858152919492936080860193908301828280156104215780601f106103f657610100808354040283529160200191610421565b820191906000526020600020905b81548152906001019060200180831161040457829003601f168201915b50505091835250506003820154602080830191909152600483015460ff16151560408084019190915260059384015460609093019290925260008781529281529120549082015191925090801561047a57508160400151155b8015610495575060008181526006602052604090205460ff16155b80156104a357506003548411155b949350505050565b60038054600180820190925560408051610100810182526001600160a01b038088168252600060208084018281528486018381523360608701908152608087018c815260a088018c905260c0880186905260e088018690528986526004855297852087518154945193511515600160a81b0260ff60a81b19941515600160a01b0260ff60a01b19928a166001600160a01b031997881617929092169190911793909316929092178255519881018054999095169890911697909717909255925180519395929361058192600285019201906111de565b5060a0820151600382015560c082015160048201805460ff191691151591909117905560e09091015160059091015560405181906001600160a01b038716907fd777b434e80deda8397cfaf91336bb8af64a9ec48e8b5c6d5f31ed8eee0387c890600090a3949350505050565b60006105f8611155565b6000546001600160a01b0390811691161461062e5760405162461bcd60e51b815260040161062590611abe565b60405180910390fd5b61063783611159565b6106535760405162461bcd60e51b8152600401610625906119b5565b60008381526004602052604090208054600160a01b900460ff161561068a5760405162461bcd60e51b815260040161062590611a78565b805460ff60a01b1916600160a01b178082556002805460038401546005850154604051636a85857960e01b81526000956001600160a01b0394851695636a858579956106e99592169391928b92918a01918e9160019190600401611870565b602060405180830381600087803b15801561070357600080fd5b505af1158015610717573d6000803e3d6000fd5b505050506040513d601f19601f8201168201806040525081019061073b9190611616565b60008681526005602081905260409182902083905584549085015491519293506001600160a01b031691839188917fa3ace188564e61313ff0c3f584d1574927a01935196477f3923e52a5ca8291059161079491611951565b60405180910390a450509392505050565b60038054600180820190925560408051610100810182526001600160a01b038089168252600060208084018281528486018381523360608701908152608087018d815260a088018d905260c088018b905260e088018c90528986526004855297852087518154945193511515600160a81b0260ff60a81b19941515600160a01b0260ff60a01b19928a166001600160a01b031997881617929092169190911793909316929092178255519881018054999095169890911697909717909255925180519395929361087b92600285019201906111de565b5060a0820151600382015560c082015160048201805460ff191691151591909117905560e09091015160059091015560405181906001600160a01b038816907f08b383d8fa5f9d1dd1b5f5e87c40409aec7e373a20fef2831dcd237ff70ea6d0906108e7908790611951565b60405180910390a395945050505050565b610900611155565b6000546001600160a01b0390811691161461092d5760405162461bcd60e51b815260040161062590611abe565b600254604051631759616b60e11b81526001600160a01b0390911690632eb2c2d69061096590889088908890889088906004016117d8565b600060405180830381600087803b15801561097f57600080fd5b505af1158015610993573d6000803e3d6000fd5b505050505050505050565b6109a6611155565b6000546001600160a01b039081169116146109d35760405162461bcd60e51b815260040161062590611abe565b6002546040516388125a6960e01b81526001600160a01b03909116906388125a6990610a039084906004016117c4565b600060405180830381600087803b158015610a1d57600080fd5b505af1158015610a31573d6000803e3d6000fd5b5050505050565b6001600160a01b031660009081526007602052604090205460ff1690565b610a5e611155565b6000546001600160a01b03908116911614610a8b5760405162461bcd60e51b815260040161062590611abe565b600080546040516001600160a01b03909116907f8be0079c531659141344cd1fd0a4f28419497f9722a3daafe3b4186f6b6457e0908390a3600080546001600160a01b0319169055565b6000818152600460205260408120610aeb610c33565b6001600160a01b0316336001600160a01b03161480610b13575080546001600160a01b031633145b610b2f5760405162461bcd60e51b815260040161062590611af3565b8054600160a01b900460ff1615610b585760405162461bcd60e51b815260040161062590611ba6565b8054600160a81b900460ff1615610b815760405162461bcd60e51b815260040161062590611b5f565b805460ff60a81b1916600160a81b178082556040516001600160a01b039091169084907f39c20adcec125d8e88864d4cbb74d45e0acf645fbb9f3eb42bb9b0fc538622c890600090a350600192915050565b610bdb611155565b6000546001600160a01b03908116911614610c085760405162461bcd60e51b815260040161062590611abe565b6001600160a01b03919091166000908152600760205260409020805460ff1916911515919091179055565b6000546001600160a01b031690565b60008181526006602052604081205460ff1615610c715760405162461bcd60e51b815260040161062590611a21565b600082815260066020526040808220805460ff191660011790555183917f1a16d25ec14553261a31183a05b9f9c9ff58b1aab8779f732fdf9d2487ea8bae91a2506001919050565b6000610cc3611155565b6000546001600160a01b03908116911614610cf05760405162461bcd60e51b815260040161062590611abe565b6000610cfd8584866104ab565b9050610d4481604051602401610d139190611951565b60408051601f198184030181529190526020810180516001600160e01b031663299ccd8760e01b1790528288610fc5565b9695505050505050565b6000610d58611155565b6000546001600160a01b03908116911614610d855760405162461bcd60e51b815260040161062590611abe565b6000610d93868587866107a5565b9050610dda81604051602401610da99190611951565b60408051601f198184030181529190526020810180516001600160e01b031663299ccd8760e01b17905282896105ee565b979650505050505050565b63bc197c8160e01b95945050505050565b610dfe611155565b6000546001600160a01b03908116911614610e2b5760405162461bcd60e51b815260040161062590611abe565b600254604051637921219560e11b81526001600160a01b039091169063f242432a906109659088908890889088908890600401611836565b610e6b611155565b6000546001600160a01b03908116911614610e985760405162461bcd60e51b815260040161062590611abe565b600254604051626a8cc760e01b81526001600160a01b0390911690626a8cc790610ec89085908590600401611c48565b600060405180830381600087803b158015610ee257600080fd5b505af1158015610ef6573d6000803e3d6000fd5b505050505050565b63f23a6e6160e01b95945050505050565b610f17611155565b6000546001600160a01b03908116911614610f445760405162461bcd60e51b815260040161062590611abe565b6001600160a01b038116610f6a5760405162461bcd60e51b81526004016106259061196f565b600080546040516001600160a01b03808516939216917f8be0079c531659141344cd1fd0a4f28419497f9722a3daafe3b4186f6b6457e091a3600080546001600160a01b0319166001600160a01b0392909216919091179055565b6000610fcf611155565b6000546001600160a01b03908116911614610ffc5760405162461bcd60e51b815260040161062590611abe565b61100583611159565b6110215760405162461bcd60e51b8152600401610625906119b5565b60008381526004602052604090208054600160a01b900460ff16156110585760405162461bcd60e51b815260040161062590611a78565b805460ff60a01b1916600160a01b17808255600280546003840154604051636a85857960e01b81526000946001600160a01b0393841694636a858579946110af949216928a918901908d9089908190600401611870565b602060405180830381600087803b1580156110c957600080fd5b505af11580156110dd573d6000803e3d6000fd5b505050506040513d601f19601f820116820180604052508101906111019190611616565b600086815260056020526040808220839055845490519293506001600160a01b031691839188917fff5fe3772513fec981b1ba14da8f8d85a922fdcefccd08294fa900c7bb01fb5b9190a495945050505050565b3390565b600081815260046020526040812054600160a01b900460ff161580156111955750600082815260046020526040902054600160a81b900460ff16155b92915050565b60408051610100810182526000808252602082018190529181018290526060808201839052608082015260a0810182905260c0810182905260e081019190915290565b828054600181600116156101000203166002900490600052602060002090601f016020900481019282601f1061121f57805160ff191683800117855561124c565b8280016001018555821561124c579182015b8281111561124c578251825591602001919060010190611231565b5061125892915061125c565b5090565b5b80821115611258576000815560010161125d565b80356001600160a01b038116811461119557600080fd5b600082601f830112611298578081fd5b81356001600160401b038111156112ad578182fd5b60208082026112bd828201611c61565b838152935081840185830182870184018810156112d957600080fd5b600092505b848310156112fc5780358252600192909201919083019083016112de565b505050505092915050565b600082601f830112611317578081fd5b81356001600160401b0381111561132c578182fd5b61133f601f8201601f1916602001611c61565b915080825283602082850101111561135657600080fd5b8060208401602084013760009082016020015292915050565b600060208284031215611380578081fd5b61138a8383611271565b9392505050565b600080600080600060a086880312156113a8578081fd5b85356113b381611c93565b945060208601356113c381611c93565b935060408601356001600160401b03808211156113de578283fd5b6113ea89838a01611288565b945060608801359150808211156113ff578283fd5b61140b89838a01611288565b93506080880135915080821115611420578283fd5b5061142d88828901611307565b9150509295509295909350565b600080600080600060a08688031215611451578081fd5b61145b8787611271565b945061146a8760208801611271565b9350604086013592506060860135915060808601356001600160401b03811115611492578182fd5b61142d88828901611307565b600080604083850312156114b0578182fd5b6114ba8484611271565b9150602083013580151581146114ce578182fd5b809150509250929050565b6000806000606084860312156114ed578283fd5b83356114f881611c93565b925060208401356001600160401b03811115611512578283fd5b61151e86828701611307565b925050604084013590509250925092565b60008060008060808587031215611544578384fd5b61154e8686611271565b935060208501356001600160401b03811115611568578384fd5b61157487828801611307565b949794965050505060408301359260600135919050565b60006020828403121561159c578081fd5b81356001600160e01b03198116811461138a578182fd5b6000806000606084860312156115c7578283fd5b83356001600160401b038111156115dc578384fd5b6115e886828701611307565b9660208601359650604090950135949350505050565b60006020828403121561160f578081fd5b5035919050565b600060208284031215611627578081fd5b5051919050565b60008060008060808587031215611643578384fd5b84359350602085013561165581611c93565b92506040850135915060608501356001600160401b03811115611676578182fd5b61168287828801611307565b91505092959194509250565b600080600080600060a086880312156116a5578283fd5b853594506116b68760208801611271565b93506040860135925060608601356001600160401b038111156116d7578182fd5b6116e388828901611307565b95989497509295608001359392505050565b60008060408385031215611707578182fd5b8235915060208301356001600160401b03811115611723578182fd5b61172f85828601611307565b9150509250929050565b6000815180845260208085019450808401835b838110156117685781518752958201959082019060010161174c565b509495945050505050565b15159052565b60008151808452815b8181101561179e57602081850181015186830182015201611782565b818111156117af5782602083870101525b50601f01601f19169290920160200192915050565b6001600160a01b0391909116815260200190565b6001600160a01b0386811682528516602082015260a06040820181905260009061180490830186611739565b82810360608401526118168186611739565b9050828103608084015261182a8185611779565b98975050505050505050565b6001600160a01b03868116825285166020820152604081018490526060810183905260a060808201819052600090610dda90830184611779565b600060e0820160018060a01b038a1683526020898185015288604085015260e060608501528288546001808216600081146118b257600181146118d25761190d565b6118c2607f600285041687611951565b60ff19841681528501935061190d565b600283046118e08188611951565b6118e98e611c87565b895b83811015611904578154838201529085019088016118eb565b91909101955050505b50505084810360808601526119228189611779565b935050505061193460a0830185611773565b8260c083015298975050505050505050565b901515815260200190565b90815260200190565b6001600160e01b031991909116815260200190565b60208082526026908201527f4f776e61626c653a206e6577206f776e657220697320746865207a65726f206160408201526564647265737360d01b606082015260800190565b60208082526046908201527f636f6e6669726d474f5265717565737428293a2052657175657374206861732060408201527f6265656e2070726576696f75736c7920636f6e6669726d6564206f722077697460608201526534323930bbb760d11b608082015260a00190565b60208082526037908201527f474f2068617320616c7265616479206265656e2077697468647261776e206279604082015276103a34329024b9b9bab4b733902137b23c9027bbb732b960491b606082015260800190565b60208082526026908201527f54686520726571756573742068617320616c7265616479206265656e20636f6e604082015265199a5c9b595960d21b606082015260800190565b6020808252818101527f4f776e61626c653a2063616c6c6572206973206e6f7420746865206f776e6572604082015260600190565b60208082526046908201527f526571756573742063616e2062652077697468647261776e206f6e6c7920627960408201527f2049737375696e6720426f6479206f7220746865207265717565737420696e696060820152653a34b0ba37b960d11b608082015260a00190565b60208082526027908201527f54686520726571756573742068617320616c7265616479206265656e20776974604082015266034323930bbb7160cd1b606082015260800190565b60208082526076908201527f436f6e6669726d656420474f2072657175657374732063616e206e6f7420626560408201527f2077697468647261776e2c2063616c6c207769746864726177474f436572746960608201527f6669636174652875696e743235362920746f207265766f6b6520616c726561646080820152751e4818dbdb999a5c9b59590811d3c81c995c5d595cdd60521b60a082015260c00190565b6000838252604060208301526104a36040830184611779565b6040518181016001600160401b0381118282101715611c7f57600080fd5b604052919050565b60009081526020902090565b6001600160a01b0381168114611ca857600080fd5b5056fea26469706673582212209b98c0581f706321be5e9ddd653f0968e12a16fbcc1ca8878bb598b75cb5d72a64736f6c63430007000033",
  "immutableReferences": {},
  "source": "// SPDX-License-Identifier: MIT\npragma solidity >=0.4.22 <0.9.0;\npragma experimental ABIEncoderV2;\n\nimport \"./GORegistry.sol\";\n\nimport \"@openzeppelin/contracts/access/Ownable.sol\";\nimport \"@openzeppelin/contracts/math/SafeMath.sol\";\nimport \"@openzeppelin/contracts/token/ERC1155/ERC1155Holder.sol\";\n\ncontract GOIssuingBody is Ownable, ERC165, ERC1155Holder {\n    using SafeMath for uint256;\n\n    GORegistry public theGORegistry;\n    uint256 private reqIdCounter;\n    mapping(uint256 => GORequest) reqs;\n    mapping(uint256 => uint256) fromGOToReq;\n    mapping(uint256 => bool) withdrawnGO;\n    mapping(address => bool) tradesWithIBAddrs;\n\n    event GORequested(address indexed theGOOwner, uint256 indexed reqId);\n    event GOPrivateRequested(address indexed theGOOwner, uint256 indexed reqId, bytes32 rootHash);\n\n    event GORequestConfirmed(\n        uint256 indexed requestId,\n        uint256 indexed goId,\n        address indexed owner\n    );\n\n    event GOPrivateRequestConfirmed(\n        uint256 indexed requestId,\n        uint256 indexed goId,\n        address indexed owner,\n        bytes32 rootHash\n    );\n    event GORequestWithdrawn(uint256 indexed reqId, address indexed reqOwner);\n    event IssuedGOWithdrawn(uint256 indexed tokenGOId);\n\n    struct GORequest {\n        address owner;\n        bool confirmed;\n        bool withdrawn;\n        address solicitor;\n        bytes goData;\n        int256 energyType;\n        bool isPrivate;\n        bytes32 rootHash;\n    }\n\n    constructor(address regAddress) Ownable() {\n        require(\n            msg.sender != address(0),\n            \"constructor(): Issuing body smart contract can no be instantiated by zero address\"\n        );\n        theGORegistry = GORegistry(regAddress);\n    }\n\n    function requestGO(\n        address theGOOwner,\n        bytes memory theGOData,\n        int256 _type\n    ) public returns (uint256 id) {\n        uint256 reqId = reqIdCounter++;\n        reqs[reqId] = GORequest({\n            owner: theGOOwner,\n            withdrawn: false,\n            confirmed: false,\n            solicitor: msg.sender,\n            goData: theGOData,\n            energyType: _type,\n            isPrivate: false,\n            rootHash: bytes32(0)\n        });\n        emit GORequested(theGOOwner, reqId);\n        return reqId;\n    }\n\n    function requestGOPrivate(\n        address theGOOwner,\n        bytes memory theGOData,\n        int256 _type,\n        bytes32 _rootHash\n    ) public returns (uint256 id) {\n        uint256 reqId = reqIdCounter++;\n        reqs[reqId] = GORequest({\n            owner: theGOOwner,\n            withdrawn: false,\n            confirmed: false,\n            solicitor: msg.sender,\n            goData: theGOData,\n            energyType: _type,\n            isPrivate: true,\n            rootHash: _rootHash\n        });\n        emit GOPrivateRequested(theGOOwner, reqId, _rootHash);\n        return reqId;\n    }\n\n    function confirmGORequest(\n        bytes memory validityFunc,\n        uint256 reqId,\n        uint256 amount\n    ) public onlyOwner returns (uint256) {\n        require(\n            _notConfirmedOrWithdrawn(reqId),\n            \"confirmGORequest(): Request has been previously confirmed or withdrawn\"\n        );\n        GORequest storage req = reqs[reqId];\n        require(!req.confirmed, \"The request has already been confirmed\");\n        req.confirmed = true;\n        uint256 goId =\n                theGORegistry.issueGOCertificate(\n                req.owner,\n                req.energyType,\n                amount,\n                req.goData,\n                validityFunc,\n                false,\n                bytes32(0)\n            );\n            fromGOToReq[reqId] = goId;\n            emit GORequestConfirmed(reqId, goId, req.owner);\n        \n        return goId;\n    }\n\n    function confirmGoPrivateRequest(\n        bytes memory validityFunc,\n        uint256 reqId,\n        uint256 amount\n    ) public onlyOwner returns (uint256){\n        require(\n            _notConfirmedOrWithdrawn(reqId),\n            \"confirmGORequest(): Request has been previously confirmed or withdrawn\"\n        );\n        GORequest storage req = reqs[reqId];\n        require(!req.confirmed, \"The request has already been confirmed\");\n        req.confirmed = true;\n        uint256 goId;\n        goId =\n                theGORegistry.issueGOCertificate(\n                    req.owner,\n                    req.energyType,\n                    amount,\n                    req.goData,\n                    validityFunc,\n                    true,\n                    req.rootHash\n                );\n            fromGOToReq[reqId] = goId;\n            emit GOPrivateRequestConfirmed(reqId, goId, req.owner, req.rootHash);\n    }\n\n    function issueGO(\n        uint256 amount,\n        address receiver,\n        int256 energyType,\n        bytes memory goData\n    ) public onlyOwner returns (uint256) {\n        uint256 reqId = requestGO(receiver, goData, energyType);\n        return\n            confirmGORequest(\n                abi.encodeWithSignature(\"validateGO(uint256)\", reqId),\n                reqId,\n                amount\n            );\n    }\n\n    function issueGOPrivate(\n        uint256 amount,\n        address receiver,\n        int256 energyType,\n        bytes memory goData,\n        bytes32 rootHash\n    ) public onlyOwner returns (uint256) {\n        uint256 reqId = requestGOPrivate(receiver, goData, energyType, rootHash);\n        return\n            confirmGoPrivateRequest(\n                abi.encodeWithSignature(\"validateGO(uint256)\", reqId),\n                reqId,\n                amount\n            );\n    }\n\n    function revealGOPrivateData(uint256 goId, bytes memory privateData) external onlyOwner {\n        theGORegistry.revealPrivateData(goId, privateData);\n    }\n\n    function withdrawGORequest(uint256 reqId) external returns (bool) {\n        GORequest storage req = reqs[reqId];\n\n        require(\n            msg.sender == owner() || msg.sender == req.owner,\n            \"Request can be withdrawn only by Issuing Body or the request initiator\"\n        );\n        require(\n            !req.confirmed,\n            \"Confirmed GO requests can not be withdrawn, call withdrawGOCertificate(uint256) to revoke already confirmed GO request\"\n        );\n        require(!req.withdrawn, \"The request has already been withdrawn \");\n\n        req.withdrawn = true;\n        emit GORequestWithdrawn(reqId, req.owner);\n        return true;\n    }\n\n    function withdrawIssuedGO(uint256 goTokenId) external returns (bool) {\n        require(\n            !withdrawnGO[goTokenId],\n            \"GO has already been withdrawn by the Issuing Body Owner\"\n        );\n        withdrawnGO[goTokenId] = true;\n\n        emit IssuedGOWithdrawn(goTokenId);\n        return true;\n    }\n\n    function validateGO(uint256 reqId) external view returns (bool) {\n        GORequest memory req = reqs[reqId];\n        uint256 tokenGOId = fromGOToReq[reqId];\n\n        return\n            req.confirmed &&\n            !req.withdrawn &&\n            !withdrawnGO[tokenGOId] &&\n            reqId <= reqIdCounter;\n    }\n\n    function setTradesWith(address theIBAddress, bool value) public onlyOwner {\n        tradesWithIBAddrs[theIBAddress] = value;\n    }\n\n    function isTradingWith(address issuingBodyAddress)\n        public\n        view\n        returns (bool)\n    {\n        return tradesWithIBAddrs[issuingBodyAddress];\n    }\n\n    function transferGO(\n        address from,\n        address to,\n        uint256 id,\n        uint256 amount,\n        bytes memory data\n    ) public onlyOwner {\n        theGORegistry.safeTransferFrom(from, to, id, amount, data);\n    }\n\n    function transferGOBatch(\n        address from,\n        address to,\n        uint256[] memory ids,\n        uint256[] memory amounts,\n        bytes memory data\n    ) public onlyOwner {\n        theGORegistry.safeBatchTransferFrom(from, to, ids, amounts, data);\n    }\n\n    function addUserToIBinRegistry(address registrant) public onlyOwner {\n        theGORegistry.registerForIssuingBody(registrant);\n    }\n\n    /////Private functions///////\n\n    function _notConfirmedOrWithdrawn(uint256 reqId)\n        private\n        view\n        returns (bool)\n    {\n        return !reqs[reqId].confirmed && !reqs[reqId].withdrawn;\n    }\n}\n",
  "sourcePath": "/home/tyrx/projects/GoO-bl/contracts/GOIssuingBody.sol",
  "compiler": {
    "name": "solc",
    "version": "0.7.0+commit.9e61f92b.Emscripten.clang"
  },
  "schemaVersion": "3.3.3",
  "updatedAt": "2021-03-12T12:06:00.174Z",
  "networkType": "ethereum",
  "devdoc": {
    "kind": "dev",
    "methods": {
      "owner()": {
        "details": "Returns the address of the current owner."
      },
      "renounceOwnership()": {
        "details": "Leaves the contract without owner. It will not be possible to call `onlyOwner` functions anymore. Can only be called by the current owner. NOTE: Renouncing ownership will leave the contract without an owner, thereby removing any functionality that is only available to the owner."
      },
      "supportsInterface(bytes4)": {
        "details": "See {IERC165-supportsInterface}. Time complexity O(1), guaranteed to always use less than 30 000 gas."
      },
      "transferOwnership(address)": {
        "details": "Transfers ownership of the contract to a new account (`newOwner`). Can only be called by the current owner."
      }
    },
    "version": 1
  },
  "userdoc": {
    "kind": "user",
    "methods": {},
    "version": 1
  }
}