{
  "contractName": "GOIssuingBody",
  "abi": [
    {
      "inputs": [
        {
          "internalType": "address",
          "name": "regAddress",
          "type": "address"
        }
      ],
      "stateMutability": "nonpayable",
      "type": "constructor"
    },
    {
      "anonymous": false,
      "inputs": [
        {
          "indexed": true,
          "internalType": "uint256",
          "name": "requestId",
          "type": "uint256"
        },
        {
          "indexed": true,
          "internalType": "uint256",
          "name": "goId",
          "type": "uint256"
        },
        {
          "indexed": true,
          "internalType": "address",
          "name": "owner",
          "type": "address"
        }
      ],
      "name": "GORequestConfirmed",
      "type": "event"
    },
    {
      "anonymous": false,
      "inputs": [
        {
          "indexed": true,
          "internalType": "uint256",
          "name": "reqId",
          "type": "uint256"
        },
        {
          "indexed": true,
          "internalType": "address",
          "name": "reqOwner",
          "type": "address"
        }
      ],
      "name": "GORequestWithdrawn",
      "type": "event"
    },
    {
      "anonymous": false,
      "inputs": [
        {
          "indexed": true,
          "internalType": "address",
          "name": "theGOOwner",
          "type": "address"
        },
        {
          "indexed": true,
          "internalType": "uint256",
          "name": "reqId",
          "type": "uint256"
        }
      ],
      "name": "GORequested",
      "type": "event"
    },
    {
      "anonymous": false,
      "inputs": [
        {
          "indexed": true,
          "internalType": "uint256",
          "name": "tokenGOId",
          "type": "uint256"
        }
      ],
      "name": "IssuedGOWithdrawn",
      "type": "event"
    },
    {
      "anonymous": false,
      "inputs": [
        {
          "indexed": true,
          "internalType": "address",
          "name": "previousOwner",
          "type": "address"
        },
        {
          "indexed": true,
          "internalType": "address",
          "name": "newOwner",
          "type": "address"
        }
      ],
      "name": "OwnershipTransferred",
      "type": "event"
    },
    {
      "inputs": [
        {
          "internalType": "address",
          "name": "",
          "type": "address"
        },
        {
          "internalType": "address",
          "name": "",
          "type": "address"
        },
        {
          "internalType": "uint256[]",
          "name": "",
          "type": "uint256[]"
        },
        {
          "internalType": "uint256[]",
          "name": "",
          "type": "uint256[]"
        },
        {
          "internalType": "bytes",
          "name": "",
          "type": "bytes"
        }
      ],
      "name": "onERC1155BatchReceived",
      "outputs": [
        {
          "internalType": "bytes4",
          "name": "",
          "type": "bytes4"
        }
      ],
      "stateMutability": "nonpayable",
      "type": "function"
    },
    {
      "inputs": [
        {
          "internalType": "address",
          "name": "",
          "type": "address"
        },
        {
          "internalType": "address",
          "name": "",
          "type": "address"
        },
        {
          "internalType": "uint256",
          "name": "",
          "type": "uint256"
        },
        {
          "internalType": "uint256",
          "name": "",
          "type": "uint256"
        },
        {
          "internalType": "bytes",
          "name": "",
          "type": "bytes"
        }
      ],
      "name": "onERC1155Received",
      "outputs": [
        {
          "internalType": "bytes4",
          "name": "",
          "type": "bytes4"
        }
      ],
      "stateMutability": "nonpayable",
      "type": "function"
    },
    {
      "inputs": [],
      "name": "owner",
      "outputs": [
        {
          "internalType": "address",
          "name": "",
          "type": "address"
        }
      ],
      "stateMutability": "view",
      "type": "function"
    },
    {
      "inputs": [],
      "name": "renounceOwnership",
      "outputs": [],
      "stateMutability": "nonpayable",
      "type": "function"
    },
    {
      "inputs": [
        {
          "internalType": "bytes4",
          "name": "interfaceId",
          "type": "bytes4"
        }
      ],
      "name": "supportsInterface",
      "outputs": [
        {
          "internalType": "bool",
          "name": "",
          "type": "bool"
        }
      ],
      "stateMutability": "view",
      "type": "function"
    },
    {
      "inputs": [],
      "name": "theGORegistry",
      "outputs": [
        {
          "internalType": "contract GORegistry",
          "name": "",
          "type": "address"
        }
      ],
      "stateMutability": "view",
      "type": "function"
    },
    {
      "inputs": [
        {
          "internalType": "address",
          "name": "newOwner",
          "type": "address"
        }
      ],
      "name": "transferOwnership",
      "outputs": [],
      "stateMutability": "nonpayable",
      "type": "function"
    },
    {
      "inputs": [
        {
          "internalType": "address",
          "name": "theGOOwner",
          "type": "address"
        },
        {
          "internalType": "bytes",
          "name": "theGOData",
          "type": "bytes"
        },
        {
          "internalType": "int256",
          "name": "_type",
          "type": "int256"
        }
      ],
      "name": "requestGO",
      "outputs": [
        {
          "internalType": "uint256",
          "name": "id",
          "type": "uint256"
        }
      ],
      "stateMutability": "nonpayable",
      "type": "function"
    },
    {
      "inputs": [
        {
          "internalType": "bytes",
          "name": "validityFunc",
          "type": "bytes"
        },
        {
          "internalType": "uint256",
          "name": "reqId",
          "type": "uint256"
        },
        {
          "internalType": "uint256",
          "name": "amount",
          "type": "uint256"
        }
      ],
      "name": "confirmGORequest",
      "outputs": [
        {
          "internalType": "uint256",
          "name": "",
          "type": "uint256"
        }
      ],
      "stateMutability": "nonpayable",
      "type": "function"
    },
    {
      "inputs": [
        {
          "internalType": "uint256",
          "name": "amount",
          "type": "uint256"
        },
        {
          "internalType": "address",
          "name": "receiver",
          "type": "address"
        },
        {
          "internalType": "int256",
          "name": "energyType",
          "type": "int256"
        },
        {
          "internalType": "bytes",
          "name": "goData",
          "type": "bytes"
        }
      ],
      "name": "issueGO",
      "outputs": [
        {
          "internalType": "uint256",
          "name": "",
          "type": "uint256"
        }
      ],
      "stateMutability": "nonpayable",
      "type": "function"
    },
    {
      "inputs": [
        {
          "internalType": "uint256",
          "name": "reqId",
          "type": "uint256"
        }
      ],
      "name": "withdrawGORequest",
      "outputs": [
        {
          "internalType": "bool",
          "name": "",
          "type": "bool"
        }
      ],
      "stateMutability": "nonpayable",
      "type": "function"
    },
    {
      "inputs": [
        {
          "internalType": "uint256",
          "name": "goTokenId",
          "type": "uint256"
        }
      ],
      "name": "withdrawIssuedGO",
      "outputs": [
        {
          "internalType": "bool",
          "name": "",
          "type": "bool"
        }
      ],
      "stateMutability": "nonpayable",
      "type": "function"
    },
    {
      "inputs": [
        {
          "internalType": "uint256",
          "name": "reqId",
          "type": "uint256"
        }
      ],
      "name": "validateGO",
      "outputs": [
        {
          "internalType": "bool",
          "name": "",
          "type": "bool"
        }
      ],
      "stateMutability": "view",
      "type": "function"
    },
    {
      "inputs": [
        {
          "internalType": "address",
          "name": "theIBAddress",
          "type": "address"
        },
        {
          "internalType": "bool",
          "name": "value",
          "type": "bool"
        }
      ],
      "name": "setTradesWith",
      "outputs": [],
      "stateMutability": "nonpayable",
      "type": "function"
    },
    {
      "inputs": [
        {
          "internalType": "address",
          "name": "issuingBodyAddress",
          "type": "address"
        }
      ],
      "name": "isTradingWith",
      "outputs": [
        {
          "internalType": "bool",
          "name": "",
          "type": "bool"
        }
      ],
      "stateMutability": "view",
      "type": "function"
    },
    {
      "inputs": [
        {
          "internalType": "address",
          "name": "from",
          "type": "address"
        },
        {
          "internalType": "address",
          "name": "to",
          "type": "address"
        },
        {
          "internalType": "uint256",
          "name": "id",
          "type": "uint256"
        },
        {
          "internalType": "uint256",
          "name": "amount",
          "type": "uint256"
        },
        {
          "internalType": "bytes",
          "name": "data",
          "type": "bytes"
        }
      ],
      "name": "transferGO",
      "outputs": [],
      "stateMutability": "nonpayable",
      "type": "function"
    },
    {
      "inputs": [
        {
          "internalType": "address",
          "name": "from",
          "type": "address"
        },
        {
          "internalType": "address",
          "name": "to",
          "type": "address"
        },
        {
          "internalType": "uint256[]",
          "name": "ids",
          "type": "uint256[]"
        },
        {
          "internalType": "uint256[]",
          "name": "amounts",
          "type": "uint256[]"
        },
        {
          "internalType": "bytes",
          "name": "data",
          "type": "bytes"
        }
      ],
      "name": "transferGOBatch",
      "outputs": [],
      "stateMutability": "nonpayable",
      "type": "function"
    }
  ],
  "bytecode": "0x60806040523480156200001157600080fd5b5060405162002b7538038062002b758339818101604052810190620000379190620002d2565b600062000049620001db60201b60201c565b9050806000806101000a81548173ffffffffffffffffffffffffffffffffffffffff021916908373ffffffffffffffffffffffffffffffffffffffff1602179055508073ffffffffffffffffffffffffffffffffffffffff16600073ffffffffffffffffffffffffffffffffffffffff167f8be0079c531659141344cd1fd0a4f28419497f9722a3daafe3b4186f6b6457e060405160405180910390a350620000ff6301ffc9a760e01b620001e360201b60201c565b6200012063bc197c8160e01b63f23a6e6160e01b18620001e360201b60201c565b600073ffffffffffffffffffffffffffffffffffffffff163373ffffffffffffffffffffffffffffffffffffffff16141562000193576040517f08c379a00000000000000000000000000000000000000000000000000000000081526004016200018a90620003f0565b60405180910390fd5b80600260006101000a81548173ffffffffffffffffffffffffffffffffffffffff021916908373ffffffffffffffffffffffffffffffffffffffff1602179055505062000471565b600033905090565b63ffffffff60e01b817bffffffffffffffffffffffffffffffffffffffffffffffffffffffff191614156200024f576040517f08c379a00000000000000000000000000000000000000000000000000000000081526004016200024690620003ce565b60405180910390fd5b6001806000837bffffffffffffffffffffffffffffffffffffffffffffffffffffffff19167bffffffffffffffffffffffffffffffffffffffffffffffffffffffff1916815260200190815260200160002060006101000a81548160ff02191690831515021790555050565b600081519050620002cc8162000457565b92915050565b600060208284031215620002e557600080fd5b6000620002f584828501620002bb565b91505092915050565b60006200030d601c8362000412565b91507f4552433136353a20696e76616c696420696e74657266616365206964000000006000830152602082019050919050565b60006200034f60518362000412565b91507f636f6e7374727563746f7228293a2049737375696e6720626f647920736d617260008301527f7420636f6e74726163742063616e206e6f20626520696e7374616e746961746560208301527f64206279207a65726f20616464726573730000000000000000000000000000006040830152606082019050919050565b60006020820190508181036000830152620003e981620002fe565b9050919050565b600060208201905081810360008301526200040b8162000340565b9050919050565b600082825260208201905092915050565b6000620004308262000437565b9050919050565b600073ffffffffffffffffffffffffffffffffffffffff82169050919050565b620004628162000423565b81146200046e57600080fd5b50565b6126f480620004816000396000f3fe608060405234801561001057600080fd5b506004361061010b5760003560e01c806383f36c77116100a2578063bc197c8111610071578063bc197c81146102de578063ca429ac71461030e578063f23a6e611461032a578063f2fde38b1461035a578063f94837ec146103765761010b565b806383f36c77146102445780638da5cb5b14610260578063a31fca6d1461027e578063a4988011146102ae5761010b565b80635a11219d116100de5780635a11219d146101be5780636bc26187146101da578063715018a61461020a5780637af8bedf146102145761010b565b806301ffc9a71461011057806316a9824c14610140578063299ccd871461015e57806333a831181461018e575b600080fd5b61012a60048036038101906101259190611b0a565b6103a6565b60405161013791906122ee565b60405180910390f35b61014861040e565b6040516101559190612324565b60405180910390f35b61017860048036038101906101739190611b9a565b610434565b60405161018591906122ee565b60405180910390f35b6101a860048036038101906101a39190611aa3565b610658565b6040516101b5919061243f565b60405180910390f35b6101d860048036038101906101d39190611919565b610827565b005b6101f460048036038101906101ef91906118f0565b610958565b60405161020191906122ee565b60405180910390f35b6102126109ae565b005b61022e60048036038101906102299190611b9a565b610b01565b60405161023b91906122ee565b60405180910390f35b61025e60048036038101906102599190611a67565b610d1b565b005b610268610e0b565b60405161027591906121b0565b60405180910390f35b61029860048036038101906102939190611b9a565b610e34565b6040516102a591906122ee565b60405180910390f35b6102c860048036038101906102c39190611bec565b610ef9565b6040516102d5919061243f565b60405180910390f35b6102f860048036038101906102f39190611919565b611042565b6040516103059190612309565b60405180910390f35b610328600480360381019061032391906119d8565b611057565b005b610344600480360381019061033f91906119d8565b611188565b6040516103519190612309565b60405180910390f35b610374600480360381019061036f91906118f0565b61119d565b005b610390600480360381019061038b9190611b33565b61135f565b60405161039d919061243f565b60405180910390f35b600060016000837bffffffffffffffffffffffffffffffffffffffffffffffffffffffff19167bffffffffffffffffffffffffffffffffffffffffffffffffffffffff1916815260200190815260200160002060009054906101000a900460ff169050919050565b600260009054906101000a900473ffffffffffffffffffffffffffffffffffffffff1681565b600061043e611698565b600460008481526020019081526020016000206040518060c00160405290816000820160009054906101000a900473ffffffffffffffffffffffffffffffffffffffff1673ffffffffffffffffffffffffffffffffffffffff1673ffffffffffffffffffffffffffffffffffffffff1681526020016000820160149054906101000a900460ff161515151581526020016000820160159054906101000a900460ff161515151581526020016001820160009054906101000a900473ffffffffffffffffffffffffffffffffffffffff1673ffffffffffffffffffffffffffffffffffffffff1673ffffffffffffffffffffffffffffffffffffffff168152602001600282018054600181600116156101000203166002900480601f0160208091040260200160405190810160405280929190818152602001828054600181600116156101000203166002900480156105d75780601f106105ac576101008083540402835291602001916105d7565b820191906000526020600020905b8154815290600101906020018083116105ba57829003601f168201915b5050505050815260200160038201548152505090506000600560008581526020019081526020016000205490508160200151801561061757508160400151155b801561064157506006600082815260200190815260200160002060009054906101000a900460ff16155b801561064f57506003548411155b92505050919050565b600080600360008154809291906001019190505590506040518060c001604052808673ffffffffffffffffffffffffffffffffffffffff1681526020016000151581526020016000151581526020013373ffffffffffffffffffffffffffffffffffffffff168152602001858152602001848152506004600083815260200190815260200160002060008201518160000160006101000a81548173ffffffffffffffffffffffffffffffffffffffff021916908373ffffffffffffffffffffffffffffffffffffffff16021790555060208201518160000160146101000a81548160ff02191690831515021790555060408201518160000160156101000a81548160ff02191690831515021790555060608201518160010160006101000a81548173ffffffffffffffffffffffffffffffffffffffff021916908373ffffffffffffffffffffffffffffffffffffffff16021790555060808201518160020190805190602001906107ca9291906116fe565b5060a08201518160030155905050808573ffffffffffffffffffffffffffffffffffffffff167fd777b434e80deda8397cfaf91336bb8af64a9ec48e8b5c6d5f31ed8eee0387c860405160405180910390a3809150509392505050565b61082f611635565b73ffffffffffffffffffffffffffffffffffffffff1660008054906101000a900473ffffffffffffffffffffffffffffffffffffffff1673ffffffffffffffffffffffffffffffffffffffff16146108bc576040517f08c379a00000000000000000000000000000000000000000000000000000000081526004016108b3906123bf565b60405180910390fd5b600260009054906101000a900473ffffffffffffffffffffffffffffffffffffffff1673ffffffffffffffffffffffffffffffffffffffff16632eb2c2d686868686866040518663ffffffff1660e01b815260040161091f9594939291906121cb565b600060405180830381600087803b15801561093957600080fd5b505af115801561094d573d6000803e3d6000fd5b505050505050505050565b6000600760008373ffffffffffffffffffffffffffffffffffffffff1673ffffffffffffffffffffffffffffffffffffffff16815260200190815260200160002060009054906101000a900460ff169050919050565b6109b6611635565b73ffffffffffffffffffffffffffffffffffffffff1660008054906101000a900473ffffffffffffffffffffffffffffffffffffffff1673ffffffffffffffffffffffffffffffffffffffff1614610a43576040517f08c379a0000000000000000000000000000000000000000000000000000000008152600401610a3a906123bf565b60405180910390fd5b600073ffffffffffffffffffffffffffffffffffffffff1660008054906101000a900473ffffffffffffffffffffffffffffffffffffffff1673ffffffffffffffffffffffffffffffffffffffff167f8be0079c531659141344cd1fd0a4f28419497f9722a3daafe3b4186f6b6457e060405160405180910390a360008060006101000a81548173ffffffffffffffffffffffffffffffffffffffff021916908373ffffffffffffffffffffffffffffffffffffffff160217905550565b600080600460008481526020019081526020016000209050610b21610e0b565b73ffffffffffffffffffffffffffffffffffffffff163373ffffffffffffffffffffffffffffffffffffffff161480610ba957508060000160009054906101000a900473ffffffffffffffffffffffffffffffffffffffff1673ffffffffffffffffffffffffffffffffffffffff163373ffffffffffffffffffffffffffffffffffffffff16145b610be8576040517f08c379a0000000000000000000000000000000000000000000000000000000008152600401610bdf906123df565b60405180910390fd5b8060000160149054906101000a900460ff1615610c3a576040517f08c379a0000000000000000000000000000000000000000000000000000000008152600401610c319061241f565b60405180910390fd5b8060000160159054906101000a900460ff1615610c8c576040517f08c379a0000000000000000000000000000000000000000000000000000000008152600401610c83906123ff565b60405180910390fd5b60018160000160156101000a81548160ff0219169083151502179055508060000160009054906101000a900473ffffffffffffffffffffffffffffffffffffffff1673ffffffffffffffffffffffffffffffffffffffff16837f39c20adcec125d8e88864d4cbb74d45e0acf645fbb9f3eb42bb9b0fc538622c860405160405180910390a36001915050919050565b610d23611635565b73ffffffffffffffffffffffffffffffffffffffff1660008054906101000a900473ffffffffffffffffffffffffffffffffffffffff1673ffffffffffffffffffffffffffffffffffffffff1614610db0576040517f08c379a0000000000000000000000000000000000000000000000000000000008152600401610da7906123bf565b60405180910390fd5b80600760008473ffffffffffffffffffffffffffffffffffffffff1673ffffffffffffffffffffffffffffffffffffffff16815260200190815260200160002060006101000a81548160ff0219169083151502179055505050565b60008060009054906101000a900473ffffffffffffffffffffffffffffffffffffffff16905090565b60006006600083815260200190815260200160002060009054906101000a900460ff1615610e97576040517f08c379a0000000000000000000000000000000000000000000000000000000008152600401610e8e9061237f565b60405180910390fd5b60016006600084815260200190815260200160002060006101000a81548160ff021916908315150217905550817f1a16d25ec14553261a31183a05b9f9c9ff58b1aab8779f732fdf9d2487ea8bae60405160405180910390a260019050919050565b6000610f03611635565b73ffffffffffffffffffffffffffffffffffffffff1660008054906101000a900473ffffffffffffffffffffffffffffffffffffffff1673ffffffffffffffffffffffffffffffffffffffff1614610f90576040517f08c379a0000000000000000000000000000000000000000000000000000000008152600401610f87906123bf565b60405180910390fd5b6000610f9d858486610658565b905061103781604051602401610fb3919061243f565b6040516020818303038152906040527f299ccd87000000000000000000000000000000000000000000000000000000007bffffffffffffffffffffffffffffffffffffffffffffffffffffffff19166020820180517bffffffffffffffffffffffffffffffffffffffffffffffffffffffff8381831617835250505050828861135f565b915050949350505050565b600063bc197c8160e01b905095945050505050565b61105f611635565b73ffffffffffffffffffffffffffffffffffffffff1660008054906101000a900473ffffffffffffffffffffffffffffffffffffffff1673ffffffffffffffffffffffffffffffffffffffff16146110ec576040517f08c379a00000000000000000000000000000000000000000000000000000000081526004016110e3906123bf565b60405180910390fd5b600260009054906101000a900473ffffffffffffffffffffffffffffffffffffffff1673ffffffffffffffffffffffffffffffffffffffff1663f242432a86868686866040518663ffffffff1660e01b815260040161114f959493929190612233565b600060405180830381600087803b15801561116957600080fd5b505af115801561117d573d6000803e3d6000fd5b505050505050505050565b600063f23a6e6160e01b905095945050505050565b6111a5611635565b73ffffffffffffffffffffffffffffffffffffffff1660008054906101000a900473ffffffffffffffffffffffffffffffffffffffff1673ffffffffffffffffffffffffffffffffffffffff1614611232576040517f08c379a0000000000000000000000000000000000000000000000000000000008152600401611229906123bf565b60405180910390fd5b600073ffffffffffffffffffffffffffffffffffffffff168173ffffffffffffffffffffffffffffffffffffffff1614156112a2576040517f08c379a00000000000000000000000000000000000000000000000000000000081526004016112999061233f565b60405180910390fd5b8073ffffffffffffffffffffffffffffffffffffffff1660008054906101000a900473ffffffffffffffffffffffffffffffffffffffff1673ffffffffffffffffffffffffffffffffffffffff167f8be0079c531659141344cd1fd0a4f28419497f9722a3daafe3b4186f6b6457e060405160405180910390a3806000806101000a81548173ffffffffffffffffffffffffffffffffffffffff021916908373ffffffffffffffffffffffffffffffffffffffff16021790555050565b6000611369611635565b73ffffffffffffffffffffffffffffffffffffffff1660008054906101000a900473ffffffffffffffffffffffffffffffffffffffff1673ffffffffffffffffffffffffffffffffffffffff16146113f6576040517f08c379a00000000000000000000000000000000000000000000000000000000081526004016113ed906123bf565b60405180910390fd5b6113ff8361163d565b61143e576040517f08c379a00000000000000000000000000000000000000000000000000000000081526004016114359061235f565b60405180910390fd5b60006004600085815260200190815260200160002090508060000160149054906101000a900460ff16156114a7576040517f08c379a000000000000000000000000000000000000000000000000000000000815260040161149e9061239f565b60405180910390fd5b60018160000160146101000a81548160ff0219169083151502179055506000600260009054906101000a900473ffffffffffffffffffffffffffffffffffffffff1673ffffffffffffffffffffffffffffffffffffffff16637210f2878360000160009054906101000a900473ffffffffffffffffffffffffffffffffffffffff16846003015487866002018b6040518663ffffffff1660e01b815260040161155495949392919061228d565b602060405180830381600087803b15801561156e57600080fd5b505af1158015611582573d6000803e3d6000fd5b505050506040513d601f19601f820116820180604052508101906115a69190611bc3565b90508060056000878152602001908152602001600020819055508160000160009054906101000a900473ffffffffffffffffffffffffffffffffffffffff1673ffffffffffffffffffffffffffffffffffffffff1681867fff5fe3772513fec981b1ba14da8f8d85a922fdcefccd08294fa900c7bb01fb5b60405160405180910390a480925050509392505050565b600033905090565b60006004600083815260200190815260200160002060000160149054906101000a900460ff1615801561169157506004600083815260200190815260200160002060000160159054906101000a900460ff16155b9050919050565b6040518060c00160405280600073ffffffffffffffffffffffffffffffffffffffff168152602001600015158152602001600015158152602001600073ffffffffffffffffffffffffffffffffffffffff16815260200160608152602001600081525090565b828054600181600116156101000203166002900490600052602060002090601f016020900481019282601f1061173f57805160ff191683800117855561176d565b8280016001018555821561176d579182015b8281111561176c578251825591602001919060010190611751565b5b50905061177a919061177e565b5090565b5b8082111561179757600081600090555060010161177f565b5090565b6000813590506117aa8161264b565b92915050565b600082601f8301126117c157600080fd5b81356117d46117cf82612487565b61245a565b915081818352602084019350602081019050838560208402820111156117f957600080fd5b60005b83811015611829578161180f88826118c6565b8452602084019350602083019250506001810190506117fc565b5050505092915050565b60008135905061184281612662565b92915050565b60008135905061185781612679565b92915050565b600082601f83011261186e57600080fd5b813561188161187c826124af565b61245a565b9150808252602083016020830185838301111561189d57600080fd5b6118a88382846125f8565b50505092915050565b6000813590506118c081612690565b92915050565b6000813590506118d5816126a7565b92915050565b6000815190506118ea816126a7565b92915050565b60006020828403121561190257600080fd5b60006119108482850161179b565b91505092915050565b600080600080600060a0868803121561193157600080fd5b600061193f8882890161179b565b95505060206119508882890161179b565b945050604086013567ffffffffffffffff81111561196d57600080fd5b611979888289016117b0565b935050606086013567ffffffffffffffff81111561199657600080fd5b6119a2888289016117b0565b925050608086013567ffffffffffffffff8111156119bf57600080fd5b6119cb8882890161185d565b9150509295509295909350565b600080600080600060a086880312156119f057600080fd5b60006119fe8882890161179b565b9550506020611a0f8882890161179b565b9450506040611a20888289016118c6565b9350506060611a31888289016118c6565b925050608086013567ffffffffffffffff811115611a4e57600080fd5b611a5a8882890161185d565b9150509295509295909350565b60008060408385031215611a7a57600080fd5b6000611a888582860161179b565b9250506020611a9985828601611833565b9150509250929050565b600080600060608486031215611ab857600080fd5b6000611ac68682870161179b565b935050602084013567ffffffffffffffff811115611ae357600080fd5b611aef8682870161185d565b9250506040611b00868287016118b1565b9150509250925092565b600060208284031215611b1c57600080fd5b6000611b2a84828501611848565b91505092915050565b600080600060608486031215611b4857600080fd5b600084013567ffffffffffffffff811115611b6257600080fd5b611b6e8682870161185d565b9350506020611b7f868287016118c6565b9250506040611b90868287016118c6565b9150509250925092565b600060208284031215611bac57600080fd5b6000611bba848285016118c6565b91505092915050565b600060208284031215611bd557600080fd5b6000611be3848285016118db565b91505092915050565b60008060008060808587031215611c0257600080fd5b6000611c10878288016118c6565b9450506020611c218782880161179b565b9350506040611c32878288016118b1565b925050606085013567ffffffffffffffff811115611c4f57600080fd5b611c5b8782880161185d565b91505092959194509250565b6000611c738383612192565b60208301905092915050565b611c8881612556565b82525050565b6000611c9982612500565b611ca38185612523565b9350611cae836124db565b8060005b83811015611cdf578151611cc68882611c67565b9750611cd183612516565b925050600181019050611cb2565b5085935050505092915050565b611cf581612568565b82525050565b611d0481612574565b82525050565b6000611d158261250b565b611d1f8185612534565b9350611d2f818560208601612607565b611d388161263a565b840191505092915050565b600081546001811660008114611d605760018114611d8657611dca565b607f6002830416611d718187612534565b955060ff198316865260208601935050611dca565b60028204611d948187612534565b9550611d9f856124eb565b60005b82811015611dc157815481890152600182019150602081019050611da2565b80880195505050505b505092915050565b611ddb816125d4565b82525050565b611dea816125a0565b82525050565b6000611dfd602683612545565b91507f4f776e61626c653a206e6577206f776e657220697320746865207a65726f206160008301527f64647265737300000000000000000000000000000000000000000000000000006020830152604082019050919050565b6000611e63604683612545565b91507f636f6e6669726d474f5265717565737428293a2052657175657374206861732060008301527f6265656e2070726576696f75736c7920636f6e6669726d6564206f722077697460208301527f68647261776e00000000000000000000000000000000000000000000000000006040830152606082019050919050565b6000611eef603783612545565b91507f474f2068617320616c7265616479206265656e2077697468647261776e20627960008301527f207468652049737375696e6720426f6479204f776e65720000000000000000006020830152604082019050919050565b6000611f55602683612545565b91507f54686520726571756573742068617320616c7265616479206265656e20636f6e60008301527f6669726d656400000000000000000000000000000000000000000000000000006020830152604082019050919050565b6000611fbb602083612545565b91507f4f776e61626c653a2063616c6c6572206973206e6f7420746865206f776e65726000830152602082019050919050565b6000611ffb604683612545565b91507f526571756573742063616e2062652077697468647261776e206f6e6c7920627960008301527f2049737375696e6720426f6479206f7220746865207265717565737420696e6960208301527f746961746f7200000000000000000000000000000000000000000000000000006040830152606082019050919050565b6000612087602783612545565b91507f54686520726571756573742068617320616c7265616479206265656e2077697460008301527f68647261776e20000000000000000000000000000000000000000000000000006020830152604082019050919050565b60006120ed607683612545565b91507f436f6e6669726d656420474f2072657175657374732063616e206e6f7420626560008301527f2077697468647261776e2c2063616c6c207769746864726177474f436572746960208301527f6669636174652875696e743235362920746f207265766f6b6520616c7265616460408301527f7920636f6e6669726d656420474f2072657175657374000000000000000000006060830152608082019050919050565b61219b816125ca565b82525050565b6121aa816125ca565b82525050565b60006020820190506121c56000830184611c7f565b92915050565b600060a0820190506121e06000830188611c7f565b6121ed6020830187611c7f565b81810360408301526121ff8186611c8e565b905081810360608301526122138185611c8e565b905081810360808301526122278184611d0a565b90509695505050505050565b600060a0820190506122486000830188611c7f565b6122556020830187611c7f565b61226260408301866121a1565b61226f60608301856121a1565b81810360808301526122818184611d0a565b90509695505050505050565b600060a0820190506122a26000830188611c7f565b6122af6020830187611de1565b6122bc60408301866121a1565b81810360608301526122ce8185611d43565b905081810360808301526122e28184611d0a565b90509695505050505050565b60006020820190506123036000830184611cec565b92915050565b600060208201905061231e6000830184611cfb565b92915050565b60006020820190506123396000830184611dd2565b92915050565b6000602082019050818103600083015261235881611df0565b9050919050565b6000602082019050818103600083015261237881611e56565b9050919050565b6000602082019050818103600083015261239881611ee2565b9050919050565b600060208201905081810360008301526123b881611f48565b9050919050565b600060208201905081810360008301526123d881611fae565b9050919050565b600060208201905081810360008301526123f881611fee565b9050919050565b600060208201905081810360008301526124188161207a565b9050919050565b60006020820190508181036000830152612438816120e0565b9050919050565b600060208201905061245460008301846121a1565b92915050565b6000604051905081810181811067ffffffffffffffff8211171561247d57600080fd5b8060405250919050565b600067ffffffffffffffff82111561249e57600080fd5b602082029050602081019050919050565b600067ffffffffffffffff8211156124c657600080fd5b601f19601f8301169050602081019050919050565b6000819050602082019050919050565b60008190508160005260206000209050919050565b600081519050919050565b600081519050919050565b6000602082019050919050565b600082825260208201905092915050565b600082825260208201905092915050565b600082825260208201905092915050565b6000612561826125aa565b9050919050565b60008115159050919050565b60007fffffffff0000000000000000000000000000000000000000000000000000000082169050919050565b6000819050919050565b600073ffffffffffffffffffffffffffffffffffffffff82169050919050565b6000819050919050565b60006125df826125e6565b9050919050565b60006125f1826125aa565b9050919050565b82818337600083830152505050565b60005b8381101561262557808201518184015260208101905061260a565b83811115612634576000848401525b50505050565b6000601f19601f8301169050919050565b61265481612556565b811461265f57600080fd5b50565b61266b81612568565b811461267657600080fd5b50565b61268281612574565b811461268d57600080fd5b50565b612699816125a0565b81146126a457600080fd5b50565b6126b0816125ca565b81146126bb57600080fd5b5056fea26469706673582212209bbc61455cec44f8829ef33406b5d51bcac2eeab6680f3f4acdc7045a043b0b064736f6c63430007000033",
  "immutableReferences": {},
  "source": "// SPDX-License-Identifier: MIT\npragma solidity >=0.4.22 <0.9.0;\npragma experimental ABIEncoderV2;\n\nimport \"./GORegistry.sol\";\n\nimport \"@openzeppelin/contracts/access/Ownable.sol\";\nimport \"@openzeppelin/contracts/math/SafeMath.sol\";\nimport \"@openzeppelin/contracts/token/ERC1155/ERC1155Holder.sol\";\n\ncontract GOIssuingBody is Ownable, ERC165, ERC1155Holder {\n    using SafeMath for uint256;\n\n    GORegistry public theGORegistry;\n    uint256 private reqIdCounter;\n    mapping(uint256 => GORequest) reqs;\n    mapping(uint256 => uint256) fromGOToReq;\n    mapping(uint256 => bool) withdrawnGO;\n    mapping(address => bool) tradesWithIBAddrs;\n\n    event GORequested(address indexed theGOOwner, uint256 indexed reqId);\n    event GORequestConfirmed(\n        uint256 indexed requestId,\n        uint256 indexed goId,\n        address indexed owner\n    );\n    event GORequestWithdrawn(uint256 indexed reqId, address indexed reqOwner);\n    event IssuedGOWithdrawn(uint256 indexed tokenGOId);\n\n    struct GORequest {\n        address owner;\n        bool confirmed;\n        bool withdrawn;\n        address solicitor;\n        bytes goData;\n        int256 energyType;\n    }\n\n    constructor(address regAddress) Ownable() {\n        require(\n            msg.sender != address(0),\n            \"constructor(): Issuing body smart contract can no be instantiated by zero address\"\n        );\n        theGORegistry = GORegistry(regAddress);\n    }\n\n    function requestGO(\n        address theGOOwner,\n        bytes memory theGOData,\n        int256 _type\n    ) public returns (uint256 id) {\n        uint256 reqId = reqIdCounter++;\n        reqs[reqId] = GORequest({\n            owner: theGOOwner,\n            withdrawn: false,\n            confirmed: false,\n            solicitor: msg.sender,\n            goData: theGOData,\n            energyType: _type\n        });\n        emit GORequested(theGOOwner, reqId);\n        return reqId;\n    }\n\n    function confirmGORequest(\n        bytes memory validityFunc,\n        uint256 reqId,\n        uint256 amount\n    ) public onlyOwner returns (uint256) {\n        require(\n            _notConfirmedOrWithdrawn(reqId),\n            \"confirmGORequest(): Request has been previously confirmed or withdrawn\"\n        );\n        GORequest storage req = reqs[reqId];\n        require(!req.confirmed, \"The request has already been confirmed\");\n        req.confirmed = true;\n        uint256 goId =\n            theGORegistry.issueGOCertificate(\n                req.owner,\n                req.energyType,\n                amount,\n                req.goData,\n                validityFunc\n            );\n        fromGOToReq[reqId] = goId;\n        emit GORequestConfirmed(reqId, goId, req.owner);\n        return goId;\n    }\n\n    function issueGO(\n        uint256 amount,\n        address receiver,\n        int256 energyType,\n        bytes memory goData\n    ) public onlyOwner returns (uint256) {\n        uint256 reqId = requestGO(receiver, goData, energyType);\n        return\n            confirmGORequest(\n                abi.encodeWithSignature(\"validateGO(uint256)\", reqId),\n                reqId,\n                amount\n            );\n    }\n\n    function withdrawGORequest(uint256 reqId) external returns (bool) {\n        GORequest storage req = reqs[reqId];\n\n        require(\n            msg.sender == owner() || msg.sender == req.owner,\n            \"Request can be withdrawn only by Issuing Body or the request initiator\"\n        );\n        require(\n            !req.confirmed,\n            \"Confirmed GO requests can not be withdrawn, call withdrawGOCertificate(uint256) to revoke already confirmed GO request\"\n        );\n        require(!req.withdrawn, \"The request has already been withdrawn \");\n\n        req.withdrawn = true;\n        emit GORequestWithdrawn(reqId, req.owner);\n        return true;\n    }\n\n    function withdrawIssuedGO(uint256 goTokenId) external returns (bool) {\n        require(\n            !withdrawnGO[goTokenId],\n            \"GO has already been withdrawn by the Issuing Body Owner\"\n        );\n        withdrawnGO[goTokenId] = true;\n\n        emit IssuedGOWithdrawn(goTokenId);\n        return true;\n    }\n\n    function validateGO(uint256 reqId) external view returns (bool) {\n        GORequest memory req = reqs[reqId];\n        uint256 tokenGOId = fromGOToReq[reqId];\n\n        return\n            req.confirmed &&\n            !req.withdrawn &&\n            !withdrawnGO[tokenGOId] &&\n            reqId <= reqIdCounter;\n    }\n\n    function setTradesWith(address theIBAddress, bool value) public onlyOwner {\n        tradesWithIBAddrs[theIBAddress] = value;\n    }\n\n    function isTradingWith(address issuingBodyAddress)\n        public\n        view\n        returns (bool)\n    {\n        return tradesWithIBAddrs[issuingBodyAddress];\n    }\n\n    function transferGO(\n        address from,\n        address to,\n        uint256 id,\n        uint256 amount,\n        bytes memory data\n    ) public onlyOwner {\n        theGORegistry.safeTransferFrom(from, to, id, amount, data);\n    }\n\n    function transferGOBatch(\n        address from,\n        address to,\n        uint256[] memory ids,\n        uint256[] memory amounts,\n        bytes memory data\n    ) public onlyOwner {\n        theGORegistry.safeBatchTransferFrom(from, to, ids, amounts, data);\n    }\n\n    /////Private functions///////\n\n    function _notConfirmedOrWithdrawn(uint256 reqId)\n        private\n        view\n        returns (bool)\n    {\n        return !reqs[reqId].confirmed && !reqs[reqId].withdrawn;\n    }\n}\n",
  "sourcePath": "/home/tyrx/projects/GoO-bl/contracts/GOIssuingBody.sol",
  "compiler": {
    "name": "solc",
    "version": "0.7.0+commit.9e61f92b.Emscripten.clang"
  },
  "schemaVersion": "3.3.3",
  "updatedAt": "2021-02-08T22:17:26.973Z",
  "devdoc": {
    "kind": "dev",
    "methods": {
      "owner()": {
        "details": "Returns the address of the current owner."
      },
      "renounceOwnership()": {
        "details": "Leaves the contract without owner. It will not be possible to call `onlyOwner` functions anymore. Can only be called by the current owner. NOTE: Renouncing ownership will leave the contract without an owner, thereby removing any functionality that is only available to the owner."
      },
      "supportsInterface(bytes4)": {
        "details": "See {IERC165-supportsInterface}. Time complexity O(1), guaranteed to always use less than 30 000 gas."
      },
      "transferOwnership(address)": {
        "details": "Transfers ownership of the contract to a new account (`newOwner`). Can only be called by the current owner."
      }
    },
    "version": 1
  },
  "userdoc": {
    "kind": "user",
    "methods": {},
    "version": 1
  }
}