{
  "contractName": "GORegistry",
  "abi": [
    {
      "inputs": [],
      "stateMutability": "nonpayable",
      "type": "constructor"
    },
    {
      "anonymous": false,
      "inputs": [
        {
          "indexed": true,
          "internalType": "address",
          "name": "account",
          "type": "address"
        },
        {
          "indexed": true,
          "internalType": "address",
          "name": "operator",
          "type": "address"
        },
        {
          "indexed": false,
          "internalType": "bool",
          "name": "approved",
          "type": "bool"
        }
      ],
      "name": "ApprovalForAll",
      "type": "event"
    },
    {
      "anonymous": false,
      "inputs": [
        {
          "indexed": true,
          "internalType": "address",
          "name": "cancelIssuer",
          "type": "address"
        },
        {
          "indexed": true,
          "internalType": "address",
          "name": "cancelClaimer",
          "type": "address"
        },
        {
          "indexed": false,
          "internalType": "uint256[]",
          "name": "tokenIds",
          "type": "uint256[]"
        },
        {
          "indexed": false,
          "internalType": "uint256[]",
          "name": "amounts",
          "type": "uint256[]"
        },
        {
          "indexed": false,
          "internalType": "int256[]",
          "name": "certificateTypes",
          "type": "int256[]"
        },
        {
          "indexed": false,
          "internalType": "bytes[]",
          "name": "cancelData",
          "type": "bytes[]"
        }
      ],
      "name": "BatchGOCanceled",
      "type": "event"
    },
    {
      "anonymous": false,
      "inputs": [
        {
          "indexed": false,
          "internalType": "address",
          "name": "issuer",
          "type": "address"
        }
      ],
      "name": "IssuingBodyAdded",
      "type": "event"
    },
    {
      "anonymous": false,
      "inputs": [
        {
          "indexed": false,
          "internalType": "address",
          "name": "issuer",
          "type": "address"
        }
      ],
      "name": "IssuingBodyRemoved",
      "type": "event"
    },
    {
      "anonymous": false,
      "inputs": [
        {
          "indexed": true,
          "internalType": "address",
          "name": "cancelIssuer",
          "type": "address"
        },
        {
          "indexed": true,
          "internalType": "address",
          "name": "cancelClaimer",
          "type": "address"
        },
        {
          "indexed": false,
          "internalType": "uint256",
          "name": "tokenId",
          "type": "uint256"
        },
        {
          "indexed": false,
          "internalType": "uint256",
          "name": "amount",
          "type": "uint256"
        },
        {
          "indexed": false,
          "internalType": "int256",
          "name": "certificateType",
          "type": "int256"
        },
        {
          "indexed": false,
          "internalType": "bytes",
          "name": "cancelData",
          "type": "bytes"
        }
      ],
      "name": "OneGOCanceled",
      "type": "event"
    },
    {
      "anonymous": false,
      "inputs": [
        {
          "indexed": true,
          "internalType": "address",
          "name": "issuingBody",
          "type": "address"
        },
        {
          "indexed": false,
          "internalType": "uint256",
          "name": "amount",
          "type": "uint256"
        },
        {
          "indexed": false,
          "internalType": "int256",
          "name": "certificateType",
          "type": "int256"
        },
        {
          "indexed": false,
          "internalType": "bytes",
          "name": "data",
          "type": "bytes"
        }
      ],
      "name": "OneGOIssued",
      "type": "event"
    },
    {
      "anonymous": false,
      "inputs": [
        {
          "indexed": true,
          "internalType": "address",
          "name": "previousOwner",
          "type": "address"
        },
        {
          "indexed": true,
          "internalType": "address",
          "name": "newOwner",
          "type": "address"
        }
      ],
      "name": "OwnershipTransferred",
      "type": "event"
    },
    {
      "anonymous": false,
      "inputs": [
        {
          "indexed": true,
          "internalType": "address",
          "name": "operator",
          "type": "address"
        },
        {
          "indexed": true,
          "internalType": "address",
          "name": "from",
          "type": "address"
        },
        {
          "indexed": true,
          "internalType": "address",
          "name": "to",
          "type": "address"
        },
        {
          "indexed": false,
          "internalType": "uint256[]",
          "name": "ids",
          "type": "uint256[]"
        },
        {
          "indexed": false,
          "internalType": "uint256[]",
          "name": "values",
          "type": "uint256[]"
        }
      ],
      "name": "TransferBatch",
      "type": "event"
    },
    {
      "anonymous": false,
      "inputs": [
        {
          "indexed": true,
          "internalType": "address",
          "name": "operator",
          "type": "address"
        },
        {
          "indexed": true,
          "internalType": "address",
          "name": "from",
          "type": "address"
        },
        {
          "indexed": true,
          "internalType": "address",
          "name": "to",
          "type": "address"
        },
        {
          "indexed": false,
          "internalType": "uint256",
          "name": "id",
          "type": "uint256"
        },
        {
          "indexed": false,
          "internalType": "uint256",
          "name": "value",
          "type": "uint256"
        }
      ],
      "name": "TransferSingle",
      "type": "event"
    },
    {
      "anonymous": false,
      "inputs": [
        {
          "indexed": false,
          "internalType": "string",
          "name": "value",
          "type": "string"
        },
        {
          "indexed": true,
          "internalType": "uint256",
          "name": "id",
          "type": "uint256"
        }
      ],
      "name": "URI",
      "type": "event"
    },
    {
      "inputs": [
        {
          "internalType": "address",
          "name": "account",
          "type": "address"
        },
        {
          "internalType": "uint256",
          "name": "id",
          "type": "uint256"
        }
      ],
      "name": "balanceOf",
      "outputs": [
        {
          "internalType": "uint256",
          "name": "",
          "type": "uint256"
        }
      ],
      "stateMutability": "view",
      "type": "function",
      "constant": true
    },
    {
      "inputs": [
        {
          "internalType": "address[]",
          "name": "accounts",
          "type": "address[]"
        },
        {
          "internalType": "uint256[]",
          "name": "ids",
          "type": "uint256[]"
        }
      ],
      "name": "balanceOfBatch",
      "outputs": [
        {
          "internalType": "uint256[]",
          "name": "",
          "type": "uint256[]"
        }
      ],
      "stateMutability": "view",
      "type": "function",
      "constant": true
    },
    {
      "inputs": [
        {
          "internalType": "address",
          "name": "account",
          "type": "address"
        },
        {
          "internalType": "uint256",
          "name": "id",
          "type": "uint256"
        },
        {
          "internalType": "uint256",
          "name": "value",
          "type": "uint256"
        }
      ],
      "name": "burn",
      "outputs": [],
      "stateMutability": "nonpayable",
      "type": "function"
    },
    {
      "inputs": [
        {
          "internalType": "address",
          "name": "account",
          "type": "address"
        },
        {
          "internalType": "uint256[]",
          "name": "ids",
          "type": "uint256[]"
        },
        {
          "internalType": "uint256[]",
          "name": "values",
          "type": "uint256[]"
        }
      ],
      "name": "burnBatch",
      "outputs": [],
      "stateMutability": "nonpayable",
      "type": "function"
    },
    {
      "inputs": [
        {
          "internalType": "uint256",
          "name": "",
          "type": "uint256"
        },
        {
          "internalType": "address",
          "name": "",
          "type": "address"
        }
      ],
      "name": "canceledGOs",
      "outputs": [
        {
          "internalType": "uint256",
          "name": "",
          "type": "uint256"
        }
      ],
      "stateMutability": "view",
      "type": "function",
      "constant": true
    },
    {
      "inputs": [
        {
          "internalType": "uint256",
          "name": "",
          "type": "uint256"
        }
      ],
      "name": "certificateIssuers",
      "outputs": [
        {
          "internalType": "address",
          "name": "",
          "type": "address"
        }
      ],
      "stateMutability": "view",
      "type": "function",
      "constant": true
    },
    {
      "inputs": [
        {
          "internalType": "address",
          "name": "",
          "type": "address"
        }
      ],
      "name": "certifiedIssuers",
      "outputs": [
        {
          "internalType": "bool",
          "name": "",
          "type": "bool"
        }
      ],
      "stateMutability": "view",
      "type": "function",
      "constant": true
    },
    {
      "inputs": [
        {
          "internalType": "address",
          "name": "account",
          "type": "address"
        },
        {
          "internalType": "address",
          "name": "operator",
          "type": "address"
        }
      ],
      "name": "isApprovedForAll",
      "outputs": [
        {
          "internalType": "bool",
          "name": "",
          "type": "bool"
        }
      ],
      "stateMutability": "view",
      "type": "function",
      "constant": true
    },
    {
      "inputs": [],
      "name": "owner",
      "outputs": [
        {
          "internalType": "address",
          "name": "",
          "type": "address"
        }
      ],
      "stateMutability": "view",
      "type": "function",
      "constant": true
    },
    {
      "inputs": [],
      "name": "renounceOwnership",
      "outputs": [],
      "stateMutability": "nonpayable",
      "type": "function"
    },
    {
      "inputs": [
        {
          "internalType": "address",
          "name": "from",
          "type": "address"
        },
        {
          "internalType": "address",
          "name": "to",
          "type": "address"
        },
        {
          "internalType": "uint256[]",
          "name": "ids",
          "type": "uint256[]"
        },
        {
          "internalType": "uint256[]",
          "name": "amounts",
          "type": "uint256[]"
        },
        {
          "internalType": "bytes",
          "name": "data",
          "type": "bytes"
        }
      ],
      "name": "safeBatchTransferFrom",
      "outputs": [],
      "stateMutability": "nonpayable",
      "type": "function"
    },
    {
      "inputs": [
        {
          "internalType": "address",
          "name": "from",
          "type": "address"
        },
        {
          "internalType": "address",
          "name": "to",
          "type": "address"
        },
        {
          "internalType": "uint256",
          "name": "id",
          "type": "uint256"
        },
        {
          "internalType": "uint256",
          "name": "amount",
          "type": "uint256"
        },
        {
          "internalType": "bytes",
          "name": "data",
          "type": "bytes"
        }
      ],
      "name": "safeTransferFrom",
      "outputs": [],
      "stateMutability": "nonpayable",
      "type": "function"
    },
    {
      "inputs": [
        {
          "internalType": "address",
          "name": "operator",
          "type": "address"
        },
        {
          "internalType": "bool",
          "name": "approved",
          "type": "bool"
        }
      ],
      "name": "setApprovalForAll",
      "outputs": [],
      "stateMutability": "nonpayable",
      "type": "function"
    },
    {
      "inputs": [
        {
          "internalType": "bytes4",
          "name": "interfaceId",
          "type": "bytes4"
        }
      ],
      "name": "supportsInterface",
      "outputs": [
        {
          "internalType": "bool",
          "name": "",
          "type": "bool"
        }
      ],
      "stateMutability": "view",
      "type": "function",
      "constant": true
    },
    {
      "inputs": [
        {
          "internalType": "uint256",
          "name": "",
          "type": "uint256"
        }
      ],
      "name": "theGOStorage",
      "outputs": [
        {
          "internalType": "int256",
          "name": "certificateType",
          "type": "int256"
        },
        {
          "internalType": "address",
          "name": "issuingBody",
          "type": "address"
        },
        {
          "internalType": "bytes",
          "name": "data",
          "type": "bytes"
        },
        {
          "internalType": "bytes",
          "name": "validationFunction",
          "type": "bytes"
        },
        {
          "internalType": "bool",
          "name": "hasPrivate",
          "type": "bool"
        },
        {
          "internalType": "bytes32",
          "name": "rootHash",
          "type": "bytes32"
        },
        {
          "internalType": "bytes",
          "name": "privateData",
          "type": "bytes"
        },
        {
          "internalType": "bool",
          "name": "isRevealed",
          "type": "bool"
        }
      ],
      "stateMutability": "view",
      "type": "function",
      "constant": true
    },
    {
      "inputs": [],
      "name": "tokenNonce",
      "outputs": [
        {
          "internalType": "uint256",
          "name": "",
          "type": "uint256"
        }
      ],
      "stateMutability": "view",
      "type": "function",
      "constant": true
    },
    {
      "inputs": [
        {
          "internalType": "address",
          "name": "newOwner",
          "type": "address"
        }
      ],
      "name": "transferOwnership",
      "outputs": [],
      "stateMutability": "nonpayable",
      "type": "function"
    },
    {
      "inputs": [
        {
          "internalType": "uint256",
          "name": "",
          "type": "uint256"
        }
      ],
      "name": "uri",
      "outputs": [
        {
          "internalType": "string",
          "name": "",
          "type": "string"
        }
      ],
      "stateMutability": "view",
      "type": "function",
      "constant": true
    },
    {
      "inputs": [
        {
          "internalType": "address",
          "name": "",
          "type": "address"
        }
      ],
      "name": "userToIssuingBody",
      "outputs": [
        {
          "internalType": "address",
          "name": "",
          "type": "address"
        }
      ],
      "stateMutability": "view",
      "type": "function",
      "constant": true
    },
    {
      "inputs": [
        {
          "internalType": "address",
          "name": "to",
          "type": "address"
        },
        {
          "internalType": "int256",
          "name": "_certificateType",
          "type": "int256"
        },
        {
          "internalType": "uint256",
          "name": "amount",
          "type": "uint256"
        },
        {
          "internalType": "bytes",
          "name": "data",
          "type": "bytes"
        },
        {
          "internalType": "bytes",
          "name": "validationFunc",
          "type": "bytes"
        },
        {
          "internalType": "bool",
          "name": "_hasPrivate",
          "type": "bool"
        },
        {
          "internalType": "bytes32",
          "name": "_rootHash",
          "type": "bytes32"
        }
      ],
      "name": "issueGOCertificate",
      "outputs": [
        {
          "internalType": "uint256",
          "name": "_id",
          "type": "uint256"
        }
      ],
      "stateMutability": "nonpayable",
      "type": "function"
    },
    {
      "inputs": [
        {
          "internalType": "uint256",
          "name": "certId",
          "type": "uint256"
        },
        {
          "internalType": "bytes",
          "name": "revealedData",
          "type": "bytes"
        }
      ],
      "name": "revealPrivateData",
      "outputs": [],
      "stateMutability": "nonpayable",
      "type": "function"
    },
    {
      "inputs": [
        {
          "internalType": "address",
          "name": "from",
          "type": "address"
        },
        {
          "internalType": "address",
          "name": "to",
          "type": "address"
        },
        {
          "internalType": "uint256",
          "name": "tokenId",
          "type": "uint256"
        },
        {
          "internalType": "uint256",
          "name": "amount",
          "type": "uint256"
        },
        {
          "internalType": "bytes",
          "name": "data",
          "type": "bytes"
        },
        {
          "internalType": "bytes",
          "name": "cancelData",
          "type": "bytes"
        }
      ],
      "name": "safeTransferAndCancelGO",
      "outputs": [],
      "stateMutability": "nonpayable",
      "type": "function"
    },
    {
      "inputs": [
        {
          "internalType": "address",
          "name": "from",
          "type": "address"
        },
        {
          "internalType": "address",
          "name": "to",
          "type": "address"
        },
        {
          "internalType": "uint256[]",
          "name": "tokenIds",
          "type": "uint256[]"
        },
        {
          "internalType": "uint256[]",
          "name": "tokenAmounts",
          "type": "uint256[]"
        },
        {
          "internalType": "bytes",
          "name": "data",
          "type": "bytes"
        },
        {
          "internalType": "bytes[]",
          "name": "cancelData",
          "type": "bytes[]"
        }
      ],
      "name": "safeBatchTransferAndCancelGO",
      "outputs": [],
      "stateMutability": "nonpayable",
      "type": "function"
    },
    {
      "inputs": [
        {
          "internalType": "address",
          "name": "issuer",
          "type": "address"
        }
      ],
      "name": "addCertifiedIssuer",
      "outputs": [],
      "stateMutability": "nonpayable",
      "type": "function"
    },
    {
      "inputs": [
        {
          "internalType": "address",
          "name": "issuer",
          "type": "address"
        }
      ],
      "name": "removeCertifiedIssuer",
      "outputs": [],
      "stateMutability": "nonpayable",
      "type": "function"
    },
    {
      "inputs": [
        {
          "internalType": "address",
          "name": "registrant",
          "type": "address"
        }
      ],
      "name": "registerForIssuingBody",
      "outputs": [],
      "stateMutability": "nonpayable",
      "type": "function"
    }
  ],
  "bytecode": "0x60806040523480156200001157600080fd5b5060408051808201909152601881527f474f4365727469666963617465446f6d61696e2f7b69647d00000000000000006020820152620000586301ffc9a760e01b620000e8565b620000638162000143565b62000075636cdb3d1360e11b620000e8565b620000876303a24d0760e21b620000e8565b506000620000946200015c565b600480546001600160a01b0319166001600160a01b038316908117909155604051919250906000907f8be0079c531659141344cd1fd0a4f28419497f9722a3daafe3b4186f6b6457e0908290a35062000233565b6001600160e01b031980821614156200011e5760405162461bcd60e51b81526004016200011590620001fc565b60405180910390fd5b6001600160e01b0319166000908152602081905260409020805460ff19166001179055565b80516200015890600390602084019062000160565b5050565b3390565b828054600181600116156101000203166002900490600052602060002090601f016020900481019282601f10620001a357805160ff1916838001178555620001d3565b82800160010185558215620001d3579182015b82811115620001d3578251825591602001919060010190620001b6565b50620001e1929150620001e5565b5090565b5b80821115620001e15760008155600101620001e6565b6020808252601c908201527f4552433136353a20696e76616c696420696e7465726661636520696400000000604082015260600190565b613c2980620002436000396000f3fe608060405234801561001057600080fd5b506004361061016c5760003560e01c80636b20c454116100ce578063a22cb46511610087578063a22cb46514610319578063bf01dbdb1461032c578063dee2c0b01461033f578063e985e9c514610352578063f242432a14610365578063f2fde38b14610378578063f5298aca1461038b5761016c565b80636b20c454146102c8578063715018a6146102db57806388125a69146102e35780638da5cb5b146102f657806390f71b44146102fe578063966123a5146103065761016c565b80632d4568e71161012b5780632d4568e7146102225780632eb2c2d6146102355780634776a0d0146102485780634839f8881461025b5780634e1273f41461026e5780636a45da2c1461028e5780636a858579146102b55761016c565b80626a8cc714610171578062fdd58e1461018657806301ffc9a7146101af5780630e89341c146101cf5780631ad8b13b146101ef5780631d1c367f14610202575b600080fd5b61018461017f366004612f18565b61039e565b005b610199610194366004612d6b565b61043a565b6040516101a6919061398d565b60405180910390f35b6101c26101bd366004612ea5565b61048d565b6040516101a691906131cf565b6101e26101dd366004612edd565b6104ac565b6040516101a69190613253565b6101c26101fd366004612954565b610544565b610215610210366004612edd565b610559565b6040516101a69190613006565b610184610230366004612954565b610574565b610184610243366004612a79565b61062d565b610184610256366004612b22565b610847565b610184610269366004612954565b610bdd565b61028161027c366004612dc8565b610c88565b6040516101a691906130bd565b6102a161029c366004612edd565b610dc7565b6040516101a69897969594939291906131da565b6101996102c3366004612cbd565b610fb6565b6101846102d6366004612c14565b611289565b6101846112e3565b6101846102f1366004612954565b611362565b6102156113c0565b6101996113d0565b6101846103143660046129a3565b6113d6565b610184610327366004612c86565b61187f565b61019961033a366004612ef5565b61194d565b61021561034d366004612954565b61196a565b6101c261036036600461296f565b611985565b610184610373366004612bb0565b6119b3565b610184610386366004612954565b611b35565b610184610399366004612d95565b611bec565b60008281526006602052604090205482906001600160a01b031633146103c357600080fd5b6000838152600760205260409020600481015460ff1680156103ea5750600781015460ff16155b61040f5760405162461bcd60e51b815260040161040690613588565b60405180910390fd5b60078101805460ff19166001179055825161043390600683019060208601906126f8565b5050505050565b60006001600160a01b0383166104625760405162461bcd60e51b81526004016104069061336c565b5060008181526001602090815260408083206001600160a01b03861684529091529020545b92915050565b6001600160e01b03191660009081526020819052604090205460ff1690565b60038054604080516020601f60026000196101006001881615020190951694909404938401819004810282018101909252828152606093909290918301828280156105385780601f1061050d57610100808354040283529160200191610538565b820191906000526020600020905b81548152906001019060200180831161051b57829003601f168201915b50505050509050919050565b60096020526000908152604090205460ff1681565b6006602052600090815260409020546001600160a01b031681565b61057c611c41565b6004546001600160a01b039081169116146105a95760405162461bcd60e51b815260040161040690613699565b6001600160a01b0381166105cf5760405162461bcd60e51b815260040161040690613941565b6001600160a01b03811660009081526009602052604090819020805460ff19166001179055517fa1c1bb3ed462b642c5d30550f566d9f267e84cbcc3b38f7718069df14a82d77890610622908390613006565b60405180910390a150565b815183511461064e5760405162461bcd60e51b81526004016104069061388a565b6001600160a01b0384166106745760405162461bcd60e51b8152600401610406906135bf565b61067c611c41565b6001600160a01b0316856001600160a01b031614806106a257506106a285610360611c41565b6106be5760405162461bcd60e51b815260040161040690613604565b60006106c8611c41565b90506106d8818787878787611c45565b60005b84518110156107d95760008582815181106106f257fe5b60200260200101519050600085838151811061070a57fe5b60200260200101519050610777816040518060600160405280602a8152602001613bca602a91396001600086815260200190815260200160002060008d6001600160a01b03166001600160a01b0316815260200190815260200160002054611e8c9092919063ffffffff16565b60008381526001602090815260408083206001600160a01b038e811685529252808320939093558a16815220546107ae9082611eb8565b60009283526001602081815260408086206001600160a01b038d1687529091529093205550016106db565b50846001600160a01b0316866001600160a01b0316826001600160a01b03167f4a39dc06d4c0dbc64b70af90fd698a233a518aa5d07e595d983b8c0526c8f7fb87876040516108299291906130d0565b60405180910390a461083f818787878787611ee4565b505050505050565b61084f612776565b60008781526007602090815260409182902082516101008082018552825482526001808401546001600160a01b031683860152600280850180548851938116159094026000190190931604601f8101869004860282018601875280825292959394938601939092908301828280156109085780601f106108dd57610100808354040283529160200191610908565b820191906000526020600020905b8154815290600101906020018083116108eb57829003601f168201915b505050918352505060038201805460408051602060026001851615610100026000190190941693909304601f810184900484028201840190925281815293820193929183018282801561099c5780601f106109715761010080835404028352916020019161099c565b820191906000526020600020905b81548152906001019060200180831161097f57829003601f168201915b5050509183525050600482015460ff1615156020808301919091526005830154604080840191909152600684018054825160026101006001841615026000190190921691909104601f810185900485028201850190935282815260609094019392909190830182828015610a515780601f10610a2657610100808354040283529160200191610a51565b820191906000526020600020905b815481529060010190602001808311610a3457829003601f168201915b50505091835250506007919091015460ff1615156020918201528101516060820151919250610a7f91611ff2565b876001600160a01b0316896001600160a01b031614610ae057610adb8989898989898080601f0160208091040260200160405190810160405280939291908181526020018383808284376000920191909152506119b392505050565b610b2a565b610ae8611c41565b6001600160a01b0316896001600160a01b03161480610b0e5750610b0e89610360611c41565b610b2a5760405162461bcd60e51b815260040161040690613485565b610b358888886120a0565b60008781526008602090815260408083206001600160a01b038c168452909152902054610b629087611eb8565b60008881526008602090815260408083206001600160a01b03808e16808652919093529281902093909355835192519192908c16917f4f2004d0e230447d378ebe736da53bfaf73a8ccd5921fb49a215d027592602f491610bca918c918c918a908a906139c4565b60405180910390a3505050505050505050565b610be5611c41565b6004546001600160a01b03908116911614610c125760405162461bcd60e51b815260040161040690613699565b6001600160a01b038116610c385760405162461bcd60e51b815260040161040690613761565b6001600160a01b03811660009081526009602052604090819020805460ff19169055517fb986caa98fc7e57839781bde0729a55c2bf9018e4862dcc868af399d27ece6ee90610622908390613006565b60608151835114610cab5760405162461bcd60e51b815260040161040690613841565b606083516001600160401b0381118015610cc457600080fd5b50604051908082528060200260200182016040528015610cee578160200160208202803683370190505b50905060005b8451811015610dbf5760006001600160a01b0316858281518110610d1457fe5b60200260200101516001600160a01b03161415610d435760405162461bcd60e51b8152600401610406906133b7565b60016000858381518110610d5357fe5b602002602001015181526020019081526020016000206000868381518110610d7757fe5b60200260200101516001600160a01b03166001600160a01b0316815260200190815260200160002054828281518110610dac57fe5b6020908102919091010152600101610cf4565b509392505050565b60076020908152600091825260409182902080546001808301546002808501805488516101009582161595909502600019011691909104601f810187900487028401870190975286835292956001600160a01b0390911694919291830182828015610e735780601f10610e4857610100808354040283529160200191610e73565b820191906000526020600020905b815481529060010190602001808311610e5657829003601f168201915b5050505060038301805460408051602060026001851615610100026000190190941693909304601f8101849004840282018401909252818152949594935090830182828015610f035780601f10610ed857610100808354040283529160200191610f03565b820191906000526020600020905b815481529060010190602001808311610ee657829003601f168201915b505050506004830154600584015460068501805460408051602060026101006001861615026000190190941693909304601f8101849004840282018401909252818152969760ff9095169693955090830182828015610fa35780601f10610f7857610100808354040283529160200191610fa3565b820191906000526020600020905b815481529060010190602001808311610f8657829003601f168201915b5050506007909301549192505060ff1688565b3360008181526009602052604081205490919060ff161515600114610fed5760405162461bcd60e51b8152600401610406906137c1565b61102d3387878080601f016020809104026020016040519081016040528093929190818152602001838380828437600092019190915250611ff292505050565b6000611070338b8b8b8080601f0160208091040260200160405190810160405280939291908181526020018383808284376000920191909152506121a492505050565b905089156110bb576110bb338d838d8d8d8080601f0160208091040260200160405190810160405280939291908181526020018383808284376000920191909152506119b392505050565b6040518061010001604052808c8152602001336001600160a01b031681526020018a8a8080601f016020809104026020016040519081016040528093929190818152602001838380828437600092019190915250505090825250604080516020601f8b0181900481028201810190925289815291810191908a908a9081908401838280828437600092018290525093855250505087151560208084019190915260408084018990528051808301825283815260608501526080909301829052848252600781529082902083518155838201516001820180546001600160a01b0319166001600160a01b039092169190911790559183015180516111c492600285019201906126f8565b50606082015180516111e09160038401916020909101906126f8565b50608082015160048201805460ff191691151591909117905560a0820151600582015560c0820151805161121e9160068401916020909101906126f8565b5060e091909101516007909101805460ff191691151591909117905560405133907f73701a6649212452d22690b53e9bdf74df62350ef55096fd3da94f5f9d53feb490611272908d908f908e908e90613996565b60405180910390a29b9a5050505050505050505050565b611291611c41565b6001600160a01b0316836001600160a01b031614806112b757506112b783610360611c41565b6112d35760405162461bcd60e51b815260040161040690613485565b6112de8383836121eb565b505050565b6112eb611c41565b6004546001600160a01b039081169116146113185760405162461bcd60e51b815260040161040690613699565b6004546040516000916001600160a01b0316907f8be0079c531659141344cd1fd0a4f28419497f9722a3daafe3b4186f6b6457e0908390a3600480546001600160a01b0319169055565b3360008181526009602052604090205460ff1615156001146113965760405162461bcd60e51b8152600401610406906137c1565b506001600160a01b03166000908152600a6020526040902080546001600160a01b03191633179055565b6004546001600160a01b03165b90565b60055481565b85518181146113f75760405162461bcd60e51b815260040161040690613302565b876001600160a01b0316896001600160a01b031614611458576114538989898989898080601f01602080910402602001604051908101604052809392919081815260200183838082843760009201919091525061062d92505050565b6114a2565b611460611c41565b6001600160a01b0316896001600160a01b03161480611486575061148689610360611c41565b6114a25760405162461bcd60e51b815260040161040690613485565b6060816001600160401b03811180156114ba57600080fd5b506040519080825280602002602001820160405280156114e4578160200160208202803683370190505b50905060005b828110156118145761156188828151811061150157fe5b6020026020010151600860008c858151811061151957fe5b6020026020010151815260200190815260200160002060008d6001600160a01b03166001600160a01b0316815260200190815260200160002054611eb890919063ffffffff16565b600860008b848151811061157157fe5b6020026020010151815260200190815260200160002060008c6001600160a01b03166001600160a01b03168152602001908152602001600020819055506115b6612776565b600760008b84815181106115c657fe5b602090810291909101810151825281810192909252604090810160002081516101008082018452825482526001808401546001600160a01b031683870152600280850180548751938116159094026000190190931604601f81018790048702820187018652808252929593948601939092908301828280156116895780601f1061165e57610100808354040283529160200191611689565b820191906000526020600020905b81548152906001019060200180831161166c57829003601f168201915b505050918352505060038201805460408051602060026001851615610100026000190190941693909304601f810184900484028201840190925281815293820193929183018282801561171d5780601f106116f25761010080835404028352916020019161171d565b820191906000526020600020905b81548152906001019060200180831161170057829003601f168201915b5050509183525050600482015460ff1615156020808301919091526005830154604080840191909152600684018054825160026101006001841615026000190190921691909104601f8101859004850282018501909352828152606090940193929091908301828280156117d25780601f106117a7576101008083540402835291602001916117d2565b820191906000526020600020905b8154815290600101906020018083116117b557829003601f168201915b50505091835250506007919091015460ff161515602090910152805184519192509084908490811061180057fe5b6020908102919091010152506001016114ea565b506118208989896121eb565b886001600160a01b03168a6001600160a01b03167f953af56f12086fd901d7e8a392cfdc0c08e38bed8535ae07c9140b4055b148c88a8a85898960405161186b9594939291906130fe565b60405180910390a350505050505050505050565b816001600160a01b0316611891611c41565b6001600160a01b031614156118b85760405162461bcd60e51b8152600401610406906137f8565b80600260006118c5611c41565b6001600160a01b03908116825260208083019390935260409182016000908120918716808252919093529120805460ff191692151592909217909155611909611c41565b6001600160a01b03167f17307eab39ab6107e8899845ad3d59bd9653f200f220920489ca2b5937696c318360405161194191906131cf565b60405180910390a35050565b600860209081526000928352604080842090915290825290205481565b600a602052600090815260409020546001600160a01b031681565b6001600160a01b03918216600090815260026020908152604080832093909416825291909152205460ff1690565b6001600160a01b0384166119d95760405162461bcd60e51b8152600401610406906135bf565b6119e1611c41565b6001600160a01b0316856001600160a01b03161480611a075750611a0785610360611c41565b611a235760405162461bcd60e51b815260040161040690613485565b6000611a2d611c41565b9050611a4d818787611a3e8861238b565b611a478861238b565b87611c45565b611a94836040518060600160405280602a8152602001613bca602a913960008781526001602090815260408083206001600160a01b038d1684529091529020549190611e8c565b60008581526001602090815260408083206001600160a01b038b81168552925280832093909355871681522054611acb9084611eb8565b60008581526001602090815260408083206001600160a01b03808b16808652919093529281902093909355915190918881169190841690600080516020613b8683398151915290611b1f90899089906139b6565b60405180910390a461083f8187878787876123cf565b611b3d611c41565b6004546001600160a01b03908116911614611b6a5760405162461bcd60e51b815260040161040690613699565b6001600160a01b038116611b905760405162461bcd60e51b815260040161040690613408565b6004546040516001600160a01b038084169216907f8be0079c531659141344cd1fd0a4f28419497f9722a3daafe3b4186f6b6457e090600090a3600480546001600160a01b0319166001600160a01b0392909216919091179055565b611bf4611c41565b6001600160a01b0316836001600160a01b03161480611c1a5750611c1a83610360611c41565b611c365760405162461bcd60e51b815260040161040690613485565b6112de8383836120a0565b3390565b611c5386868686868661083f565b611c5c856124a0565b158015611c7157506001600160a01b03851615155b8015611c8557506001600160a01b03841615155b15611d615760005b8351811015611d5b5760006007600086600081518110611ca957fe5b60209081029190910181015182528181019290925260409081016000908120600101546001600160a01b038a81168352600a9094529190205490821692501681611d055760405162461bcd60e51b8152600401610406906134ce565b6001600160a01b038116611d2b5760405162461bcd60e51b815260040161040690613541565b611d3582826124be565b611d515760405162461bcd60e51b815260040161040690613705565b5050600101611c8d565b5061083f565b611d6a856124a0565b158015611d7f57506001600160a01b03851615155b8015611d9257506001600160a01b038416155b1561083f5760005b8351811015611e835760006007600086600081518110611db657fe5b60209081029190910181015182528181019290925260409081016000908120600101546001600160a01b038b81168352600a9094529190205490821692501681611e125760405162461bcd60e51b8152600401610406906137b0565b6001600160a01b038116611e385760405162461bcd60e51b8152600401610406906137b0565b806001600160a01b0316826001600160a01b03161480611e5d5750611e5d82826124be565b611e795760405162461bcd60e51b815260040161040690613913565b5050600101611d9a565b50505050505050565b60008184841115611eb05760405162461bcd60e51b81526004016104069190613253565b505050900390565b600082820183811015611edd5760405162461bcd60e51b81526004016104069061344e565b9392505050565b611ef6846001600160a01b03166125e7565b1561083f5760405163bc197c8160e01b81526001600160a01b0385169063bc197c8190611f2f908990899088908890889060040161301a565b602060405180830381600087803b158015611f4957600080fd5b505af1925050508015611f79575060408051601f3d908101601f19168201909252611f7691810190612ec1565b60015b611fc257611f85613aa5565b80611f905750611faa565b8060405162461bcd60e51b81526004016104069190613253565b60405162461bcd60e51b815260040161040690613266565b6001600160e01b0319811663bc197c8160e01b14611e835760405162461bcd60e51b8152600401610406906132ba565b611ffb82612620565b1561209c5760006060836001600160a01b03168360405161201c9190612fea565b600060405180830381855afa9150503d8060008114612057576040519150601f19603f3d011682016040523d82523d6000602084013e61205c565b606091505b509150915081801561207d57508080602001905181019061207d9190612e89565b6120995760405162461bcd60e51b8152600401610406906136ce565b50505b5050565b6001600160a01b0383166120c65760405162461bcd60e51b815260040161040690613656565b60006120d0611c41565b9050612100818560006120e28761238b565b6120eb8761238b565b60405180602001604052806000815250611c45565b61214782604051806060016040528060248152602001613ba66024913960008681526001602090815260408083206001600160a01b038b1684529091529020549190611e8c565b60008481526001602090815260408083206001600160a01b03808a1680865291909352818420949094555191929190841690600080516020613b868339815191529061219690889088906139b6565b60405180910390a450505050565b6005805460010190819055600081815260066020526040812080546001600160a01b0319166001600160a01b038716179055906121e385828686612626565b949350505050565b6001600160a01b0383166122115760405162461bcd60e51b815260040161040690613656565b80518251146122325760405162461bcd60e51b81526004016104069061388a565b600061223c611c41565b905061225c81856000868660405180602001604052806000815250611c45565b60005b835181101561233a576122f183828151811061227757fe5b6020026020010151604051806060016040528060248152602001613ba660249139600160008886815181106122a857fe5b602002602001015181526020019081526020016000206000896001600160a01b03166001600160a01b0316815260200190815260200160002054611e8c9092919063ffffffff16565b6001600086848151811061230157fe5b602090810291909101810151825281810192909252604090810160009081206001600160a01b038a16825290925290205560010161225f565b5060006001600160a01b0316846001600160a01b0316826001600160a01b03167f4a39dc06d4c0dbc64b70af90fd698a233a518aa5d07e595d983b8c0526c8f7fb86866040516121969291906130d0565b6040805160018082528183019092526060918291906020808301908036833701905050905082816000815181106123be57fe5b602090810291909101015292915050565b6123e1846001600160a01b03166125e7565b1561083f5760405163f23a6e6160e01b81526001600160a01b0385169063f23a6e619061241a9089908990889088908890600401613078565b602060405180830381600087803b15801561243457600080fd5b505af1925050508015612464575060408051601f3d908101601f1916820190925261246191810190612ec1565b60015b61247057611f85613aa5565b6001600160e01b0319811663f23a6e6160e01b14611e835760405162461bcd60e51b8152600401610406906132ba565b6001600160a01b031660009081526009602052604090205460ff1690565b60006124c983612620565b6124e55760405162461bcd60e51b81526004016104069061373c565b6124ee82612620565b61250a5760405162461bcd60e51b81526004016104069061373c565b60608360405160240161251d9190613006565b60408051601f198184030181529181526020820180516001600160e01b0316636bc2618760e01b179052519091506000906060906001600160a01b03861690612567908590612fea565b600060405180830381855afa9150503d80600081146125a2576040519150601f19603f3d011682016040523d82523d6000602084013e6125a7565b606091505b5091509150816125c95760405162461bcd60e51b815260040161040690613513565b808060200190518101906125dd9190612e89565b9695505050505050565b6000813f7fc5d2460186f7233c927e7db2dcc703c0e500b653ca82273b7bfad8045d85a4708181148015906121e3575050151592915050565b3b151590565b6001600160a01b03841661264c5760405162461bcd60e51b8152600401610406906138d2565b6000612656611c41565b905061266881600087611a3e8861238b565b60008481526001602090815260408083206001600160a01b03891684529091529020546126959084611eb8565b60008581526001602090815260408083206001600160a01b03808b1680865291909352818420949094555190841690600080516020613b86833981519152906126e190899089906139b6565b60405180910390a4610433816000878787876123cf565b828054600181600116156101000203166002900490600052602060002090601f016020900481019282601f1061273957805160ff1916838001178555612766565b82800160010185558215612766579182015b8281111561276657825182559160200191906001019061274b565b506127729291506127cb565b5090565b6040518061010001604052806000815260200160006001600160a01b03168152602001606081526020016060815260200160001515815260200160008019168152602001606081526020016000151581525090565b5b8082111561277257600081556001016127cc565b80356001600160a01b038116811461048757600080fd5b60008083601f840112612808578081fd5b5081356001600160401b0381111561281e578182fd5b602083019150836020808302850101111561283857600080fd5b9250929050565b600082601f83011261284f578081fd5b813561286261285d82613a10565b6139ea565b81815291506020808301908481018184028601820187101561288357600080fd5b60005b848110156128a257813584529282019290820190600101612886565b505050505092915050565b60008083601f8401126128be578182fd5b5081356001600160401b038111156128d4578182fd5b60208301915083602082850101111561283857600080fd5b600082601f8301126128fc578081fd5b81356001600160401b03811115612911578182fd5b612924601f8201601f19166020016139ea565b915080825283602082850101111561293b57600080fd5b8060208401602084013760009082016020015292915050565b600060208284031215612965578081fd5b611edd83836127e0565b60008060408385031215612981578081fd5b61298b84846127e0565b915061299a84602085016127e0565b90509250929050565b60008060008060008060008060c0898b0312156129be578384fd5b6129c88a8a6127e0565b97506129d78a60208b016127e0565b965060408901356001600160401b03808211156129f2578586fd5b6129fe8c838d0161283f565b975060608b0135915080821115612a13578586fd5b612a1f8c838d0161283f565b965060808b0135915080821115612a34578586fd5b612a408c838d016128ad565b909650945060a08b0135915080821115612a58578384fd5b50612a658b828c016127f7565b999c989b5096995094979396929594505050565b600080600080600060a08688031215612a90578081fd5b8535612a9b81613b49565b94506020860135612aab81613b49565b935060408601356001600160401b0380821115612ac6578283fd5b612ad289838a0161283f565b94506060880135915080821115612ae7578283fd5b612af389838a0161283f565b93506080880135915080821115612b08578283fd5b50612b15888289016128ec565b9150509295509295909350565b60008060008060008060008060c0898b031215612b3d578384fd5b612b478a8a6127e0565b9750612b568a60208b016127e0565b9650604089013595506060890135945060808901356001600160401b0380821115612b7f578586fd5b612b8b8c838d016128ad565b909650945060a08b0135915080821115612ba3578384fd5b50612a658b828c016128ad565b600080600080600060a08688031215612bc7578081fd5b612bd187876127e0565b9450612be087602088016127e0565b9350604086013592506060860135915060808601356001600160401b03811115612c08578182fd5b612b15888289016128ec565b600080600060608486031215612c28578081fd5b8335612c3381613b49565b925060208401356001600160401b0380821115612c4e578283fd5b612c5a8783880161283f565b93506040860135915080821115612c6f578283fd5b50612c7c8682870161283f565b9150509250925092565b60008060408385031215612c98578182fd5b612ca284846127e0565b91506020830135612cb281613b61565b809150509250929050565b600080600080600080600080600060e08a8c031215612cda578283fd5b8935612ce581613b49565b985060208a0135975060408a0135965060608a01356001600160401b0380821115612d0e578485fd5b612d1a8d838e016128ad565b909850965060808c0135915080821115612d32578485fd5b50612d3f8c828d016128ad565b90955093505060a08a0135612d5381613b61565b8092505060c08a013590509295985092959850929598565b60008060408385031215612d7d578182fd5b612d8784846127e0565b946020939093013593505050565b600080600060608486031215612da9578081fd5b612db385856127e0565b95602085013595506040909401359392505050565b60008060408385031215612dda578182fd5b82356001600160401b0380821115612df0578384fd5b818501915085601f830112612e03578384fd5b8135612e1161285d82613a10565b80828252602080830192508086018a828387028901011115612e31578889fd5b8896505b84871015612e5b57612e478b826127e0565b845260019690960195928101928101612e35565b509096508701359350505080821115612e72578283fd5b50612e7f8582860161283f565b9150509250929050565b600060208284031215612e9a578081fd5b8151611edd81613b61565b600060208284031215612eb6578081fd5b8135611edd81613b6f565b600060208284031215612ed2578081fd5b8151611edd81613b6f565b600060208284031215612eee578081fd5b5035919050565b60008060408385031215612f07578182fd5b8235915061299a84602085016127e0565b60008060408385031215612f2a578182fd5b8235915060208301356001600160401b03811115612f46578182fd5b612e7f858286016128ec565b815260200190565b6000815180845260208085019450808401835b83811015612f8957815187529582019590820190600101612f6d565b509495945050505050565b60008284528282602086013780602084860101526020601f19601f85011685010190509392505050565b60008151808452612fd6816020860160208601613a73565b601f01601f19169290920160200192915050565b60008251612ffc818460208701613a73565b9190910192915050565b6001600160a01b0391909116815260200190565b6001600160a01b0386811682528516602082015260a06040820181905260009061304690830186612f5a565b82810360608401526130588186612f5a565b9050828103608084015261306c8185612fbe565b98975050505050505050565b6001600160a01b03868116825285166020820152604081018490526060810183905260a0608082018190526000906130b290830184612fbe565b979650505050505050565b600060208252611edd6020830184612f5a565b6000604082526130e36040830185612f5a565b82810360208401526130f58185612f5a565b95945050505050565b6000608082526131116080830188612f5a565b6020838203818501526131248289612f5a565b9150838203604085015281875161313b818561398d565b91508289019350845b8181101561316557613157838651612f52565b948401949250600101613144565b5050848103606086015280925061317c868261398d565b92505081818602830187855b888110156131be57838303865261319f828b613a2f565b6131aa858284612f94565b978701979450505090840190600101613188565b50909b9a5050505050505050505050565b901515815260200190565b8881526001600160a01b0388166020820152610100604082018190526000906132058382018a612fbe565b905082810360608401526132198189612fbe565b905086151560808401528560a084015282810360c084015261323b8186612fbe565b91505082151560e08301529998505050505050505050565b600060208252611edd6020830184612fbe565b60208082526034908201527f455243313135353a207472616e7366657220746f206e6f6e20455243313135356040820152732932b1b2b4bb32b91034b6b83632b6b2b73a32b960611b606082015260800190565b60208082526028908201527f455243313135353a204552433131353552656365697665722072656a656374656040820152676420746f6b656e7360c01b606082015260800190565b60208082526044908201527f7361666542617463685472616e73666572416e6443616e63656c474f3a20436160408201527f6e63656c2064617461206d75737420657175616c2063616e63656c20726571756060820152636573747360e01b608082015260a00190565b6020808252602b908201527f455243313135353a2062616c616e636520717565727920666f7220746865207a60408201526a65726f206164647265737360a81b606082015260800190565b60208082526031908201527f455243313135353a2062617463682062616c616e636520717565727920666f7260408201527020746865207a65726f206164647265737360781b606082015260800190565b60208082526026908201527f4f776e61626c653a206e6577206f776e657220697320746865207a65726f206160408201526564647265737360d01b606082015260800190565b6020808252601b908201527f536166654d6174683a206164646974696f6e206f766572666c6f770000000000604082015260600190565b60208082526029908201527f455243313135353a2063616c6c6572206973206e6f74206f776e6572206e6f7260408201526808185c1c1c9bdd995960ba1b606082015260800190565b60208082526025908201527f53656e646572206973206e6f7420726567697374657265642077697468696e2060408201526430b71024a160d91b606082015260800190565b6020808252601490820152736120616e64206220646f206e6f7420747261646560601b604082015260600190565b60208082526027908201527f5265636569766572206973206e6f742072656769737465726564207769746869604082015266371030b71024a160c91b606082015260800190565b6020808252601b908201527f4e6f20707269766174652064617461206f722072657665616c65640000000000604082015260600190565b60208082526025908201527f455243313135353a207472616e7366657220746f20746865207a65726f206164604082015264647265737360d81b606082015260800190565b60208082526032908201527f455243313135353a207472616e736665722063616c6c6572206973206e6f74206040820152711bdddb995c881b9bdc88185c1c1c9bdd995960721b606082015260800190565b60208082526023908201527f455243313135353a206275726e2066726f6d20746865207a65726f206164647260408201526265737360e81b606082015260800190565b6020808252818101527f4f776e61626c653a2063616c6c6572206973206e6f7420746865206f776e6572604082015260600190565b6020808252601c908201527f494220646f6573206e6f742076616c6964617465207265717565737400000000604082015260600190565b6020808252601b908201527f46726f6d20646f6573206e6f74207472616465207769746820746f0000000000604082015260600190565b6020808252600b908201526a6e6f74206164647265737360a81b604082015260600190565b6020808252602f908201527f43616e206e6f742072656d6f7665207a65726f2061646472657373206173206360408201526e32b93a34b334b2b21034b9b9bab2b960891b606082015260800190565b602080825260009082015260400190565b6020808252601f908201527f596f7520617265206e6f74206120636572746966696564206973737565722e00604082015260600190565b60208082526029908201527f455243313135353a2073657474696e6720617070726f76616c20737461747573604082015268103337b91039b2b63360b91b606082015260800190565b60208082526029908201527f455243313135353a206163636f756e747320616e6420696473206c656e677468604082015268040dad2e6dac2e8c6d60bb1b606082015260800190565b60208082526028908201527f455243313135353a2069647320616e6420616d6f756e7473206c656e677468206040820152670dad2e6dac2e8c6d60c31b606082015260800190565b60208082526021908201527f455243313135353a206d696e7420746f20746865207a65726f206164647265736040820152607360f81b606082015260800190565b602080825260149082015273189d5c9b8812508818da1958dac819985a5b195960621b604082015260600190565b6020808252602c908201527f43616e206e6f7420616464207a65726f2061646472657373206173206365727460408201526b34b334b2b21034b9b9bab2b960a11b606082015260800190565b90815260200190565b6000858252846020830152606060408301526125dd606083018486612f94565b918252602082015260400190565b6000868252856020830152846040830152608060608301526130b2608083018486612f94565b6040518181016001600160401b0381118282101715613a0857600080fd5b604052919050565b60006001600160401b03821115613a25578081fd5b5060209081020190565b6000808335601e19843603018112613a45578283fd5b83016020810192503590506001600160401b03811115613a6457600080fd5b80360383131561283857600080fd5b60005b83811015613a8e578181015183820152602001613a76565b838111156120995750506000910152565b60e01c90565b600060443d1015613ab5576113cd565b600481823e6308c379a0613ac98251613a9f565b14613ad3576113cd565b6040513d600319016004823e80513d6001600160401b038160248401118184111715613b0257505050506113cd565b82840192508251915080821115613b1c57505050506113cd565b503d83016020828401011115613b34575050506113cd565b601f01601f1916810160200160405291505090565b6001600160a01b0381168114613b5e57600080fd5b50565b8015158114613b5e57600080fd5b6001600160e01b031981168114613b5e57600080fdfec3d58168c5ae7397731d063d5bbf3d657854427343f4c083240f7aacaa2d0f62455243313135353a206275726e20616d6f756e7420657863656564732062616c616e6365455243313135353a20696e73756666696369656e742062616c616e636520666f72207472616e73666572a2646970667358221220d62e4df96856e657baff09e995f365a6ef83437e65e6de0696612092c038472764736f6c63430007000033",
  "immutableReferences": {},
  "source": "// SPDX-License-Identifier: MIT\npragma solidity >=0.4.22 <0.9.0;\n\npragma experimental ABIEncoderV2;\n\nimport \"@openzeppelin/contracts/token/ERC1155/ERC1155Burnable.sol\";\nimport \"@openzeppelin/contracts/access/Ownable.sol\";\nimport \"@openzeppelin/contracts/math/SafeMath.sol\";\n\ncontract GORegistry is ERC1155Burnable, Ownable {\n    using SafeMath for uint256;\n\n    uint256 public tokenNonce;\n\n    mapping(uint256 => address) public certificateIssuers;\n\n    mapping(uint256 => GOCertificate) public theGOStorage;\n    mapping(uint256 => mapping(address => uint256)) public canceledGOs;\n\n    mapping(address => bool) public certifiedIssuers;\n\n    mapping(address => address) public userToIssuingBody;\n\n    modifier onlyCertificateIssuer(uint256 certId) {\n        require(certificateIssuers[certId] == msg.sender);\n        _;\n    }\n\n    modifier onlyCertifiedIssuers(address issuer) {\n        require(\n            certifiedIssuers[issuer] == true,\n            \"You are not a certified issuer.\"\n        );\n        _;\n    }\n\n    event OneGOIssued(\n        address indexed issuingBody,\n        uint256 amount,\n        int256 certificateType,\n        bytes data\n    );\n    event OneGOCanceled(\n        address indexed cancelIssuer,\n        address indexed cancelClaimer,\n        uint256 tokenId,\n        uint256 amount,\n        int256 certificateType,\n        bytes cancelData\n    );\n    event BatchGOCanceled(\n        address indexed cancelIssuer,\n        address indexed cancelClaimer,\n        uint256[] tokenIds,\n        uint256[] amounts,\n        int256[] certificateTypes,\n        bytes[] cancelData\n    );\n    event IssuingBodyAdded(address issuer);\n    event IssuingBodyRemoved(address issuer);\n\n    struct GOCertificate {\n        int256 certificateType;\n        address issuingBody;\n        bytes data;\n        bytes validationFunction;\n        bool hasPrivate;\n        bytes32 rootHash;\n        bytes privateData;\n        bool isRevealed;\n    }\n\n    constructor() ERC1155(\"GOCertificateDomain/{id}\") Ownable() {}\n\n    function issueGOCertificate(\n        address to,\n        int256 _certificateType,\n        uint256 amount,\n        bytes calldata data,\n        bytes calldata validationFunc,\n        bool _hasPrivate,\n        bytes32 _rootHash\n    ) external onlyCertifiedIssuers(msg.sender) returns (uint256 _id) {\n        _isValid(msg.sender, validationFunc);\n        uint256 tokenId = _generateGOToken(msg.sender, amount, data);\n        if (amount > 0) {\n            safeTransferFrom(msg.sender, to, tokenId, amount, data);\n        }\n        theGOStorage[tokenId] = GOCertificate({\n            certificateType: _certificateType,\n            issuingBody: msg.sender,\n            data: data,\n            validationFunction: validationFunc,\n            hasPrivate: _hasPrivate,\n            rootHash: _rootHash,\n            privateData: \"\",\n            isRevealed: false\n        });\n        emit OneGOIssued(msg.sender, amount, _certificateType, data);\n        return tokenId;\n    }\n\n    function revealPrivateData(uint256 certId, bytes memory revealedData) onlyCertificateIssuer(certId) public {\n        GOCertificate storage go = theGOStorage[certId];\n        require(go.hasPrivate && !go.isRevealed, \"No private data or revealed\");\n        go.isRevealed = true;\n        go.privateData = revealedData;\n    }\n\n    function _beforeTokenTransfer(\n        address operator,\n        address from,\n        address to,\n        uint256[] memory ids,\n        uint256[] memory amounts,\n        bytes memory data\n    ) internal virtual override {\n        super._beforeTokenTransfer(operator, from, to, ids, amounts, data);\n        if(!_isCertifiedIssuer(from) && from != address(0) && to != address(0)){\n            for(uint256 i = 0; i < ids.length; i++){\n                address fromIB = theGOStorage[ids[0]].issuingBody;\n                address toIB = userToIssuingBody[to];\n                require(fromIB != address(0) , \"Sender is not registered within an IB\");\n                require(toIB != address(0) , \"Receiver is not registered within an IB\");\n                require(_doesFromTradeWithTo(fromIB, toIB), \n                    \"From does not trade with to\");\n            }\n        }\n        else if(!_isCertifiedIssuer(from) && from != address(0) && to == address(0)){\n            for(uint256 i = 0; i < ids.length; i++){\n                address fromIBToken = theGOStorage[ids[0]].issuingBody;\n                address fromIBCurrent = userToIssuingBody[from];\n                require(fromIBToken != address(0) , \"\");\n                require(fromIBCurrent != address(0) , \"\");\n                require(fromIBToken == fromIBCurrent ||_doesFromTradeWithTo(fromIBToken, fromIBCurrent), \n                    \"burn IB check failed\");\n            }\n        }\n    }\n\n    function safeTransferAndCancelGO(\n        address from,\n        address to,\n        uint256 tokenId,\n        uint256 amount,\n        bytes calldata data,\n        bytes calldata cancelData\n    ) external {\n        GOCertificate memory go = theGOStorage[tokenId];\n        _isValid(go.issuingBody, go.validationFunction);\n        if (from != to) {\n            super.safeTransferFrom(from, to, tokenId, amount, data);\n        } else {\n            require(\n                from == _msgSender() || isApprovedForAll(from, _msgSender()),\n                \"ERC1155: caller is not owner nor approved\"\n            );\n        }\n        super._burn(to, tokenId, amount);\n        canceledGOs[tokenId][to] = canceledGOs[tokenId][to].add(amount);\n        emit OneGOCanceled(\n            from,\n            to,\n            tokenId,\n            amount,\n            go.certificateType,\n            cancelData\n        );\n    }\n\n    function safeBatchTransferAndCancelGO(\n        address from,\n        address to,\n        uint256[] memory tokenIds,\n        uint256[] memory tokenAmounts,\n        bytes calldata data,\n        bytes[] calldata cancelData\n    ) external {\n        uint256 cancelRequests = tokenIds.length;\n        require(\n            cancelData.length == cancelRequests,\n            \"safeBatchTransferAndCancelGO: Cancel data must equal cancel requests\"\n        );\n        if (from != to) {\n            super.safeBatchTransferFrom(from, to, tokenIds, tokenAmounts, data);\n        } else {\n            require(\n                from == _msgSender() || isApprovedForAll(from, _msgSender()),\n                \"ERC1155: caller is not owner nor approved\"\n            );\n        }\n        int256[] memory certificateTypes = new int256[](cancelRequests);\n        for (uint256 i = 0; i < cancelRequests; i++) {\n            canceledGOs[tokenIds[i]][to] = canceledGOs[tokenIds[i]][to].add(\n                tokenAmounts[i]\n            );\n            GOCertificate memory go = theGOStorage[tokenIds[i]];\n            certificateTypes[i] = go.certificateType;\n        }\n\n        super._burnBatch(to, tokenIds, tokenAmounts);\n        emit BatchGOCanceled(\n            from,\n            to,\n            tokenIds,\n            tokenAmounts,\n            certificateTypes,\n            cancelData\n        );\n    }\n\n    function addCertifiedIssuer(address issuer) external onlyOwner() {\n        require(\n            issuer != address(0),\n            \"Can not add zero address as certified issuer\"\n        );\n        certifiedIssuers[issuer] = true;\n        emit IssuingBodyAdded(issuer);\n    }\n\n    function removeCertifiedIssuer(address issuer) external onlyOwner() {\n        require(\n            issuer != address(0),\n            \"Can not remove zero address as certified issuer\"\n        );\n        certifiedIssuers[issuer] = false;\n        emit IssuingBodyRemoved(issuer);\n    }\n\n    function registerForIssuingBody(address registrant) public onlyCertifiedIssuers(msg.sender){\n        userToIssuingBody[registrant] = msg.sender;\n    }\n\n    function _generateGOToken(\n        address certificateIssuer,\n        uint256 initialSupply,\n        bytes memory data\n    ) private returns (uint256 id) {\n        uint256 certificateId = ++tokenNonce;\n        certificateIssuers[certificateId] = certificateIssuer;\n        super._mint(certificateIssuer, certificateId, initialSupply, data);\n        return certificateId;\n    }\n\n    function _isValid(address sender, bytes memory validationFunction)\n        internal\n        view\n    {\n        if (_isOfTypeContract(sender)) {\n            (bool success, bytes memory result) =\n                sender.staticcall(validationFunction);\n\n            require(\n                success && abi.decode(result, (bool)),\n                \"IB does not validate request\"\n            );\n        }\n    }\n\n    function _isOfTypeContract(address theAddress) private view returns (bool) {\n        uint256 size;\n        assembly {\n            size := extcodesize(theAddress)\n        }\n        return size > 0;\n    }\n\n    function _isCertifiedIssuer(address theSender) private view returns (bool){\n        return certifiedIssuers[theSender];\n    }\n\n    function _doesFromTradeWithTo(address from, address to)\n        private\n        view\n        returns (bool)\n    {\n        require(\n            _isOfTypeContract(from),\n            \"not address\"\n        );\n        require(\n            _isOfTypeContract(to),\n            \"not address\"\n        );\n        bytes memory validateFunc =\n            abi.encodeWithSignature(\"isTradingWith(address)\", from);\n        (bool success, bytes memory result) = to.staticcall(validateFunc);\n        require(\n            success,\n            \"a and b do not trade\"\n        );\n        return  abi.decode(result, (bool));\n    }\n}\n",
  "sourcePath": "/home/tyrx/projects/GoO-bl/contracts/GORegistry.sol",
  "compiler": {
    "name": "solc",
    "version": "0.7.0+commit.9e61f92b.Emscripten.clang"
  },
  "schemaVersion": "3.3.3",
  "updatedAt": "2021-03-12T12:06:00.141Z",
  "networkType": "ethereum",
  "devdoc": {
    "kind": "dev",
    "methods": {
      "balanceOf(address,uint256)": {
        "details": "See {IERC1155-balanceOf}. Requirements: - `account` cannot be the zero address."
      },
      "balanceOfBatch(address[],uint256[])": {
        "details": "See {IERC1155-balanceOfBatch}. Requirements: - `accounts` and `ids` must have the same length."
      },
      "isApprovedForAll(address,address)": {
        "details": "See {IERC1155-isApprovedForAll}."
      },
      "owner()": {
        "details": "Returns the address of the current owner."
      },
      "renounceOwnership()": {
        "details": "Leaves the contract without owner. It will not be possible to call `onlyOwner` functions anymore. Can only be called by the current owner. NOTE: Renouncing ownership will leave the contract without an owner, thereby removing any functionality that is only available to the owner."
      },
      "safeBatchTransferFrom(address,address,uint256[],uint256[],bytes)": {
        "details": "See {IERC1155-safeBatchTransferFrom}."
      },
      "safeTransferFrom(address,address,uint256,uint256,bytes)": {
        "details": "See {IERC1155-safeTransferFrom}."
      },
      "setApprovalForAll(address,bool)": {
        "details": "See {IERC1155-setApprovalForAll}."
      },
      "supportsInterface(bytes4)": {
        "details": "See {IERC165-supportsInterface}. Time complexity O(1), guaranteed to always use less than 30 000 gas."
      },
      "transferOwnership(address)": {
        "details": "Transfers ownership of the contract to a new account (`newOwner`). Can only be called by the current owner."
      },
      "uri(uint256)": {
        "details": "See {IERC1155MetadataURI-uri}. This implementation returns the same URI for *all* token types. It relies on the token type ID substituion mechanism https://eips.ethereum.org/EIPS/eip-1155#metadata[defined in the EIP]. Clients calling this function must replace the `\\{id\\}` substring with the actual token type ID."
      }
    },
    "version": 1
  },
  "userdoc": {
    "kind": "user",
    "methods": {},
    "version": 1
  }
}