{
  "contractName": "GORegistry",
  "abi": [
    {
      "inputs": [],
      "stateMutability": "nonpayable",
      "type": "constructor"
    },
    {
      "anonymous": false,
      "inputs": [
        {
          "indexed": true,
          "internalType": "address",
          "name": "account",
          "type": "address"
        },
        {
          "indexed": true,
          "internalType": "address",
          "name": "operator",
          "type": "address"
        },
        {
          "indexed": false,
          "internalType": "bool",
          "name": "approved",
          "type": "bool"
        }
      ],
      "name": "ApprovalForAll",
      "type": "event"
    },
    {
      "anonymous": false,
      "inputs": [
        {
          "indexed": true,
          "internalType": "address",
          "name": "cancelIssuer",
          "type": "address"
        },
        {
          "indexed": true,
          "internalType": "address",
          "name": "cancelClaimer",
          "type": "address"
        },
        {
          "indexed": false,
          "internalType": "uint256[]",
          "name": "tokenIds",
          "type": "uint256[]"
        },
        {
          "indexed": false,
          "internalType": "uint256[]",
          "name": "amounts",
          "type": "uint256[]"
        },
        {
          "indexed": false,
          "internalType": "int256[]",
          "name": "certificateTypes",
          "type": "int256[]"
        },
        {
          "indexed": false,
          "internalType": "bytes[]",
          "name": "cancelData",
          "type": "bytes[]"
        }
      ],
      "name": "BatchGOCanceled",
      "type": "event"
    },
    {
      "anonymous": false,
      "inputs": [
        {
          "indexed": false,
          "internalType": "address",
          "name": "issuer",
          "type": "address"
        }
      ],
      "name": "IssuingBodyAdded",
      "type": "event"
    },
    {
      "anonymous": false,
      "inputs": [
        {
          "indexed": false,
          "internalType": "address",
          "name": "issuer",
          "type": "address"
        }
      ],
      "name": "IssuingBodyRemoved",
      "type": "event"
    },
    {
      "anonymous": false,
      "inputs": [
        {
          "indexed": true,
          "internalType": "address",
          "name": "cancelIssuer",
          "type": "address"
        },
        {
          "indexed": true,
          "internalType": "address",
          "name": "cancelClaimer",
          "type": "address"
        },
        {
          "indexed": false,
          "internalType": "uint256",
          "name": "tokenId",
          "type": "uint256"
        },
        {
          "indexed": false,
          "internalType": "uint256",
          "name": "amount",
          "type": "uint256"
        },
        {
          "indexed": false,
          "internalType": "int256",
          "name": "certificateType",
          "type": "int256"
        },
        {
          "indexed": false,
          "internalType": "bytes",
          "name": "cancelData",
          "type": "bytes"
        }
      ],
      "name": "OneGOCanceled",
      "type": "event"
    },
    {
      "anonymous": false,
      "inputs": [
        {
          "indexed": true,
          "internalType": "address",
          "name": "issuingBody",
          "type": "address"
        },
        {
          "indexed": false,
          "internalType": "uint256",
          "name": "amount",
          "type": "uint256"
        },
        {
          "indexed": false,
          "internalType": "int256",
          "name": "certificateType",
          "type": "int256"
        },
        {
          "indexed": false,
          "internalType": "bytes",
          "name": "data",
          "type": "bytes"
        }
      ],
      "name": "OneGOIssued",
      "type": "event"
    },
    {
      "anonymous": false,
      "inputs": [
        {
          "indexed": true,
          "internalType": "address",
          "name": "previousOwner",
          "type": "address"
        },
        {
          "indexed": true,
          "internalType": "address",
          "name": "newOwner",
          "type": "address"
        }
      ],
      "name": "OwnershipTransferred",
      "type": "event"
    },
    {
      "anonymous": false,
      "inputs": [
        {
          "indexed": true,
          "internalType": "address",
          "name": "operator",
          "type": "address"
        },
        {
          "indexed": true,
          "internalType": "address",
          "name": "from",
          "type": "address"
        },
        {
          "indexed": true,
          "internalType": "address",
          "name": "to",
          "type": "address"
        },
        {
          "indexed": false,
          "internalType": "uint256[]",
          "name": "ids",
          "type": "uint256[]"
        },
        {
          "indexed": false,
          "internalType": "uint256[]",
          "name": "values",
          "type": "uint256[]"
        }
      ],
      "name": "TransferBatch",
      "type": "event"
    },
    {
      "anonymous": false,
      "inputs": [
        {
          "indexed": true,
          "internalType": "address",
          "name": "operator",
          "type": "address"
        },
        {
          "indexed": true,
          "internalType": "address",
          "name": "from",
          "type": "address"
        },
        {
          "indexed": true,
          "internalType": "address",
          "name": "to",
          "type": "address"
        },
        {
          "indexed": false,
          "internalType": "uint256",
          "name": "id",
          "type": "uint256"
        },
        {
          "indexed": false,
          "internalType": "uint256",
          "name": "value",
          "type": "uint256"
        }
      ],
      "name": "TransferSingle",
      "type": "event"
    },
    {
      "anonymous": false,
      "inputs": [
        {
          "indexed": false,
          "internalType": "string",
          "name": "value",
          "type": "string"
        },
        {
          "indexed": true,
          "internalType": "uint256",
          "name": "id",
          "type": "uint256"
        }
      ],
      "name": "URI",
      "type": "event"
    },
    {
      "inputs": [
        {
          "internalType": "address",
          "name": "account",
          "type": "address"
        },
        {
          "internalType": "uint256",
          "name": "id",
          "type": "uint256"
        }
      ],
      "name": "balanceOf",
      "outputs": [
        {
          "internalType": "uint256",
          "name": "",
          "type": "uint256"
        }
      ],
      "stateMutability": "view",
      "type": "function",
      "constant": true
    },
    {
      "inputs": [
        {
          "internalType": "address[]",
          "name": "accounts",
          "type": "address[]"
        },
        {
          "internalType": "uint256[]",
          "name": "ids",
          "type": "uint256[]"
        }
      ],
      "name": "balanceOfBatch",
      "outputs": [
        {
          "internalType": "uint256[]",
          "name": "",
          "type": "uint256[]"
        }
      ],
      "stateMutability": "view",
      "type": "function",
      "constant": true
    },
    {
      "inputs": [
        {
          "internalType": "address",
          "name": "account",
          "type": "address"
        },
        {
          "internalType": "uint256",
          "name": "id",
          "type": "uint256"
        },
        {
          "internalType": "uint256",
          "name": "value",
          "type": "uint256"
        }
      ],
      "name": "burn",
      "outputs": [],
      "stateMutability": "nonpayable",
      "type": "function"
    },
    {
      "inputs": [
        {
          "internalType": "address",
          "name": "account",
          "type": "address"
        },
        {
          "internalType": "uint256[]",
          "name": "ids",
          "type": "uint256[]"
        },
        {
          "internalType": "uint256[]",
          "name": "values",
          "type": "uint256[]"
        }
      ],
      "name": "burnBatch",
      "outputs": [],
      "stateMutability": "nonpayable",
      "type": "function"
    },
    {
      "inputs": [
        {
          "internalType": "uint256",
          "name": "",
          "type": "uint256"
        },
        {
          "internalType": "address",
          "name": "",
          "type": "address"
        }
      ],
      "name": "canceledGOs",
      "outputs": [
        {
          "internalType": "uint256",
          "name": "",
          "type": "uint256"
        }
      ],
      "stateMutability": "view",
      "type": "function",
      "constant": true
    },
    {
      "inputs": [
        {
          "internalType": "uint256",
          "name": "",
          "type": "uint256"
        }
      ],
      "name": "certificateIssuers",
      "outputs": [
        {
          "internalType": "address",
          "name": "",
          "type": "address"
        }
      ],
      "stateMutability": "view",
      "type": "function",
      "constant": true
    },
    {
      "inputs": [
        {
          "internalType": "address",
          "name": "",
          "type": "address"
        }
      ],
      "name": "certifiedIssuers",
      "outputs": [
        {
          "internalType": "bool",
          "name": "",
          "type": "bool"
        }
      ],
      "stateMutability": "view",
      "type": "function",
      "constant": true
    },
    {
      "inputs": [
        {
          "internalType": "address",
          "name": "account",
          "type": "address"
        },
        {
          "internalType": "address",
          "name": "operator",
          "type": "address"
        }
      ],
      "name": "isApprovedForAll",
      "outputs": [
        {
          "internalType": "bool",
          "name": "",
          "type": "bool"
        }
      ],
      "stateMutability": "view",
      "type": "function",
      "constant": true
    },
    {
      "inputs": [],
      "name": "owner",
      "outputs": [
        {
          "internalType": "address",
          "name": "",
          "type": "address"
        }
      ],
      "stateMutability": "view",
      "type": "function",
      "constant": true
    },
    {
      "inputs": [],
      "name": "renounceOwnership",
      "outputs": [],
      "stateMutability": "nonpayable",
      "type": "function"
    },
    {
      "inputs": [
        {
          "internalType": "address",
          "name": "from",
          "type": "address"
        },
        {
          "internalType": "address",
          "name": "to",
          "type": "address"
        },
        {
          "internalType": "uint256[]",
          "name": "ids",
          "type": "uint256[]"
        },
        {
          "internalType": "uint256[]",
          "name": "amounts",
          "type": "uint256[]"
        },
        {
          "internalType": "bytes",
          "name": "data",
          "type": "bytes"
        }
      ],
      "name": "safeBatchTransferFrom",
      "outputs": [],
      "stateMutability": "nonpayable",
      "type": "function"
    },
    {
      "inputs": [
        {
          "internalType": "address",
          "name": "from",
          "type": "address"
        },
        {
          "internalType": "address",
          "name": "to",
          "type": "address"
        },
        {
          "internalType": "uint256",
          "name": "id",
          "type": "uint256"
        },
        {
          "internalType": "uint256",
          "name": "amount",
          "type": "uint256"
        },
        {
          "internalType": "bytes",
          "name": "data",
          "type": "bytes"
        }
      ],
      "name": "safeTransferFrom",
      "outputs": [],
      "stateMutability": "nonpayable",
      "type": "function"
    },
    {
      "inputs": [
        {
          "internalType": "address",
          "name": "operator",
          "type": "address"
        },
        {
          "internalType": "bool",
          "name": "approved",
          "type": "bool"
        }
      ],
      "name": "setApprovalForAll",
      "outputs": [],
      "stateMutability": "nonpayable",
      "type": "function"
    },
    {
      "inputs": [
        {
          "internalType": "bytes4",
          "name": "interfaceId",
          "type": "bytes4"
        }
      ],
      "name": "supportsInterface",
      "outputs": [
        {
          "internalType": "bool",
          "name": "",
          "type": "bool"
        }
      ],
      "stateMutability": "view",
      "type": "function",
      "constant": true
    },
    {
      "inputs": [
        {
          "internalType": "uint256",
          "name": "",
          "type": "uint256"
        }
      ],
      "name": "theGOStorage",
      "outputs": [
        {
          "internalType": "int256",
          "name": "certificateType",
          "type": "int256"
        },
        {
          "internalType": "address",
          "name": "issuingBody",
          "type": "address"
        },
        {
          "internalType": "bytes",
          "name": "data",
          "type": "bytes"
        },
        {
          "internalType": "bytes",
          "name": "validationFunction",
          "type": "bytes"
        }
      ],
      "stateMutability": "view",
      "type": "function",
      "constant": true
    },
    {
      "inputs": [],
      "name": "tokenNonce",
      "outputs": [
        {
          "internalType": "uint256",
          "name": "",
          "type": "uint256"
        }
      ],
      "stateMutability": "view",
      "type": "function",
      "constant": true
    },
    {
      "inputs": [
        {
          "internalType": "address",
          "name": "newOwner",
          "type": "address"
        }
      ],
      "name": "transferOwnership",
      "outputs": [],
      "stateMutability": "nonpayable",
      "type": "function"
    },
    {
      "inputs": [
        {
          "internalType": "uint256",
          "name": "",
          "type": "uint256"
        }
      ],
      "name": "uri",
      "outputs": [
        {
          "internalType": "string",
          "name": "",
          "type": "string"
        }
      ],
      "stateMutability": "view",
      "type": "function",
      "constant": true
    },
    {
      "inputs": [
        {
          "internalType": "address",
          "name": "",
          "type": "address"
        }
      ],
      "name": "userToIssuingBody",
      "outputs": [
        {
          "internalType": "address",
          "name": "",
          "type": "address"
        }
      ],
      "stateMutability": "view",
      "type": "function",
      "constant": true
    },
    {
      "inputs": [
        {
          "internalType": "address",
          "name": "to",
          "type": "address"
        },
        {
          "internalType": "int256",
          "name": "_certificateType",
          "type": "int256"
        },
        {
          "internalType": "uint256",
          "name": "amount",
          "type": "uint256"
        },
        {
          "internalType": "bytes",
          "name": "data",
          "type": "bytes"
        },
        {
          "internalType": "bytes",
          "name": "validationFunc",
          "type": "bytes"
        }
      ],
      "name": "issueGOCertificate",
      "outputs": [
        {
          "internalType": "uint256",
          "name": "_id",
          "type": "uint256"
        }
      ],
      "stateMutability": "nonpayable",
      "type": "function"
    },
    {
      "inputs": [
        {
          "internalType": "address",
          "name": "from",
          "type": "address"
        },
        {
          "internalType": "address",
          "name": "to",
          "type": "address"
        },
        {
          "internalType": "uint256",
          "name": "tokenId",
          "type": "uint256"
        },
        {
          "internalType": "uint256",
          "name": "amount",
          "type": "uint256"
        },
        {
          "internalType": "bytes",
          "name": "data",
          "type": "bytes"
        },
        {
          "internalType": "bytes",
          "name": "cancelData",
          "type": "bytes"
        }
      ],
      "name": "safeTransferAndCancelGO",
      "outputs": [],
      "stateMutability": "nonpayable",
      "type": "function"
    },
    {
      "inputs": [
        {
          "internalType": "address",
          "name": "from",
          "type": "address"
        },
        {
          "internalType": "address",
          "name": "to",
          "type": "address"
        },
        {
          "internalType": "uint256[]",
          "name": "tokenIds",
          "type": "uint256[]"
        },
        {
          "internalType": "uint256[]",
          "name": "tokenAmounts",
          "type": "uint256[]"
        },
        {
          "internalType": "bytes",
          "name": "data",
          "type": "bytes"
        },
        {
          "internalType": "bytes[]",
          "name": "cancelData",
          "type": "bytes[]"
        }
      ],
      "name": "safeBatchTransferAndCancelGO",
      "outputs": [],
      "stateMutability": "nonpayable",
      "type": "function"
    },
    {
      "inputs": [
        {
          "internalType": "address",
          "name": "issuer",
          "type": "address"
        }
      ],
      "name": "addCertifiedIssuer",
      "outputs": [],
      "stateMutability": "nonpayable",
      "type": "function"
    },
    {
      "inputs": [
        {
          "internalType": "address",
          "name": "issuer",
          "type": "address"
        }
      ],
      "name": "removeCertifiedIssuer",
      "outputs": [],
      "stateMutability": "nonpayable",
      "type": "function"
    },
    {
      "inputs": [
        {
          "internalType": "address",
          "name": "registrant",
          "type": "address"
        }
      ],
      "name": "registerForIssuingBody",
      "outputs": [],
      "stateMutability": "nonpayable",
      "type": "function"
    }
  ],
  "bytecode": "0x60806040523480156200001157600080fd5b506040518060400160405280601881526020017f474f4365727469666963617465446f6d61696e2f7b69647d0000000000000000815250620000606301ffc9a760e01b6200015960201b60201c565b62000071816200023160201b60201c565b6200008963d9b67a2660e01b6200015960201b60201c565b620000a1630e89341c60e01b6200015960201b60201c565b506000620000b46200024d60201b60201c565b905080600460006101000a81548173ffffffffffffffffffffffffffffffffffffffff021916908373ffffffffffffffffffffffffffffffffffffffff1602179055508073ffffffffffffffffffffffffffffffffffffffff16600073ffffffffffffffffffffffffffffffffffffffff167f8be0079c531659141344cd1fd0a4f28419497f9722a3daafe3b4186f6b6457e060405160405180910390a35062000370565b63ffffffff60e01b817bffffffffffffffffffffffffffffffffffffffffffffffffffffffff19161415620001c5576040517f08c379a0000000000000000000000000000000000000000000000000000000008152600401620001bc906200033d565b60405180910390fd5b6001600080837bffffffffffffffffffffffffffffffffffffffffffffffffffffffff19167bffffffffffffffffffffffffffffffffffffffffffffffffffffffff1916815260200190815260200160002060006101000a81548160ff02191690831515021790555050565b80600390805190602001906200024992919062000255565b5050565b600033905090565b828054600181600116156101000203166002900490600052602060002090601f016020900481019282601f106200029857805160ff1916838001178555620002c9565b82800160010185558215620002c9579182015b82811115620002c8578251825591602001919060010190620002ab565b5b509050620002d89190620002dc565b5090565b5b80821115620002f7576000816000905550600101620002dd565b5090565b60006200030a601c836200035f565b91507f4552433136353a20696e76616c696420696e74657266616365206964000000006000830152602082019050919050565b600060208201905081810360008301526200035881620002fb565b9050919050565b600082825260208201905092915050565b615f2480620003806000396000f3fe608060405234801561001057600080fd5b50600436106101725760003560e01c8063715018a6116100de578063a22cb46511610097578063e985e9c511610071578063e985e9c514610480578063f242432a146104b0578063f2fde38b146104cc578063f5298aca146104e857610172565b8063a22cb46514610404578063bf01dbdb14610420578063dee2c0b01461045057610172565b8063715018a6146103565780637210f2871461036057806388125a69146103905780638da5cb5b146103ac57806390f71b44146103ca578063966123a5146103e857610172565b80632eb2c2d6116101305780632eb2c2d6146102835780634776a0d01461029f5780634839f888146102bb5780634e1273f4146102d75780636a45da2c146103075780636b20c4541461033a57610172565b8062fdd58e1461017757806301ffc9a7146101a75780630e89341c146101d75780631ad8b13b146102075780631d1c367f146102375780632d4568e714610267575b600080fd5b610191600480360381019061018c9190614627565b610504565b60405161019e91906159d9565b60405180910390f35b6101c160048036038101906101bc9190614747565b6105ce565b6040516101ce91906155e9565b60405180910390f35b6101f160048036038101906101ec9190614799565b610635565b6040516101fe9190615657565b60405180910390f35b610221600480360381019061021c9190614153565b6106d9565b60405161022e91906155e9565b60405180910390f35b610251600480360381019061024c9190614799565b6106f9565b60405161025e9190615450565b60405180910390f35b610281600480360381019061027c9190614153565b61072c565b005b61029d600480360381019061029891906142ab565b6108c5565b005b6102b960048036038101906102b4919061436a565b610c86565b005b6102d560048036038101906102d09190614153565b6110b9565b005b6102f160048036038101906102ec91906146b2565b611252565b6040516102fe919061552d565b60405180910390f35b610321600480360381019061031c9190614799565b611418565b6040516103319493929190615604565b60405180910390f35b610354600480360381019061034f91906144bc565b611598565b005b61035e611635565b005b61037a60048036038101906103759190614577565b61178d565b60405161038791906159d9565b60405180910390f35b6103aa60048036038101906103a59190614153565b611ae3565b005b6103b4611bf9565b6040516103c19190615450565b60405180910390f35b6103d2611c23565b6040516103df91906159d9565b60405180910390f35b61040260048036038101906103fd91906141b8565b611c29565b005b61041e6004803603810190610419919061453b565b612160565b005b61043a600480360381019061043591906147c2565b6122e1565b60405161044791906159d9565b60405180910390f35b61046a60048036038101906104659190614153565b612306565b6040516104779190615450565b60405180910390f35b61049a6004803603810190610495919061417c565b612339565b6040516104a791906155e9565b60405180910390f35b6104ca60048036038101906104c5919061442d565b6123cd565b005b6104e660048036038101906104e19190614153565b612710565b005b61050260048036038101906104fd9190614663565b6128d7565b005b60008073ffffffffffffffffffffffffffffffffffffffff168373ffffffffffffffffffffffffffffffffffffffff161415610575576040517f08c379a000000000000000000000000000000000000000000000000000000000815260040161056c906156d9565b60405180910390fd5b6001600083815260200190815260200160002060008473ffffffffffffffffffffffffffffffffffffffff1673ffffffffffffffffffffffffffffffffffffffff16815260200190815260200160002054905092915050565b6000806000837bffffffffffffffffffffffffffffffffffffffffffffffffffffffff19167bffffffffffffffffffffffffffffffffffffffffffffffffffffffff1916815260200190815260200160002060009054906101000a900460ff169050919050565b606060038054600181600116156101000203166002900480601f0160208091040260200160405190810160405280929190818152602001828054600181600116156101000203166002900480156106cd5780601f106106a2576101008083540402835291602001916106cd565b820191906000526020600020905b8154815290600101906020018083116106b057829003601f168201915b50505050509050919050565b60096020528060005260406000206000915054906101000a900460ff1681565b60066020528060005260406000206000915054906101000a900473ffffffffffffffffffffffffffffffffffffffff1681565b610734612974565b73ffffffffffffffffffffffffffffffffffffffff16600460009054906101000a900473ffffffffffffffffffffffffffffffffffffffff1673ffffffffffffffffffffffffffffffffffffffff16146107c3576040517f08c379a00000000000000000000000000000000000000000000000000000000081526004016107ba90615839565b60405180910390fd5b600073ffffffffffffffffffffffffffffffffffffffff168173ffffffffffffffffffffffffffffffffffffffff161415610833576040517f08c379a000000000000000000000000000000000000000000000000000000000815260040161082a906159b9565b60405180910390fd5b6001600960008373ffffffffffffffffffffffffffffffffffffffff1673ffffffffffffffffffffffffffffffffffffffff16815260200190815260200160002060006101000a81548160ff0219169083151502179055507fa1c1bb3ed462b642c5d30550f566d9f267e84cbcc3b38f7718069df14a82d778816040516108ba9190615450565b60405180910390a150565b8151835114610909576040517f08c379a000000000000000000000000000000000000000000000000000000000815260040161090090615959565b60405180910390fd5b600073ffffffffffffffffffffffffffffffffffffffff168473ffffffffffffffffffffffffffffffffffffffff161415610979576040517f08c379a0000000000000000000000000000000000000000000000000000000008152600401610970906157d9565b60405180910390fd5b610981612974565b73ffffffffffffffffffffffffffffffffffffffff168573ffffffffffffffffffffffffffffffffffffffff1614806109c757506109c6856109c1612974565b612339565b5b610a06576040517f08c379a00000000000000000000000000000000000000000000000000000000081526004016109fd906157f9565b60405180910390fd5b6000610a10612974565b9050610a2081878787878761297c565b60005b8451811015610bf1576000858281518110610a3a57fe5b602002602001015190506000858381518110610a5257fe5b60200260200101519050610ad9816040518060600160405280602a8152602001615ec5602a91396001600086815260200190815260200160002060008d73ffffffffffffffffffffffffffffffffffffffff1673ffffffffffffffffffffffffffffffffffffffff16815260200190815260200160002054612ec09092919063ffffffff16565b6001600084815260200190815260200160002060008b73ffffffffffffffffffffffffffffffffffffffff1673ffffffffffffffffffffffffffffffffffffffff16815260200190815260200160002081905550610b90816001600085815260200190815260200160002060008b73ffffffffffffffffffffffffffffffffffffffff1673ffffffffffffffffffffffffffffffffffffffff16815260200190815260200160002054612f1b90919063ffffffff16565b6001600084815260200190815260200160002060008a73ffffffffffffffffffffffffffffffffffffffff1673ffffffffffffffffffffffffffffffffffffffff168152602001908152602001600020819055505050806001019050610a23565b508473ffffffffffffffffffffffffffffffffffffffff168673ffffffffffffffffffffffffffffffffffffffff168273ffffffffffffffffffffffffffffffffffffffff167f4a39dc06d4c0dbc64b70af90fd698a233a518aa5d07e595d983b8c0526c8f7fb8787604051610c6892919061554f565b60405180910390a4610c7e818787878787612f70565b505050505050565b610c8e613df7565b60076000888152602001908152602001600020604051806080016040529081600082015481526020016001820160009054906101000a900473ffffffffffffffffffffffffffffffffffffffff1673ffffffffffffffffffffffffffffffffffffffff1673ffffffffffffffffffffffffffffffffffffffff168152602001600282018054600181600116156101000203166002900480601f016020809104026020016040519081016040528092919081815260200182805460018160011615610100020316600290048015610da55780601f10610d7a57610100808354040283529160200191610da5565b820191906000526020600020905b815481529060010190602001808311610d8857829003601f168201915b50505050508152602001600382018054600181600116156101000203166002900480601f016020809104026020016040519081016040528092919081815260200182805460018160011615610100020316600290048015610e475780601f10610e1c57610100808354040283529160200191610e47565b820191906000526020600020905b815481529060010190602001808311610e2a57829003601f168201915b5050505050815250509050610e6481602001518260600151613140565b8773ffffffffffffffffffffffffffffffffffffffff168973ffffffffffffffffffffffffffffffffffffffff1614610eed57610ee88989898989898080601f016020809104026020016040519081016040528093929190818152602001838380828437600081840152601f19601f820116905080830192505050505050506123cd565b610f7b565b610ef5612974565b73ffffffffffffffffffffffffffffffffffffffff168973ffffffffffffffffffffffffffffffffffffffff161480610f3b5750610f3a89610f35612974565b612339565b5b610f7a576040517f08c379a0000000000000000000000000000000000000000000000000000000008152600401610f7190615759565b60405180910390fd5b5b610f8688888861321f565b610fe986600860008a815260200190815260200160002060008b73ffffffffffffffffffffffffffffffffffffffff1673ffffffffffffffffffffffffffffffffffffffff16815260200190815260200160002054612f1b90919063ffffffff16565b6008600089815260200190815260200160002060008a73ffffffffffffffffffffffffffffffffffffffff1673ffffffffffffffffffffffffffffffffffffffff168152602001908152602001600020819055508773ffffffffffffffffffffffffffffffffffffffff168973ffffffffffffffffffffffffffffffffffffffff167f4f2004d0e230447d378ebe736da53bfaf73a8ccd5921fb49a215d027592602f48989856000015188886040516110a6959493929190615a5d565b60405180910390a3505050505050505050565b6110c1612974565b73ffffffffffffffffffffffffffffffffffffffff16600460009054906101000a900473ffffffffffffffffffffffffffffffffffffffff1673ffffffffffffffffffffffffffffffffffffffff1614611150576040517f08c379a000000000000000000000000000000000000000000000000000000000815260040161114790615839565b60405180910390fd5b600073ffffffffffffffffffffffffffffffffffffffff168173ffffffffffffffffffffffffffffffffffffffff1614156111c0576040517f08c379a00000000000000000000000000000000000000000000000000000000081526004016111b7906158b9565b60405180910390fd5b6000600960008373ffffffffffffffffffffffffffffffffffffffff1673ffffffffffffffffffffffffffffffffffffffff16815260200190815260200160002060006101000a81548160ff0219169083151502179055507fb986caa98fc7e57839781bde0729a55c2bf9018e4862dcc868af399d27ece6ee816040516112479190615450565b60405180910390a150565b60608151835114611298576040517f08c379a000000000000000000000000000000000000000000000000000000000815260040161128f90615939565b60405180910390fd5b6060835167ffffffffffffffff811180156112b257600080fd5b506040519080825280602002602001820160405280156112e15781602001602082028036833780820191505090505b50905060005b845181101561140d57600073ffffffffffffffffffffffffffffffffffffffff1685828151811061131457fe5b602002602001015173ffffffffffffffffffffffffffffffffffffffff161415611373576040517f08c379a000000000000000000000000000000000000000000000000000000000815260040161136a906156f9565b60405180910390fd5b6001600085838151811061138357fe5b6020026020010151815260200190815260200160002060008683815181106113a757fe5b602002602001015173ffffffffffffffffffffffffffffffffffffffff1673ffffffffffffffffffffffffffffffffffffffff168152602001908152602001600020548282815181106113f657fe5b6020026020010181815250508060010190506112e7565b508091505092915050565b60076020528060005260406000206000915090508060000154908060010160009054906101000a900473ffffffffffffffffffffffffffffffffffffffff1690806002018054600181600116156101000203166002900480601f0160208091040260200160405190810160405280929190818152602001828054600181600116156101000203166002900480156114f05780601f106114c5576101008083540402835291602001916114f0565b820191906000526020600020905b8154815290600101906020018083116114d357829003601f168201915b505050505090806003018054600181600116156101000203166002900480601f01602080910402602001604051908101604052809291908181526020018280546001816001161561010002031660029004801561158e5780601f106115635761010080835404028352916020019161158e565b820191906000526020600020905b81548152906001019060200180831161157157829003601f168201915b5050505050905084565b6115a0612974565b73ffffffffffffffffffffffffffffffffffffffff168373ffffffffffffffffffffffffffffffffffffffff1614806115e657506115e5836115e0612974565b612339565b5b611625576040517f08c379a000000000000000000000000000000000000000000000000000000000815260040161161c90615759565b60405180910390fd5b61163083838361341f565b505050565b61163d612974565b73ffffffffffffffffffffffffffffffffffffffff16600460009054906101000a900473ffffffffffffffffffffffffffffffffffffffff1673ffffffffffffffffffffffffffffffffffffffff16146116cc576040517f08c379a00000000000000000000000000000000000000000000000000000000081526004016116c390615839565b60405180910390fd5b600073ffffffffffffffffffffffffffffffffffffffff16600460009054906101000a900473ffffffffffffffffffffffffffffffffffffffff1673ffffffffffffffffffffffffffffffffffffffff167f8be0079c531659141344cd1fd0a4f28419497f9722a3daafe3b4186f6b6457e060405160405180910390a36000600460006101000a81548173ffffffffffffffffffffffffffffffffffffffff021916908373ffffffffffffffffffffffffffffffffffffffff160217905550565b60003360011515600960008373ffffffffffffffffffffffffffffffffffffffff1673ffffffffffffffffffffffffffffffffffffffff16815260200190815260200160002060009054906101000a900460ff16151514611823576040517f08c379a000000000000000000000000000000000000000000000000000000000815260040161181a906158f9565b60405180910390fd5b6118713385858080601f016020809104026020016040519081016040528093929190818152602001838380828437600081840152601f19601f82011690508083019250505050505050613140565b60006118c2338989898080601f016020809104026020016040519081016040528093929190818152602001838380828437600081840152601f19601f820116905080830192505050505050506136a6565b9050600088111561191f5761191e338b838b8b8b8080601f016020809104026020016040519081016040528093929190818152602001838380828437600081840152601f19601f820116905080830192505050505050506123cd565b5b60405180608001604052808a81526020013373ffffffffffffffffffffffffffffffffffffffff16815260200188888080601f016020809104026020016040519081016040528093929190818152602001838380828437600081840152601f19601f82011690508083019250505050505050815260200186868080601f016020809104026020016040519081016040528093929190818152602001838380828437600081840152601f19601f82011690508083019250505050505050815250600760008381526020019081526020016000206000820151816000015560208201518160010160006101000a81548173ffffffffffffffffffffffffffffffffffffffff021916908373ffffffffffffffffffffffffffffffffffffffff1602179055506040820151816002019080519060200190611a5e929190613e35565b506060820151816003019080519060200190611a7b929190613e35565b509050503373ffffffffffffffffffffffffffffffffffffffff167f73701a6649212452d22690b53e9bdf74df62350ef55096fd3da94f5f9d53feb4898b8a8a604051611acb94939291906159f4565b60405180910390a28092505050979650505050505050565b3360011515600960008373ffffffffffffffffffffffffffffffffffffffff1673ffffffffffffffffffffffffffffffffffffffff16815260200190815260200160002060009054906101000a900460ff16151514611b77576040517f08c379a0000000000000000000000000000000000000000000000000000000008152600401611b6e906158f9565b60405180910390fd5b33600a60008473ffffffffffffffffffffffffffffffffffffffff1673ffffffffffffffffffffffffffffffffffffffff16815260200190815260200160002060006101000a81548173ffffffffffffffffffffffffffffffffffffffff021916908373ffffffffffffffffffffffffffffffffffffffff1602179055505050565b6000600460009054906101000a900473ffffffffffffffffffffffffffffffffffffffff16905090565b60055481565b600086519050808383905014611c74576040517f08c379a0000000000000000000000000000000000000000000000000000000008152600401611c6b906156b9565b60405180910390fd5b8773ffffffffffffffffffffffffffffffffffffffff168973ffffffffffffffffffffffffffffffffffffffff1614611cfd57611cf88989898989898080601f016020809104026020016040519081016040528093929190818152602001838380828437600081840152601f19601f820116905080830192505050505050506108c5565b611d8b565b611d05612974565b73ffffffffffffffffffffffffffffffffffffffff168973ffffffffffffffffffffffffffffffffffffffff161480611d4b5750611d4a89611d45612974565b612339565b5b611d8a576040517f08c379a0000000000000000000000000000000000000000000000000000000008152600401611d8190615759565b60405180910390fd5b5b60608167ffffffffffffffff81118015611da457600080fd5b50604051908082528060200260200182016040528015611dd35781602001602082028036833780820191505090505b50905060005b828110156120db57611e6a888281518110611df057fe5b6020026020010151600860008c8581518110611e0857fe5b6020026020010151815260200190815260200160002060008d73ffffffffffffffffffffffffffffffffffffffff1673ffffffffffffffffffffffffffffffffffffffff16815260200190815260200160002054612f1b90919063ffffffff16565b600860008b8481518110611e7a57fe5b6020026020010151815260200190815260200160002060008c73ffffffffffffffffffffffffffffffffffffffff1673ffffffffffffffffffffffffffffffffffffffff16815260200190815260200160002081905550611ed9613df7565b600760008b8481518110611ee957fe5b60200260200101518152602001908152602001600020604051806080016040529081600082015481526020016001820160009054906101000a900473ffffffffffffffffffffffffffffffffffffffff1673ffffffffffffffffffffffffffffffffffffffff1673ffffffffffffffffffffffffffffffffffffffff168152602001600282018054600181600116156101000203166002900480601f0160208091040260200160405190810160405280929190818152602001828054600181600116156101000203166002900480156120035780601f10611fd857610100808354040283529160200191612003565b820191906000526020600020905b815481529060010190602001808311611fe657829003601f168201915b50505050508152602001600382018054600181600116156101000203166002900480601f0160208091040260200160405190810160405280929190818152602001828054600181600116156101000203166002900480156120a55780601f1061207a576101008083540402835291602001916120a5565b820191906000526020600020905b81548152906001019060200180831161208857829003601f168201915b505050505081525050905080600001518383815181106120c157fe5b602002602001018181525050508080600101915050611dd9565b506120e789898961341f565b8873ffffffffffffffffffffffffffffffffffffffff168a73ffffffffffffffffffffffffffffffffffffffff167f953af56f12086fd901d7e8a392cfdc0c08e38bed8535ae07c9140b4055b148c88a8a85898960405161214c959493929190615586565b60405180910390a350505050505050505050565b8173ffffffffffffffffffffffffffffffffffffffff1661217f612974565b73ffffffffffffffffffffffffffffffffffffffff1614156121d6576040517f08c379a00000000000000000000000000000000000000000000000000000000081526004016121cd90615919565b60405180910390fd5b80600260006121e3612974565b73ffffffffffffffffffffffffffffffffffffffff1673ffffffffffffffffffffffffffffffffffffffff16815260200190815260200160002060008473ffffffffffffffffffffffffffffffffffffffff1673ffffffffffffffffffffffffffffffffffffffff16815260200190815260200160002060006101000a81548160ff0219169083151502179055508173ffffffffffffffffffffffffffffffffffffffff16612290612974565b73ffffffffffffffffffffffffffffffffffffffff167f17307eab39ab6107e8899845ad3d59bd9653f200f220920489ca2b5937696c31836040516122d591906155e9565b60405180910390a35050565b6008602052816000526040600020602052806000526040600020600091509150505481565b600a6020528060005260406000206000915054906101000a900473ffffffffffffffffffffffffffffffffffffffff1681565b6000600260008473ffffffffffffffffffffffffffffffffffffffff1673ffffffffffffffffffffffffffffffffffffffff16815260200190815260200160002060008373ffffffffffffffffffffffffffffffffffffffff1673ffffffffffffffffffffffffffffffffffffffff16815260200190815260200160002060009054906101000a900460ff16905092915050565b600073ffffffffffffffffffffffffffffffffffffffff168473ffffffffffffffffffffffffffffffffffffffff16141561243d576040517f08c379a0000000000000000000000000000000000000000000000000000000008152600401612434906157d9565b60405180910390fd5b612445612974565b73ffffffffffffffffffffffffffffffffffffffff168573ffffffffffffffffffffffffffffffffffffffff16148061248b575061248a85612485612974565b612339565b5b6124ca576040517f08c379a00000000000000000000000000000000000000000000000000000000081526004016124c190615759565b60405180910390fd5b60006124d4612974565b90506124f48187876124e588613723565b6124ee88613723565b8761297c565b612571836040518060600160405280602a8152602001615ec5602a91396001600088815260200190815260200160002060008a73ffffffffffffffffffffffffffffffffffffffff1673ffffffffffffffffffffffffffffffffffffffff16815260200190815260200160002054612ec09092919063ffffffff16565b6001600086815260200190815260200160002060008873ffffffffffffffffffffffffffffffffffffffff1673ffffffffffffffffffffffffffffffffffffffff16815260200190815260200160002081905550612628836001600087815260200190815260200160002060008873ffffffffffffffffffffffffffffffffffffffff1673ffffffffffffffffffffffffffffffffffffffff16815260200190815260200160002054612f1b90919063ffffffff16565b6001600086815260200190815260200160002060008773ffffffffffffffffffffffffffffffffffffffff1673ffffffffffffffffffffffffffffffffffffffff168152602001908152602001600020819055508473ffffffffffffffffffffffffffffffffffffffff168673ffffffffffffffffffffffffffffffffffffffff168273ffffffffffffffffffffffffffffffffffffffff167fc3d58168c5ae7397731d063d5bbf3d657854427343f4c083240f7aacaa2d0f6287876040516126f2929190615a34565b60405180910390a4612708818787878787613793565b505050505050565b612718612974565b73ffffffffffffffffffffffffffffffffffffffff16600460009054906101000a900473ffffffffffffffffffffffffffffffffffffffff1673ffffffffffffffffffffffffffffffffffffffff16146127a7576040517f08c379a000000000000000000000000000000000000000000000000000000000815260040161279e90615839565b60405180910390fd5b600073ffffffffffffffffffffffffffffffffffffffff168173ffffffffffffffffffffffffffffffffffffffff161415612817576040517f08c379a000000000000000000000000000000000000000000000000000000000815260040161280e90615719565b60405180910390fd5b8073ffffffffffffffffffffffffffffffffffffffff16600460009054906101000a900473ffffffffffffffffffffffffffffffffffffffff1673ffffffffffffffffffffffffffffffffffffffff167f8be0079c531659141344cd1fd0a4f28419497f9722a3daafe3b4186f6b6457e060405160405180910390a380600460006101000a81548173ffffffffffffffffffffffffffffffffffffffff021916908373ffffffffffffffffffffffffffffffffffffffff16021790555050565b6128df612974565b73ffffffffffffffffffffffffffffffffffffffff168373ffffffffffffffffffffffffffffffffffffffff16148061292557506129248361291f612974565b612339565b5b612964576040517f08c379a000000000000000000000000000000000000000000000000000000000815260040161295b90615759565b60405180910390fd5b61296f83838361321f565b505050565b600033905090565b61298a868686868686613963565b6129938561396b565b1580156129cd5750600073ffffffffffffffffffffffffffffffffffffffff168573ffffffffffffffffffffffffffffffffffffffff1614155b8015612a065750600073ffffffffffffffffffffffffffffffffffffffff168473ffffffffffffffffffffffffffffffffffffffff1614155b15612c085760005b8351811015612c025760006007600086600081518110612a2a57fe5b6020026020010151815260200190815260200160002060010160009054906101000a900473ffffffffffffffffffffffffffffffffffffffff1690506000600a60008873ffffffffffffffffffffffffffffffffffffffff1673ffffffffffffffffffffffffffffffffffffffff16815260200190815260200160002060009054906101000a900473ffffffffffffffffffffffffffffffffffffffff169050600073ffffffffffffffffffffffffffffffffffffffff168273ffffffffffffffffffffffffffffffffffffffff161415612b3a576040517f08c379a0000000000000000000000000000000000000000000000000000000008152600401612b3190615779565b60405180910390fd5b600073ffffffffffffffffffffffffffffffffffffffff168173ffffffffffffffffffffffffffffffffffffffff161415612baa576040517f08c379a0000000000000000000000000000000000000000000000000000000008152600401612ba1906157b9565b60405180910390fd5b612bb482826139c1565b612bf3576040517f08c379a0000000000000000000000000000000000000000000000000000000008152600401612bea90615879565b60405180910390fd5b50508080600101915050612a0e565b50612eb8565b612c118561396b565b158015612c4b5750600073ffffffffffffffffffffffffffffffffffffffff168573ffffffffffffffffffffffffffffffffffffffff1614155b8015612c835750600073ffffffffffffffffffffffffffffffffffffffff168473ffffffffffffffffffffffffffffffffffffffff16145b15612eb75760005b8351811015612eb55760006007600086600081518110612ca757fe5b6020026020010151815260200190815260200160002060010160009054906101000a900473ffffffffffffffffffffffffffffffffffffffff1690506000600a60008973ffffffffffffffffffffffffffffffffffffffff1673ffffffffffffffffffffffffffffffffffffffff16815260200190815260200160002060009054906101000a900473ffffffffffffffffffffffffffffffffffffffff169050600073ffffffffffffffffffffffffffffffffffffffff168273ffffffffffffffffffffffffffffffffffffffff161415612db7576040517f08c379a0000000000000000000000000000000000000000000000000000000008152600401612dae906158d9565b60405180910390fd5b600073ffffffffffffffffffffffffffffffffffffffff168173ffffffffffffffffffffffffffffffffffffffff161415612e27576040517f08c379a0000000000000000000000000000000000000000000000000000000008152600401612e1e906158d9565b60405180910390fd5b8073ffffffffffffffffffffffffffffffffffffffff168273ffffffffffffffffffffffffffffffffffffffff161480612e675750612e6682826139c1565b5b612ea6576040517f08c379a0000000000000000000000000000000000000000000000000000000008152600401612e9d90615999565b60405180910390fd5b50508080600101915050612c8b565b505b5b505050505050565b6000838311158290612f08576040517f08c379a0000000000000000000000000000000000000000000000000000000008152600401612eff9190615657565b60405180910390fd5b5060008385039050809150509392505050565b600080828401905083811015612f66576040517f08c379a0000000000000000000000000000000000000000000000000000000008152600401612f5d90615739565b60405180910390fd5b8091505092915050565b612f8f8473ffffffffffffffffffffffffffffffffffffffff16613bb2565b15613138578373ffffffffffffffffffffffffffffffffffffffff1663bc197c8187878686866040518663ffffffff1660e01b8152600401612fd595949392919061546b565b602060405180830381600087803b158015612fef57600080fd5b505af192505050801561302057506040513d601f19601f8201168201806040525081019061301d9190614770565b60015b6130af5761302c615d77565b806130375750613074565b806040517f08c379a000000000000000000000000000000000000000000000000000000000815260040161306b9190615657565b60405180910390fd5b6040517f08c379a00000000000000000000000000000000000000000000000000000000081526004016130a690615679565b60405180910390fd5b63bc197c8160e01b7bffffffffffffffffffffffffffffffffffffffffffffffffffffffff1916817bffffffffffffffffffffffffffffffffffffffffffffffffffffffff191614613136576040517f08c379a000000000000000000000000000000000000000000000000000000000815260040161312d90615699565b60405180910390fd5b505b505050505050565b61314982613bfd565b1561321b57600060608373ffffffffffffffffffffffffffffffffffffffff16836040516131779190615439565b600060405180830381855afa9150503d80600081146131b2576040519150601f19603f3d011682016040523d82523d6000602084013e6131b7565b606091505b50915091508180156131d95750808060200190518101906131d8919061471e565b5b613218576040517f08c379a000000000000000000000000000000000000000000000000000000000815260040161320f90615859565b60405180910390fd5b50505b5050565b600073ffffffffffffffffffffffffffffffffffffffff168373ffffffffffffffffffffffffffffffffffffffff16141561328f576040517f08c379a000000000000000000000000000000000000000000000000000000000815260040161328690615819565b60405180910390fd5b6000613299612974565b90506132c9818560006132ab87613723565b6132b487613723565b6040518060200160405280600081525061297c565b61334682604051806060016040528060248152602001615ea1602491396001600087815260200190815260200160002060008873ffffffffffffffffffffffffffffffffffffffff1673ffffffffffffffffffffffffffffffffffffffff16815260200190815260200160002054612ec09092919063ffffffff16565b6001600085815260200190815260200160002060008673ffffffffffffffffffffffffffffffffffffffff1673ffffffffffffffffffffffffffffffffffffffff16815260200190815260200160002081905550600073ffffffffffffffffffffffffffffffffffffffff168473ffffffffffffffffffffffffffffffffffffffff168273ffffffffffffffffffffffffffffffffffffffff167fc3d58168c5ae7397731d063d5bbf3d657854427343f4c083240f7aacaa2d0f628686604051613411929190615a34565b60405180910390a450505050565b600073ffffffffffffffffffffffffffffffffffffffff168373ffffffffffffffffffffffffffffffffffffffff16141561348f576040517f08c379a000000000000000000000000000000000000000000000000000000000815260040161348690615819565b60405180910390fd5b80518251146134d3576040517f08c379a00000000000000000000000000000000000000000000000000000000081526004016134ca90615959565b60405180910390fd5b60006134dd612974565b90506134fd8185600086866040518060200160405280600081525061297c565b60005b8351811015613620576135ac83828151811061351857fe5b6020026020010151604051806060016040528060248152602001615ea1602491396001600088868151811061354957fe5b6020026020010151815260200190815260200160002060008973ffffffffffffffffffffffffffffffffffffffff1673ffffffffffffffffffffffffffffffffffffffff16815260200190815260200160002054612ec09092919063ffffffff16565b600160008684815181106135bc57fe5b6020026020010151815260200190815260200160002060008773ffffffffffffffffffffffffffffffffffffffff1673ffffffffffffffffffffffffffffffffffffffff168152602001908152602001600020819055508080600101915050613500565b50600073ffffffffffffffffffffffffffffffffffffffff168473ffffffffffffffffffffffffffffffffffffffff168273ffffffffffffffffffffffffffffffffffffffff167f4a39dc06d4c0dbc64b70af90fd698a233a518aa5d07e595d983b8c0526c8f7fb868660405161369892919061554f565b60405180910390a450505050565b6000806005600081546001019190508190559050846006600083815260200190815260200160002060006101000a81548173ffffffffffffffffffffffffffffffffffffffff021916908373ffffffffffffffffffffffffffffffffffffffff16021790555061371885828686613c10565b809150509392505050565b606080600167ffffffffffffffff8111801561373e57600080fd5b5060405190808252806020026020018201604052801561376d5781602001602082028036833780820191505090505b509050828160008151811061377e57fe5b60200260200101818152505080915050919050565b6137b28473ffffffffffffffffffffffffffffffffffffffff16613bb2565b1561395b578373ffffffffffffffffffffffffffffffffffffffff1663f23a6e6187878686866040518663ffffffff1660e01b81526004016137f89594939291906154d3565b602060405180830381600087803b15801561381257600080fd5b505af192505050801561384357506040513d601f19601f820116820180604052508101906138409190614770565b60015b6138d25761384f615d77565b8061385a5750613897565b806040517f08c379a000000000000000000000000000000000000000000000000000000000815260040161388e9190615657565b60405180910390fd5b6040517f08c379a00000000000000000000000000000000000000000000000000000000081526004016138c990615679565b60405180910390fd5b63f23a6e6160e01b7bffffffffffffffffffffffffffffffffffffffffffffffffffffffff1916817bffffffffffffffffffffffffffffffffffffffffffffffffffffffff191614613959576040517f08c379a000000000000000000000000000000000000000000000000000000000815260040161395090615699565b60405180910390fd5b505b505050505050565b505050505050565b6000600960008373ffffffffffffffffffffffffffffffffffffffff1673ffffffffffffffffffffffffffffffffffffffff16815260200190815260200160002060009054906101000a900460ff169050919050565b60006139cc83613bfd565b613a0b576040517f08c379a0000000000000000000000000000000000000000000000000000000008152600401613a0290615899565b60405180910390fd5b613a1482613bfd565b613a53576040517f08c379a0000000000000000000000000000000000000000000000000000000008152600401613a4a90615899565b60405180910390fd5b606083604051602401613a669190615450565b6040516020818303038152906040527f6bc26187000000000000000000000000000000000000000000000000000000007bffffffffffffffffffffffffffffffffffffffffffffffffffffffff19166020820180517bffffffffffffffffffffffffffffffffffffffffffffffffffffffff83818316178352505050509050600060608473ffffffffffffffffffffffffffffffffffffffff1683604051613b0e9190615439565b600060405180830381855afa9150503d8060008114613b49576040519150601f19603f3d011682016040523d82523d6000602084013e613b4e565b606091505b509150915081613b93576040517f08c379a0000000000000000000000000000000000000000000000000000000008152600401613b8a90615799565b60405180910390fd5b80806020019051810190613ba7919061471e565b935050505092915050565b60008060007fc5d2460186f7233c927e7db2dcc703c0e500b653ca82273b7bfad8045d85a47060001b9050833f9150808214158015613bf457506000801b8214155b92505050919050565b600080823b905060008111915050919050565b600073ffffffffffffffffffffffffffffffffffffffff168473ffffffffffffffffffffffffffffffffffffffff161415613c80576040517f08c379a0000000000000000000000000000000000000000000000000000000008152600401613c7790615979565b60405180910390fd5b6000613c8a612974565b9050613cab81600087613c9c88613723565b613ca588613723565b8761297c565b613d0e836001600087815260200190815260200160002060008873ffffffffffffffffffffffffffffffffffffffff1673ffffffffffffffffffffffffffffffffffffffff16815260200190815260200160002054612f1b90919063ffffffff16565b6001600086815260200190815260200160002060008773ffffffffffffffffffffffffffffffffffffffff1673ffffffffffffffffffffffffffffffffffffffff168152602001908152602001600020819055508473ffffffffffffffffffffffffffffffffffffffff16600073ffffffffffffffffffffffffffffffffffffffff168273ffffffffffffffffffffffffffffffffffffffff167fc3d58168c5ae7397731d063d5bbf3d657854427343f4c083240f7aacaa2d0f628787604051613dd9929190615a34565b60405180910390a4613df081600087878787613793565b5050505050565b604051806080016040528060008152602001600073ffffffffffffffffffffffffffffffffffffffff16815260200160608152602001606081525090565b828054600181600116156101000203166002900490600052602060002090601f016020900481019282601f10613e7657805160ff1916838001178555613ea4565b82800160010185558215613ea4579182015b82811115613ea3578251825591602001919060010190613e88565b5b509050613eb19190613eb5565b5090565b5b80821115613ece576000816000905550600101613eb6565b5090565b600081359050613ee181615e2d565b92915050565b600082601f830112613ef857600080fd5b8135613f0b613f0682615ad8565b615aab565b91508181835260208401935060208101905083856020840282011115613f3057600080fd5b60005b83811015613f605781613f468882613ed2565b845260208401935060208301925050600181019050613f33565b5050505092915050565b60008083601f840112613f7c57600080fd5b8235905067ffffffffffffffff811115613f9557600080fd5b602083019150836020820283011115613fad57600080fd5b9250929050565b600082601f830112613fc557600080fd5b8135613fd8613fd382615b00565b615aab565b91508181835260208401935060208101905083856020840282011115613ffd57600080fd5b60005b8381101561402d5781614013888261413e565b845260208401935060208301925050600181019050614000565b5050505092915050565b60008135905061404681615e44565b92915050565b60008151905061405b81615e44565b92915050565b60008135905061407081615e5b565b92915050565b60008151905061408581615e5b565b92915050565b60008083601f84011261409d57600080fd5b8235905067ffffffffffffffff8111156140b657600080fd5b6020830191508360018202830111156140ce57600080fd5b9250929050565b600082601f8301126140e657600080fd5b81356140f96140f482615b28565b615aab565b9150808252602083016020830185838301111561411557600080fd5b614120838284615d17565b50505092915050565b60008135905061413881615e72565b92915050565b60008135905061414d81615e89565b92915050565b60006020828403121561416557600080fd5b600061417384828501613ed2565b91505092915050565b6000806040838503121561418f57600080fd5b600061419d85828601613ed2565b92505060206141ae85828601613ed2565b9150509250929050565b60008060008060008060008060c0898b0312156141d457600080fd5b60006141e28b828c01613ed2565b98505060206141f38b828c01613ed2565b975050604089013567ffffffffffffffff81111561421057600080fd5b61421c8b828c01613fb4565b965050606089013567ffffffffffffffff81111561423957600080fd5b6142458b828c01613fb4565b955050608089013567ffffffffffffffff81111561426257600080fd5b61426e8b828c0161408b565b945094505060a089013567ffffffffffffffff81111561428d57600080fd5b6142998b828c01613f6a565b92509250509295985092959890939650565b600080600080600060a086880312156142c357600080fd5b60006142d188828901613ed2565b95505060206142e288828901613ed2565b945050604086013567ffffffffffffffff8111156142ff57600080fd5b61430b88828901613fb4565b935050606086013567ffffffffffffffff81111561432857600080fd5b61433488828901613fb4565b925050608086013567ffffffffffffffff81111561435157600080fd5b61435d888289016140d5565b9150509295509295909350565b60008060008060008060008060c0898b03121561438657600080fd5b60006143948b828c01613ed2565b98505060206143a58b828c01613ed2565b97505060406143b68b828c0161413e565b96505060606143c78b828c0161413e565b955050608089013567ffffffffffffffff8111156143e457600080fd5b6143f08b828c0161408b565b945094505060a089013567ffffffffffffffff81111561440f57600080fd5b61441b8b828c0161408b565b92509250509295985092959890939650565b600080600080600060a0868803121561444557600080fd5b600061445388828901613ed2565b955050602061446488828901613ed2565b94505060406144758882890161413e565b93505060606144868882890161413e565b925050608086013567ffffffffffffffff8111156144a357600080fd5b6144af888289016140d5565b9150509295509295909350565b6000806000606084860312156144d157600080fd5b60006144df86828701613ed2565b935050602084013567ffffffffffffffff8111156144fc57600080fd5b61450886828701613fb4565b925050604084013567ffffffffffffffff81111561452557600080fd5b61453186828701613fb4565b9150509250925092565b6000806040838503121561454e57600080fd5b600061455c85828601613ed2565b925050602061456d85828601614037565b9150509250929050565b600080600080600080600060a0888a03121561459257600080fd5b60006145a08a828b01613ed2565b97505060206145b18a828b01614129565b96505060406145c28a828b0161413e565b955050606088013567ffffffffffffffff8111156145df57600080fd5b6145eb8a828b0161408b565b9450945050608088013567ffffffffffffffff81111561460a57600080fd5b6146168a828b0161408b565b925092505092959891949750929550565b6000806040838503121561463a57600080fd5b600061464885828601613ed2565b92505060206146598582860161413e565b9150509250929050565b60008060006060848603121561467857600080fd5b600061468686828701613ed2565b93505060206146978682870161413e565b92505060406146a88682870161413e565b9150509250925092565b600080604083850312156146c557600080fd5b600083013567ffffffffffffffff8111156146df57600080fd5b6146eb85828601613ee7565b925050602083013567ffffffffffffffff81111561470857600080fd5b61471485828601613fb4565b9150509250929050565b60006020828403121561473057600080fd5b600061473e8482850161404c565b91505092915050565b60006020828403121561475957600080fd5b600061476784828501614061565b91505092915050565b60006020828403121561478257600080fd5b600061479084828501614076565b91505092915050565b6000602082840312156147ab57600080fd5b60006147b98482850161413e565b91505092915050565b600080604083850312156147d557600080fd5b60006147e38582860161413e565b92505060206147f485828601613ed2565b9150509250929050565b600061480b848484614994565b90509392505050565b60006148208383614a58565b60208301905092915050565b6000614838838361541b565b60208301905092915050565b61484d81615c99565b82525050565b600061485f8385615bd1565b93508360208402850161487184615b54565b8060005b878110156148b757848403895261488c8284615c42565b6148978682846147fe565b95506148a284615baa565b935060208b019a505050600181019050614875565b50829750879450505050509392505050565b60006148d482615b7e565b6148de8185615be2565b93506148e983615b5e565b8060005b8381101561491a5781516149018882614814565b975061490c83615bb7565b9250506001810190506148ed565b5085935050505092915050565b600061493282615b89565b61493c8185615bf3565b935061494783615b6e565b8060005b8381101561497857815161495f888261482c565b975061496a83615bc4565b92505060018101905061494b565b5085935050505092915050565b61498e81615cab565b82525050565b60006149a08385615c04565b93506149ad838584615d17565b6149b683615d59565b840190509392505050565b60006149cd8385615c15565b93506149da838584615d17565b6149e383615d59565b840190509392505050565b60006149f982615b94565b614a038185615c15565b9350614a13818560208601615d26565b614a1c81615d59565b840191505092915050565b6000614a3282615b94565b614a3c8185615c26565b9350614a4c818560208601615d26565b80840191505092915050565b614a6181615ce3565b82525050565b614a7081615ce3565b82525050565b6000614a8182615b9f565b614a8b8185615c31565b9350614a9b818560208601615d26565b614aa481615d59565b840191505092915050565b6000614abc603483615c31565b91507f455243313135353a207472616e7366657220746f206e6f6e204552433131353560008301527f526563656976657220696d706c656d656e7465720000000000000000000000006020830152604082019050919050565b6000614b22602883615c31565b91507f455243313135353a204552433131353552656365697665722072656a6563746560008301527f6420746f6b656e730000000000000000000000000000000000000000000000006020830152604082019050919050565b6000614b88604483615c31565b91507f7361666542617463685472616e73666572416e6443616e63656c474f3a20436160008301527f6e63656c2064617461206d75737420657175616c2063616e63656c207265717560208301527f65737473000000000000000000000000000000000000000000000000000000006040830152606082019050919050565b6000614c14602b83615c31565b91507f455243313135353a2062616c616e636520717565727920666f7220746865207a60008301527f65726f20616464726573730000000000000000000000000000000000000000006020830152604082019050919050565b6000614c7a603183615c31565b91507f455243313135353a2062617463682062616c616e636520717565727920666f7260008301527f20746865207a65726f20616464726573730000000000000000000000000000006020830152604082019050919050565b6000614ce0602683615c31565b91507f4f776e61626c653a206e6577206f776e657220697320746865207a65726f206160008301527f64647265737300000000000000000000000000000000000000000000000000006020830152604082019050919050565b6000614d46601b83615c31565b91507f536166654d6174683a206164646974696f6e206f766572666c6f7700000000006000830152602082019050919050565b6000614d86602983615c31565b91507f455243313135353a2063616c6c6572206973206e6f74206f776e6572206e6f7260008301527f20617070726f76656400000000000000000000000000000000000000000000006020830152604082019050919050565b6000614dec602583615c31565b91507f53656e646572206973206e6f7420726567697374657265642077697468696e2060008301527f616e2049420000000000000000000000000000000000000000000000000000006020830152604082019050919050565b6000614e52601483615c31565b91507f6120616e64206220646f206e6f742074726164650000000000000000000000006000830152602082019050919050565b6000614e92602783615c31565b91507f5265636569766572206973206e6f74207265676973746572656420776974686960008301527f6e20616e204942000000000000000000000000000000000000000000000000006020830152604082019050919050565b6000614ef8602583615c31565b91507f455243313135353a207472616e7366657220746f20746865207a65726f20616460008301527f64726573730000000000000000000000000000000000000000000000000000006020830152604082019050919050565b6000614f5e603283615c31565b91507f455243313135353a207472616e736665722063616c6c6572206973206e6f742060008301527f6f776e6572206e6f7220617070726f76656400000000000000000000000000006020830152604082019050919050565b6000614fc4602383615c31565b91507f455243313135353a206275726e2066726f6d20746865207a65726f206164647260008301527f65737300000000000000000000000000000000000000000000000000000000006020830152604082019050919050565b600061502a602083615c31565b91507f4f776e61626c653a2063616c6c6572206973206e6f7420746865206f776e65726000830152602082019050919050565b600061506a601c83615c31565b91507f494220646f6573206e6f742076616c69646174652072657175657374000000006000830152602082019050919050565b60006150aa601b83615c31565b91507f46726f6d20646f6573206e6f74207472616465207769746820746f00000000006000830152602082019050919050565b60006150ea600b83615c31565b91507f6e6f7420616464726573730000000000000000000000000000000000000000006000830152602082019050919050565b600061512a602f83615c31565b91507f43616e206e6f742072656d6f7665207a65726f2061646472657373206173206360008301527f65727469666965642069737375657200000000000000000000000000000000006020830152604082019050919050565b6000615190600083615c31565b9150600082019050919050565b60006151aa601f83615c31565b91507f596f7520617265206e6f74206120636572746966696564206973737565722e006000830152602082019050919050565b60006151ea602983615c31565b91507f455243313135353a2073657474696e6720617070726f76616c2073746174757360008301527f20666f722073656c6600000000000000000000000000000000000000000000006020830152604082019050919050565b6000615250602983615c31565b91507f455243313135353a206163636f756e747320616e6420696473206c656e67746860008301527f206d69736d6174636800000000000000000000000000000000000000000000006020830152604082019050919050565b60006152b6602883615c31565b91507f455243313135353a2069647320616e6420616d6f756e7473206c656e6774682060008301527f6d69736d617463680000000000000000000000000000000000000000000000006020830152604082019050919050565b600061531c602183615c31565b91507f455243313135353a206d696e7420746f20746865207a65726f2061646472657360008301527f73000000000000000000000000000000000000000000000000000000000000006020830152604082019050919050565b6000615382601483615c31565b91507f6275726e20494220636865636b206661696c65640000000000000000000000006000830152602082019050919050565b60006153c2602c83615c31565b91507f43616e206e6f7420616464207a65726f2061646472657373206173206365727460008301527f69666965642069737375657200000000000000000000000000000000000000006020830152604082019050919050565b61542481615d0d565b82525050565b61543381615d0d565b82525050565b60006154458284614a27565b915081905092915050565b60006020820190506154656000830184614844565b92915050565b600060a0820190506154806000830188614844565b61548d6020830187614844565b818103604083015261549f8186614927565b905081810360608301526154b38185614927565b905081810360808301526154c781846149ee565b90509695505050505050565b600060a0820190506154e86000830188614844565b6154f56020830187614844565b615502604083018661542a565b61550f606083018561542a565b818103608083015261552181846149ee565b90509695505050505050565b600060208201905081810360008301526155478184614927565b905092915050565b600060408201905081810360008301526155698185614927565b9050818103602083015261557d8184614927565b90509392505050565b600060808201905081810360008301526155a08188614927565b905081810360208301526155b48187614927565b905081810360408301526155c881866148c9565b905081810360608301526155dd818486614853565b90509695505050505050565b60006020820190506155fe6000830184614985565b92915050565b60006080820190506156196000830187614a67565b6156266020830186614844565b818103604083015261563881856149ee565b9050818103606083015261564c81846149ee565b905095945050505050565b600060208201905081810360008301526156718184614a76565b905092915050565b6000602082019050818103600083015261569281614aaf565b9050919050565b600060208201905081810360008301526156b281614b15565b9050919050565b600060208201905081810360008301526156d281614b7b565b9050919050565b600060208201905081810360008301526156f281614c07565b9050919050565b6000602082019050818103600083015261571281614c6d565b9050919050565b6000602082019050818103600083015261573281614cd3565b9050919050565b6000602082019050818103600083015261575281614d39565b9050919050565b6000602082019050818103600083015261577281614d79565b9050919050565b6000602082019050818103600083015261579281614ddf565b9050919050565b600060208201905081810360008301526157b281614e45565b9050919050565b600060208201905081810360008301526157d281614e85565b9050919050565b600060208201905081810360008301526157f281614eeb565b9050919050565b6000602082019050818103600083015261581281614f51565b9050919050565b6000602082019050818103600083015261583281614fb7565b9050919050565b600060208201905081810360008301526158528161501d565b9050919050565b600060208201905081810360008301526158728161505d565b9050919050565b600060208201905081810360008301526158928161509d565b9050919050565b600060208201905081810360008301526158b2816150dd565b9050919050565b600060208201905081810360008301526158d28161511d565b9050919050565b600060208201905081810360008301526158f281615183565b9050919050565b600060208201905081810360008301526159128161519d565b9050919050565b60006020820190508181036000830152615932816151dd565b9050919050565b6000602082019050818103600083015261595281615243565b9050919050565b60006020820190508181036000830152615972816152a9565b9050919050565b600060208201905081810360008301526159928161530f565b9050919050565b600060208201905081810360008301526159b281615375565b9050919050565b600060208201905081810360008301526159d2816153b5565b9050919050565b60006020820190506159ee600083018461542a565b92915050565b6000606082019050615a09600083018761542a565b615a166020830186614a67565b8181036040830152615a298184866149c1565b905095945050505050565b6000604082019050615a49600083018561542a565b615a56602083018461542a565b9392505050565b6000608082019050615a72600083018861542a565b615a7f602083018761542a565b615a8c6040830186614a67565b8181036060830152615a9f8184866149c1565b90509695505050505050565b6000604051905081810181811067ffffffffffffffff82111715615ace57600080fd5b8060405250919050565b600067ffffffffffffffff821115615aef57600080fd5b602082029050602081019050919050565b600067ffffffffffffffff821115615b1757600080fd5b602082029050602081019050919050565b600067ffffffffffffffff821115615b3f57600080fd5b601f19601f8301169050602081019050919050565b6000819050919050565b6000819050602082019050919050565b6000819050602082019050919050565b600081519050919050565b600081519050919050565b600081519050919050565b600081519050919050565b6000602082019050919050565b6000602082019050919050565b6000602082019050919050565b600082825260208201905092915050565b600082825260208201905092915050565b600082825260208201905092915050565b600082825260208201905092915050565b600082825260208201905092915050565b600081905092915050565b600082825260208201905092915050565b60008083356001602003843603038112615c5b57600080fd5b83810192508235915060208301925067ffffffffffffffff821115615c7f57600080fd5b600182023603841315615c9157600080fd5b509250929050565b6000615ca482615ced565b9050919050565b60008115159050919050565b60007fffffffff0000000000000000000000000000000000000000000000000000000082169050919050565b6000819050919050565b600073ffffffffffffffffffffffffffffffffffffffff82169050919050565b6000819050919050565b82818337600083830152505050565b60005b83811015615d44578082015181840152602081019050615d29565b83811115615d53576000848401525b50505050565b6000601f19601f8301169050919050565b60008160e01c9050919050565b600060443d1015615d8757615e2a565b60046000803e615d98600051615d6a565b6308c379a08114615da95750615e2a565b60405160043d036004823e80513d602482011167ffffffffffffffff82111715615dd557505050615e2a565b808201805167ffffffffffffffff811115615df4575050505050615e2a565b8060208301013d8501811115615e0f57505050505050615e2a565b615e1882615d59565b60208401016040528296505050505050505b90565b615e3681615c99565b8114615e4157600080fd5b50565b615e4d81615cab565b8114615e5857600080fd5b50565b615e6481615cb7565b8114615e6f57600080fd5b50565b615e7b81615ce3565b8114615e8657600080fd5b50565b615e9281615d0d565b8114615e9d57600080fd5b5056fe455243313135353a206275726e20616d6f756e7420657863656564732062616c616e6365455243313135353a20696e73756666696369656e742062616c616e636520666f72207472616e73666572a2646970667358221220e58646141ac06609a75e31938355876bf5975cc63ad77de02aead98d9d13bc8c64736f6c63430007000033",
  "immutableReferences": {},
  "source": "// SPDX-License-Identifier: MIT\npragma solidity >=0.4.22 <0.9.0;\n\npragma experimental ABIEncoderV2;\n\nimport \"@openzeppelin/contracts/token/ERC1155/ERC1155Burnable.sol\";\nimport \"@openzeppelin/contracts/access/Ownable.sol\";\nimport \"@openzeppelin/contracts/math/SafeMath.sol\";\n\ncontract GORegistry is ERC1155Burnable, Ownable {\n    using SafeMath for uint256;\n\n    uint256 public tokenNonce;\n\n    mapping(uint256 => address) public certificateIssuers;\n\n    mapping(uint256 => GOCertificate) public theGOStorage;\n    mapping(uint256 => mapping(address => uint256)) public canceledGOs;\n\n    mapping(address => bool) public certifiedIssuers;\n\n    mapping(address => address) public userToIssuingBody;\n\n    modifier onlyCertificateOwner(uint256 certId) {\n        require(certificateIssuers[certId] == msg.sender);\n        _;\n    }\n\n    modifier onlyCertifiedIssuers(address issuer) {\n        require(\n            certifiedIssuers[issuer] == true,\n            \"You are not a certified issuer.\"\n        );\n        _;\n    }\n\n    event OneGOIssued(\n        address indexed issuingBody,\n        uint256 amount,\n        int256 certificateType,\n        bytes data\n    );\n    event OneGOCanceled(\n        address indexed cancelIssuer,\n        address indexed cancelClaimer,\n        uint256 tokenId,\n        uint256 amount,\n        int256 certificateType,\n        bytes cancelData\n    );\n    event BatchGOCanceled(\n        address indexed cancelIssuer,\n        address indexed cancelClaimer,\n        uint256[] tokenIds,\n        uint256[] amounts,\n        int256[] certificateTypes,\n        bytes[] cancelData\n    );\n    event IssuingBodyAdded(address issuer);\n    event IssuingBodyRemoved(address issuer);\n\n    struct GOCertificate {\n        int256 certificateType;\n        address issuingBody;\n        bytes data;\n        bytes validationFunction;\n    }\n\n    //example token metadata domain, not really existing\n    constructor() ERC1155(\"GOCertificateDomain/{id}\") Ownable() {}\n\n    function issueGOCertificate(\n        address to,\n        int256 _certificateType,\n        uint256 amount,\n        bytes calldata data,\n        bytes calldata validationFunc\n    ) external onlyCertifiedIssuers(msg.sender) returns (uint256 _id) {\n        _isValid(msg.sender, validationFunc);\n        uint256 tokenId = _generateGOToken(msg.sender, amount, data);\n        if (amount > 0) {\n            safeTransferFrom(msg.sender, to, tokenId, amount, data);\n        }\n        theGOStorage[tokenId] = GOCertificate({\n            certificateType: _certificateType,\n            issuingBody: msg.sender,\n            data: data,\n            validationFunction: validationFunc\n        });\n        emit OneGOIssued(msg.sender, amount, _certificateType, data);\n        return tokenId;\n    }\n\n    function _beforeTokenTransfer(\n        address operator,\n        address from,\n        address to,\n        uint256[] memory ids,\n        uint256[] memory amounts,\n        bytes memory data\n    ) internal virtual override {\n        super._beforeTokenTransfer(operator, from, to, ids, amounts, data);\n        if(!_isCertifiedIssuer(from) && from != address(0) && to != address(0)){\n            for(uint256 i = 0; i < ids.length; i++){\n                address fromIB = theGOStorage[ids[0]].issuingBody;\n                address toIB = userToIssuingBody[to];\n                require(fromIB != address(0) , \"Sender is not registered within an IB\");\n                require(toIB != address(0) , \"Receiver is not registered within an IB\");\n                require(_doesFromTradeWithTo(fromIB, toIB), \n                    \"From does not trade with to\");\n            }\n        }\n        else if(!_isCertifiedIssuer(from) && from != address(0) && to == address(0)){\n            for(uint256 i = 0; i < ids.length; i++){\n                address fromIBToken = theGOStorage[ids[0]].issuingBody;\n                address fromIBCurrent = userToIssuingBody[from];\n                require(fromIBToken != address(0) , \"\");\n                require(fromIBCurrent != address(0) , \"\");\n                require(fromIBToken == fromIBCurrent ||_doesFromTradeWithTo(fromIBToken, fromIBCurrent), \n                    \"burn IB check failed\");\n            }\n        }\n    }\n\n    function safeTransferAndCancelGO(\n        address from,\n        address to,\n        uint256 tokenId,\n        uint256 amount,\n        bytes calldata data,\n        bytes calldata cancelData\n    ) external {\n        GOCertificate memory go = theGOStorage[tokenId];\n        _isValid(go.issuingBody, go.validationFunction);\n        if (from != to) {\n            super.safeTransferFrom(from, to, tokenId, amount, data);\n        } else {\n            require(\n                from == _msgSender() || isApprovedForAll(from, _msgSender()),\n                \"ERC1155: caller is not owner nor approved\"\n            );\n        }\n        super._burn(to, tokenId, amount);\n        canceledGOs[tokenId][to] = canceledGOs[tokenId][to].add(amount);\n        emit OneGOCanceled(\n            from,\n            to,\n            tokenId,\n            amount,\n            go.certificateType,\n            cancelData\n        );\n    }\n\n    function safeBatchTransferAndCancelGO(\n        address from,\n        address to,\n        uint256[] memory tokenIds,\n        uint256[] memory tokenAmounts,\n        bytes calldata data,\n        bytes[] calldata cancelData\n    ) external {\n        uint256 cancelRequests = tokenIds.length;\n        require(\n            cancelData.length == cancelRequests,\n            \"safeBatchTransferAndCancelGO: Cancel data must equal cancel requests\"\n        );\n        if (from != to) {\n            super.safeBatchTransferFrom(from, to, tokenIds, tokenAmounts, data);\n        } else {\n            require(\n                from == _msgSender() || isApprovedForAll(from, _msgSender()),\n                \"ERC1155: caller is not owner nor approved\"\n            );\n        }\n        int256[] memory certificateTypes = new int256[](cancelRequests);\n        for (uint256 i = 0; i < cancelRequests; i++) {\n            canceledGOs[tokenIds[i]][to] = canceledGOs[tokenIds[i]][to].add(\n                tokenAmounts[i]\n            );\n            GOCertificate memory go = theGOStorage[tokenIds[i]];\n            certificateTypes[i] = go.certificateType;\n        }\n\n        super._burnBatch(to, tokenIds, tokenAmounts);\n        emit BatchGOCanceled(\n            from,\n            to,\n            tokenIds,\n            tokenAmounts,\n            certificateTypes,\n            cancelData\n        );\n    }\n\n    function addCertifiedIssuer(address issuer) external onlyOwner() {\n        require(\n            issuer != address(0),\n            \"Can not add zero address as certified issuer\"\n        );\n        certifiedIssuers[issuer] = true;\n        emit IssuingBodyAdded(issuer);\n    }\n\n    function removeCertifiedIssuer(address issuer) external onlyOwner() {\n        require(\n            issuer != address(0),\n            \"Can not remove zero address as certified issuer\"\n        );\n        certifiedIssuers[issuer] = false;\n        emit IssuingBodyRemoved(issuer);\n    }\n\n    //Can only be called by Issuing body address\n    function registerForIssuingBody(address registrant) public onlyCertifiedIssuers(msg.sender){\n        userToIssuingBody[registrant] = msg.sender;\n    }\n\n    /////////////    Private  ////////////////\n\n    function _generateGOToken(\n        address certificateIssuer,\n        uint256 initialSupply,\n        bytes memory data\n    ) private returns (uint256 id) {\n        uint256 certificateId = ++tokenNonce;\n        certificateIssuers[certificateId] = certificateIssuer;\n        super._mint(certificateIssuer, certificateId, initialSupply, data);\n        return certificateId;\n    }\n\n    function _isValid(address sender, bytes memory validationFunction)\n        internal\n        view\n    {\n        if (_isOfTypeContract(sender)) {\n            (bool success, bytes memory result) =\n                sender.staticcall(validationFunction);\n\n            require(\n                success && abi.decode(result, (bool)),\n                \"IB does not validate request\"\n            );\n        }\n    }\n\n    function _isOfTypeContract(address theAddress) private view returns (bool) {\n        uint256 size;\n        assembly {\n            size := extcodesize(theAddress)\n        }\n        return size > 0;\n    }\n\n    function _isCertifiedIssuer(address theSender) private view returns (bool){\n        return certifiedIssuers[theSender];\n    }\n\n    function _doesFromTradeWithTo(address from, address to)\n        private\n        view\n        returns (bool)\n    {\n        require(\n            _isOfTypeContract(from),\n            \"not address\"\n        );\n        require(\n            _isOfTypeContract(to),\n            \"not address\"\n        );\n        bytes memory validateFunc =\n            abi.encodeWithSignature(\"isTradingWith(address)\", from);\n        (bool success, bytes memory result) = to.staticcall(validateFunc);\n        require(\n            success,\n            \"a and b do not trade\"\n        );\n        return  abi.decode(result, (bool));\n    }\n}\n",
  "sourcePath": "/home/tira/projects/GoO-blockchain/contracts/GORegistry.sol",
  "compiler": {
    "name": "solc",
    "version": "0.7.0+commit.9e61f92b.Emscripten.clang"
  },
  "schemaVersion": "3.3.3",
  "updatedAt": "2021-02-11T14:33:19.237Z",
  "networkType": "ethereum",
  "devdoc": {
    "kind": "dev",
    "methods": {
      "balanceOf(address,uint256)": {
        "details": "See {IERC1155-balanceOf}. Requirements: - `account` cannot be the zero address."
      },
      "balanceOfBatch(address[],uint256[])": {
        "details": "See {IERC1155-balanceOfBatch}. Requirements: - `accounts` and `ids` must have the same length."
      },
      "isApprovedForAll(address,address)": {
        "details": "See {IERC1155-isApprovedForAll}."
      },
      "owner()": {
        "details": "Returns the address of the current owner."
      },
      "renounceOwnership()": {
        "details": "Leaves the contract without owner. It will not be possible to call `onlyOwner` functions anymore. Can only be called by the current owner. NOTE: Renouncing ownership will leave the contract without an owner, thereby removing any functionality that is only available to the owner."
      },
      "safeBatchTransferFrom(address,address,uint256[],uint256[],bytes)": {
        "details": "See {IERC1155-safeBatchTransferFrom}."
      },
      "safeTransferFrom(address,address,uint256,uint256,bytes)": {
        "details": "See {IERC1155-safeTransferFrom}."
      },
      "setApprovalForAll(address,bool)": {
        "details": "See {IERC1155-setApprovalForAll}."
      },
      "supportsInterface(bytes4)": {
        "details": "See {IERC165-supportsInterface}. Time complexity O(1), guaranteed to always use less than 30 000 gas."
      },
      "transferOwnership(address)": {
        "details": "Transfers ownership of the contract to a new account (`newOwner`). Can only be called by the current owner."
      },
      "uri(uint256)": {
        "details": "See {IERC1155MetadataURI-uri}. This implementation returns the same URI for *all* token types. It relies on the token type ID substituion mechanism https://eips.ethereum.org/EIPS/eip-1155#metadata[defined in the EIP]. Clients calling this function must replace the `\\{id\\}` substring with the actual token type ID."
      }
    },
    "version": 1
  },
  "userdoc": {
    "kind": "user",
    "methods": {},
    "version": 1
  }
}