{
  "contractName": "GORegistry",
  "abi": [
    {
      "inputs": [],
      "stateMutability": "nonpayable",
      "type": "constructor"
    },
    {
      "anonymous": false,
      "inputs": [
        {
          "indexed": true,
          "internalType": "address",
          "name": "account",
          "type": "address"
        },
        {
          "indexed": true,
          "internalType": "address",
          "name": "operator",
          "type": "address"
        },
        {
          "indexed": false,
          "internalType": "bool",
          "name": "approved",
          "type": "bool"
        }
      ],
      "name": "ApprovalForAll",
      "type": "event"
    },
    {
      "anonymous": false,
      "inputs": [
        {
          "indexed": true,
          "internalType": "address",
          "name": "cancelIssuer",
          "type": "address"
        },
        {
          "indexed": true,
          "internalType": "address",
          "name": "cancelClaimer",
          "type": "address"
        },
        {
          "indexed": false,
          "internalType": "uint256[]",
          "name": "tokenIds",
          "type": "uint256[]"
        },
        {
          "indexed": false,
          "internalType": "uint256[]",
          "name": "amounts",
          "type": "uint256[]"
        },
        {
          "indexed": false,
          "internalType": "int256[]",
          "name": "certificateTypes",
          "type": "int256[]"
        },
        {
          "indexed": false,
          "internalType": "bytes[]",
          "name": "cancelData",
          "type": "bytes[]"
        }
      ],
      "name": "BatchGOCanceled",
      "type": "event"
    },
    {
      "anonymous": false,
      "inputs": [
        {
          "indexed": true,
          "internalType": "address",
          "name": "cancelIssuer",
          "type": "address"
        },
        {
          "indexed": true,
          "internalType": "address",
          "name": "cancelClaimer",
          "type": "address"
        },
        {
          "indexed": false,
          "internalType": "uint256",
          "name": "tokenId",
          "type": "uint256"
        },
        {
          "indexed": false,
          "internalType": "uint256",
          "name": "amount",
          "type": "uint256"
        },
        {
          "indexed": false,
          "internalType": "int256",
          "name": "certificateType",
          "type": "int256"
        },
        {
          "indexed": false,
          "internalType": "bytes",
          "name": "cancelData",
          "type": "bytes"
        }
      ],
      "name": "OneGOCanceled",
      "type": "event"
    },
    {
      "anonymous": false,
      "inputs": [
        {
          "indexed": true,
          "internalType": "address",
          "name": "issuingBody",
          "type": "address"
        },
        {
          "indexed": false,
          "internalType": "int256",
          "name": "certificateType",
          "type": "int256"
        },
        {
          "indexed": false,
          "internalType": "bytes",
          "name": "data",
          "type": "bytes"
        }
      ],
      "name": "OneGOIssued",
      "type": "event"
    },
    {
      "anonymous": false,
      "inputs": [
        {
          "indexed": true,
          "internalType": "address",
          "name": "operator",
          "type": "address"
        },
        {
          "indexed": true,
          "internalType": "address",
          "name": "from",
          "type": "address"
        },
        {
          "indexed": true,
          "internalType": "address",
          "name": "to",
          "type": "address"
        },
        {
          "indexed": false,
          "internalType": "uint256[]",
          "name": "ids",
          "type": "uint256[]"
        },
        {
          "indexed": false,
          "internalType": "uint256[]",
          "name": "values",
          "type": "uint256[]"
        }
      ],
      "name": "TransferBatch",
      "type": "event"
    },
    {
      "anonymous": false,
      "inputs": [
        {
          "indexed": true,
          "internalType": "address",
          "name": "operator",
          "type": "address"
        },
        {
          "indexed": true,
          "internalType": "address",
          "name": "from",
          "type": "address"
        },
        {
          "indexed": true,
          "internalType": "address",
          "name": "to",
          "type": "address"
        },
        {
          "indexed": false,
          "internalType": "uint256",
          "name": "id",
          "type": "uint256"
        },
        {
          "indexed": false,
          "internalType": "uint256",
          "name": "value",
          "type": "uint256"
        }
      ],
      "name": "TransferSingle",
      "type": "event"
    },
    {
      "anonymous": false,
      "inputs": [
        {
          "indexed": false,
          "internalType": "string",
          "name": "value",
          "type": "string"
        },
        {
          "indexed": true,
          "internalType": "uint256",
          "name": "id",
          "type": "uint256"
        }
      ],
      "name": "URI",
      "type": "event"
    },
    {
      "inputs": [
        {
          "internalType": "address",
          "name": "account",
          "type": "address"
        },
        {
          "internalType": "uint256",
          "name": "id",
          "type": "uint256"
        }
      ],
      "name": "balanceOf",
      "outputs": [
        {
          "internalType": "uint256",
          "name": "",
          "type": "uint256"
        }
      ],
      "stateMutability": "view",
      "type": "function"
    },
    {
      "inputs": [
        {
          "internalType": "address[]",
          "name": "accounts",
          "type": "address[]"
        },
        {
          "internalType": "uint256[]",
          "name": "ids",
          "type": "uint256[]"
        }
      ],
      "name": "balanceOfBatch",
      "outputs": [
        {
          "internalType": "uint256[]",
          "name": "",
          "type": "uint256[]"
        }
      ],
      "stateMutability": "view",
      "type": "function"
    },
    {
      "inputs": [
        {
          "internalType": "address",
          "name": "account",
          "type": "address"
        },
        {
          "internalType": "uint256",
          "name": "id",
          "type": "uint256"
        },
        {
          "internalType": "uint256",
          "name": "value",
          "type": "uint256"
        }
      ],
      "name": "burn",
      "outputs": [],
      "stateMutability": "nonpayable",
      "type": "function"
    },
    {
      "inputs": [
        {
          "internalType": "address",
          "name": "account",
          "type": "address"
        },
        {
          "internalType": "uint256[]",
          "name": "ids",
          "type": "uint256[]"
        },
        {
          "internalType": "uint256[]",
          "name": "values",
          "type": "uint256[]"
        }
      ],
      "name": "burnBatch",
      "outputs": [],
      "stateMutability": "nonpayable",
      "type": "function"
    },
    {
      "inputs": [
        {
          "internalType": "uint256",
          "name": "",
          "type": "uint256"
        }
      ],
      "name": "certificateOwners",
      "outputs": [
        {
          "internalType": "address",
          "name": "",
          "type": "address"
        }
      ],
      "stateMutability": "view",
      "type": "function"
    },
    {
      "inputs": [
        {
          "internalType": "address",
          "name": "account",
          "type": "address"
        },
        {
          "internalType": "address",
          "name": "operator",
          "type": "address"
        }
      ],
      "name": "isApprovedForAll",
      "outputs": [
        {
          "internalType": "bool",
          "name": "",
          "type": "bool"
        }
      ],
      "stateMutability": "view",
      "type": "function"
    },
    {
      "inputs": [
        {
          "internalType": "address",
          "name": "from",
          "type": "address"
        },
        {
          "internalType": "address",
          "name": "to",
          "type": "address"
        },
        {
          "internalType": "uint256[]",
          "name": "ids",
          "type": "uint256[]"
        },
        {
          "internalType": "uint256[]",
          "name": "amounts",
          "type": "uint256[]"
        },
        {
          "internalType": "bytes",
          "name": "data",
          "type": "bytes"
        }
      ],
      "name": "safeBatchTransferFrom",
      "outputs": [],
      "stateMutability": "nonpayable",
      "type": "function"
    },
    {
      "inputs": [
        {
          "internalType": "address",
          "name": "from",
          "type": "address"
        },
        {
          "internalType": "address",
          "name": "to",
          "type": "address"
        },
        {
          "internalType": "uint256",
          "name": "id",
          "type": "uint256"
        },
        {
          "internalType": "uint256",
          "name": "amount",
          "type": "uint256"
        },
        {
          "internalType": "bytes",
          "name": "data",
          "type": "bytes"
        }
      ],
      "name": "safeTransferFrom",
      "outputs": [],
      "stateMutability": "nonpayable",
      "type": "function"
    },
    {
      "inputs": [
        {
          "internalType": "address",
          "name": "operator",
          "type": "address"
        },
        {
          "internalType": "bool",
          "name": "approved",
          "type": "bool"
        }
      ],
      "name": "setApprovalForAll",
      "outputs": [],
      "stateMutability": "nonpayable",
      "type": "function"
    },
    {
      "inputs": [
        {
          "internalType": "bytes4",
          "name": "interfaceId",
          "type": "bytes4"
        }
      ],
      "name": "supportsInterface",
      "outputs": [
        {
          "internalType": "bool",
          "name": "",
          "type": "bool"
        }
      ],
      "stateMutability": "view",
      "type": "function"
    },
    {
      "inputs": [
        {
          "internalType": "uint256",
          "name": "",
          "type": "uint256"
        }
      ],
      "name": "theGOStorage",
      "outputs": [
        {
          "internalType": "int256",
          "name": "certificateType",
          "type": "int256"
        },
        {
          "internalType": "address",
          "name": "issuingBody",
          "type": "address"
        },
        {
          "internalType": "bytes",
          "name": "data",
          "type": "bytes"
        }
      ],
      "stateMutability": "view",
      "type": "function"
    },
    {
      "inputs": [],
      "name": "tokenNonce",
      "outputs": [
        {
          "internalType": "uint256",
          "name": "",
          "type": "uint256"
        }
      ],
      "stateMutability": "view",
      "type": "function"
    },
    {
      "inputs": [
        {
          "internalType": "uint256",
          "name": "",
          "type": "uint256"
        }
      ],
      "name": "uri",
      "outputs": [
        {
          "internalType": "string",
          "name": "",
          "type": "string"
        }
      ],
      "stateMutability": "view",
      "type": "function"
    },
    {
      "inputs": [
        {
          "internalType": "address",
          "name": "to",
          "type": "address"
        },
        {
          "internalType": "int256",
          "name": "_certificateType",
          "type": "int256"
        },
        {
          "internalType": "uint256",
          "name": "amount",
          "type": "uint256"
        },
        {
          "internalType": "bytes",
          "name": "data",
          "type": "bytes"
        }
      ],
      "name": "issueGoOCertificate",
      "outputs": [
        {
          "internalType": "uint256",
          "name": "_id",
          "type": "uint256"
        }
      ],
      "stateMutability": "nonpayable",
      "type": "function"
    },
    {
      "inputs": [
        {
          "internalType": "address",
          "name": "from",
          "type": "address"
        },
        {
          "internalType": "address",
          "name": "to",
          "type": "address"
        },
        {
          "internalType": "uint256",
          "name": "tokenId",
          "type": "uint256"
        },
        {
          "internalType": "uint256",
          "name": "amount",
          "type": "uint256"
        },
        {
          "internalType": "bytes",
          "name": "data",
          "type": "bytes"
        },
        {
          "internalType": "bytes",
          "name": "cancelData",
          "type": "bytes"
        }
      ],
      "name": "safeTransferAndCancelGO",
      "outputs": [],
      "stateMutability": "nonpayable",
      "type": "function"
    },
    {
      "inputs": [
        {
          "internalType": "address",
          "name": "from",
          "type": "address"
        },
        {
          "internalType": "address",
          "name": "to",
          "type": "address"
        },
        {
          "internalType": "uint256[]",
          "name": "tokenIds",
          "type": "uint256[]"
        },
        {
          "internalType": "uint256[]",
          "name": "tokenAmounts",
          "type": "uint256[]"
        },
        {
          "internalType": "bytes",
          "name": "data",
          "type": "bytes"
        },
        {
          "internalType": "bytes[]",
          "name": "cancelData",
          "type": "bytes[]"
        }
      ],
      "name": "safeBatchTransferAndCancelGO",
      "outputs": [],
      "stateMutability": "nonpayable",
      "type": "function"
    }
  ],
  "bytecode": "0x60806040523480156200001157600080fd5b506040518060400160405280601881526020017f474f4365727469666963617465446f6d61696e2f7b69647d0000000000000000815250620000606301ffc9a760e01b620000a860201b60201c565b62000071816200018060201b60201c565b6200008963d9b67a2660e01b620000a860201b60201c565b620000a1630e89341c60e01b620000a860201b60201c565b50620002b7565b63ffffffff60e01b817bffffffffffffffffffffffffffffffffffffffffffffffffffffffff1916141562000114576040517f08c379a00000000000000000000000000000000000000000000000000000000081526004016200010b9062000284565b60405180910390fd5b6001600080837bffffffffffffffffffffffffffffffffffffffffffffffffffffffff19167bffffffffffffffffffffffffffffffffffffffffffffffffffffffff1916815260200190815260200160002060006101000a81548160ff02191690831515021790555050565b8060039080519060200190620001989291906200019c565b5050565b828054600181600116156101000203166002900490600052602060002090601f016020900481019282601f10620001df57805160ff191683800117855562000210565b8280016001018555821562000210579182015b828111156200020f578251825591602001919060010190620001f2565b5b5090506200021f919062000223565b5090565b5b808211156200023e57600081600090555060010162000224565b5090565b600062000251601c83620002a6565b91507f4552433136353a20696e76616c696420696e74657266616365206964000000006000830152602082019050919050565b600060208201905081810360008301526200029f8162000242565b9050919050565b600082825260208201905092915050565b61402c80620002c76000396000f3fe608060405234801561001057600080fd5b50600436106100ff5760003560e01c80636b20c45411610097578063e27d2b9611610066578063e27d2b96146102d0578063e985e9c514610300578063f242432a14610330578063f5298aca1461034c576100ff565b80636b20c4541461025e57806390f71b441461027a578063966123a514610298578063a22cb465146102b4576100ff565b80632eb2c2d6116100d35780632eb2c2d6146101c45780634776a0d0146101e05780634e1273f4146101fc5780636a45da2c1461022c576100ff565b8062fdd58e1461010457806301ffc9a7146101345780630e89341c1461016457806311830c9a14610194575b600080fd5b61011e60048036038101906101199190612d82565b610368565b60405161012b9190613b2c565b60405180910390f35b61014e60048036038101906101499190612e79565b610432565b60405161015b91906138bf565b60405180910390f35b61017e60048036038101906101799190612ecb565b610499565b60405161018b919061394a565b60405180910390f35b6101ae60048036038101906101a99190612ecb565b61053d565b6040516101bb9190613726565b60405180910390f35b6101de60048036038101906101d99190612a36565b610570565b005b6101fa60048036038101906101f59190612af5565b610931565b005b61021660048036038101906102119190612e0d565b610b67565b6040516102239190613803565b60405180910390f35b61024660048036038101906102419190612ecb565b610d2d565b604051610255939291906138da565b60405180910390f35b61027860048036038101906102739190612c47565b610e0f565b005b610282610eac565b60405161028f9190613b2c565b60405180910390f35b6102b260048036038101906102ad9190612943565b610eb2565b005b6102ce60048036038101906102c99190612cc6565b6111c5565b005b6102ea60048036038101906102e59190612d02565b611346565b6040516102f79190613b2c565b60405180910390f35b61031a60048036038101906103159190612907565b61154d565b60405161032791906138bf565b60405180910390f35b61034a60048036038101906103459190612bb8565b6115e1565b005b61036660048036038101906103619190612dbe565b611924565b005b60008073ffffffffffffffffffffffffffffffffffffffff168373ffffffffffffffffffffffffffffffffffffffff1614156103d9576040517f08c379a00000000000000000000000000000000000000000000000000000000081526004016103d0906139cc565b60405180910390fd5b6001600083815260200190815260200160002060008473ffffffffffffffffffffffffffffffffffffffff1673ffffffffffffffffffffffffffffffffffffffff16815260200190815260200160002054905092915050565b6000806000837bffffffffffffffffffffffffffffffffffffffffffffffffffffffff19167bffffffffffffffffffffffffffffffffffffffffffffffffffffffff1916815260200190815260200160002060009054906101000a900460ff169050919050565b606060038054600181600116156101000203166002900480601f0160208091040260200160405190810160405280929190818152602001828054600181600116156101000203166002900480156105315780601f1061050657610100808354040283529160200191610531565b820191906000526020600020905b81548152906001019060200180831161051457829003601f168201915b50505050509050919050565b60056020528060005260406000206000915054906101000a900473ffffffffffffffffffffffffffffffffffffffff1681565b81518351146105b4576040517f08c379a00000000000000000000000000000000000000000000000000000000081526004016105ab90613aec565b60405180910390fd5b600073ffffffffffffffffffffffffffffffffffffffff168473ffffffffffffffffffffffffffffffffffffffff161415610624576040517f08c379a000000000000000000000000000000000000000000000000000000000815260040161061b90613a4c565b60405180910390fd5b61062c6119c1565b73ffffffffffffffffffffffffffffffffffffffff168573ffffffffffffffffffffffffffffffffffffffff16148061067257506106718561066c6119c1565b61154d565b5b6106b1576040517f08c379a00000000000000000000000000000000000000000000000000000000081526004016106a890613a6c565b60405180910390fd5b60006106bb6119c1565b90506106cb8187878787876119c9565b60005b845181101561089c5760008582815181106106e557fe5b6020026020010151905060008583815181106106fd57fe5b60200260200101519050610784816040518060600160405280602a8152602001613fcd602a91396001600086815260200190815260200160002060008d73ffffffffffffffffffffffffffffffffffffffff1673ffffffffffffffffffffffffffffffffffffffff168152602001908152602001600020546119d19092919063ffffffff16565b6001600084815260200190815260200160002060008b73ffffffffffffffffffffffffffffffffffffffff1673ffffffffffffffffffffffffffffffffffffffff1681526020019081526020016000208190555061083b816001600085815260200190815260200160002060008b73ffffffffffffffffffffffffffffffffffffffff1673ffffffffffffffffffffffffffffffffffffffff16815260200190815260200160002054611a2c90919063ffffffff16565b6001600084815260200190815260200160002060008a73ffffffffffffffffffffffffffffffffffffffff1673ffffffffffffffffffffffffffffffffffffffff1681526020019081526020016000208190555050508060010190506106ce565b508473ffffffffffffffffffffffffffffffffffffffff168673ffffffffffffffffffffffffffffffffffffffff168273ffffffffffffffffffffffffffffffffffffffff167f4a39dc06d4c0dbc64b70af90fd698a233a518aa5d07e595d983b8c0526c8f7fb8787604051610913929190613825565b60405180910390a4610929818787878787611a81565b505050505050565b6109396125c7565b60066000888152602001908152602001600020604051806060016040529081600082015481526020016001820160009054906101000a900473ffffffffffffffffffffffffffffffffffffffff1673ffffffffffffffffffffffffffffffffffffffff1673ffffffffffffffffffffffffffffffffffffffff168152602001600282018054600181600116156101000203166002900480601f016020809104026020016040519081016040528092919081815260200182805460018160011615610100020316600290048015610a505780601f10610a2557610100808354040283529160200191610a50565b820191906000526020600020905b815481529060010190602001808311610a3357829003601f168201915b50505050508152505090508773ffffffffffffffffffffffffffffffffffffffff168973ffffffffffffffffffffffffffffffffffffffff1614610ae057610adf8989898989898080601f016020809104026020016040519081016040528093929190818152602001838380828437600081840152601f19601f820116905080830192505050505050506115e1565b5b610aeb888888611c51565b8773ffffffffffffffffffffffffffffffffffffffff168973ffffffffffffffffffffffffffffffffffffffff167f4f2004d0e230447d378ebe736da53bfaf73a8ccd5921fb49a215d027592602f4898985600001518888604051610b54959493929190613b70565b60405180910390a3505050505050505050565b60608151835114610bad576040517f08c379a0000000000000000000000000000000000000000000000000000000008152600401610ba490613acc565b60405180910390fd5b6060835167ffffffffffffffff81118015610bc757600080fd5b50604051908082528060200260200182016040528015610bf65781602001602082028036833780820191505090505b50905060005b8451811015610d2257600073ffffffffffffffffffffffffffffffffffffffff16858281518110610c2957fe5b602002602001015173ffffffffffffffffffffffffffffffffffffffff161415610c88576040517f08c379a0000000000000000000000000000000000000000000000000000000008152600401610c7f906139ec565b60405180910390fd5b60016000858381518110610c9857fe5b602002602001015181526020019081526020016000206000868381518110610cbc57fe5b602002602001015173ffffffffffffffffffffffffffffffffffffffff1673ffffffffffffffffffffffffffffffffffffffff16815260200190815260200160002054828281518110610d0b57fe5b602002602001018181525050806001019050610bfc565b508091505092915050565b60066020528060005260406000206000915090508060000154908060010160009054906101000a900473ffffffffffffffffffffffffffffffffffffffff1690806002018054600181600116156101000203166002900480601f016020809104026020016040519081016040528092919081815260200182805460018160011615610100020316600290048015610e055780601f10610dda57610100808354040283529160200191610e05565b820191906000526020600020905b815481529060010190602001808311610de857829003601f168201915b5050505050905083565b610e176119c1565b73ffffffffffffffffffffffffffffffffffffffff168373ffffffffffffffffffffffffffffffffffffffff161480610e5d5750610e5c83610e576119c1565b61154d565b5b610e9c576040517f08c379a0000000000000000000000000000000000000000000000000000000008152600401610e9390613a2c565b60405180910390fd5b610ea7838383611e51565b505050565b60045481565b600086519050808383905014610efd576040517f08c379a0000000000000000000000000000000000000000000000000000000008152600401610ef4906139ac565b60405180910390fd5b60608167ffffffffffffffff81118015610f1657600080fd5b50604051908082528060200260200182016040528015610f455781602001602082028036833780820191505090505b50905060005b828110156110bb57610f5b6125c7565b600660008b8481518110610f6b57fe5b60200260200101518152602001908152602001600020604051806060016040529081600082015481526020016001820160009054906101000a900473ffffffffffffffffffffffffffffffffffffffff1673ffffffffffffffffffffffffffffffffffffffff1673ffffffffffffffffffffffffffffffffffffffff168152602001600282018054600181600116156101000203166002900480601f0160208091040260200160405190810160405280929190818152602001828054600181600116156101000203166002900480156110855780601f1061105a57610100808354040283529160200191611085565b820191906000526020600020905b81548152906001019060200180831161106857829003601f168201915b505050505081525050905080600001518383815181106110a157fe5b602002602001018181525050508080600101915050610f4b565b508873ffffffffffffffffffffffffffffffffffffffff168a73ffffffffffffffffffffffffffffffffffffffff1614611141576111408a8a8a8a8a8a8080601f016020809104026020016040519081016040528093929190818152602001838380828437600081840152601f19601f82011690508083019250505050505050610570565b5b61114c898989611e51565b8873ffffffffffffffffffffffffffffffffffffffff168a73ffffffffffffffffffffffffffffffffffffffff167f953af56f12086fd901d7e8a392cfdc0c08e38bed8535ae07c9140b4055b148c88a8a8589896040516111b195949392919061385c565b60405180910390a350505050505050505050565b8173ffffffffffffffffffffffffffffffffffffffff166111e46119c1565b73ffffffffffffffffffffffffffffffffffffffff16141561123b576040517f08c379a000000000000000000000000000000000000000000000000000000000815260040161123290613aac565b60405180910390fd5b80600260006112486119c1565b73ffffffffffffffffffffffffffffffffffffffff1673ffffffffffffffffffffffffffffffffffffffff16815260200190815260200160002060008473ffffffffffffffffffffffffffffffffffffffff1673ffffffffffffffffffffffffffffffffffffffff16815260200190815260200160002060006101000a81548160ff0219169083151502179055508173ffffffffffffffffffffffffffffffffffffffff166112f56119c1565b73ffffffffffffffffffffffffffffffffffffffff167f17307eab39ab6107e8899845ad3d59bd9653f200f220920489ca2b5937696c318360405161133a91906138bf565b60405180910390a35050565b600080611398338686868080601f016020809104026020016040519081016040528093929190818152602001838380828437600081840152601f19601f820116905080830192505050505050506120d8565b905060008511156113f5576113f43388838888888080601f016020809104026020016040519081016040528093929190818152602001838380828437600081840152601f19601f820116905080830192505050505050506115e1565b5b60405180606001604052808781526020013373ffffffffffffffffffffffffffffffffffffffff16815260200185858080601f016020809104026020016040519081016040528093929190818152602001838380828437600081840152601f19601f82011690508083019250505050505050815250600660008381526020019081526020016000206000820151816000015560208201518160010160006101000a81548173ffffffffffffffffffffffffffffffffffffffff021916908373ffffffffffffffffffffffffffffffffffffffff16021790555060408201518160020190805190602001906114ea9291906125fe565b509050503373ffffffffffffffffffffffffffffffffffffffff167f9a9b91d864e66912608dd9c7ff49cdf980b56e56e9cba269da2a4c9136b4cd5487868660405161153893929190613918565b60405180910390a28091505095945050505050565b6000600260008473ffffffffffffffffffffffffffffffffffffffff1673ffffffffffffffffffffffffffffffffffffffff16815260200190815260200160002060008373ffffffffffffffffffffffffffffffffffffffff1673ffffffffffffffffffffffffffffffffffffffff16815260200190815260200160002060009054906101000a900460ff16905092915050565b600073ffffffffffffffffffffffffffffffffffffffff168473ffffffffffffffffffffffffffffffffffffffff161415611651576040517f08c379a000000000000000000000000000000000000000000000000000000000815260040161164890613a4c565b60405180910390fd5b6116596119c1565b73ffffffffffffffffffffffffffffffffffffffff168573ffffffffffffffffffffffffffffffffffffffff16148061169f575061169e856116996119c1565b61154d565b5b6116de576040517f08c379a00000000000000000000000000000000000000000000000000000000081526004016116d590613a2c565b60405180910390fd5b60006116e86119c1565b90506117088187876116f988612155565b61170288612155565b876119c9565b611785836040518060600160405280602a8152602001613fcd602a91396001600088815260200190815260200160002060008a73ffffffffffffffffffffffffffffffffffffffff1673ffffffffffffffffffffffffffffffffffffffff168152602001908152602001600020546119d19092919063ffffffff16565b6001600086815260200190815260200160002060008873ffffffffffffffffffffffffffffffffffffffff1673ffffffffffffffffffffffffffffffffffffffff1681526020019081526020016000208190555061183c836001600087815260200190815260200160002060008873ffffffffffffffffffffffffffffffffffffffff1673ffffffffffffffffffffffffffffffffffffffff16815260200190815260200160002054611a2c90919063ffffffff16565b6001600086815260200190815260200160002060008773ffffffffffffffffffffffffffffffffffffffff1673ffffffffffffffffffffffffffffffffffffffff168152602001908152602001600020819055508473ffffffffffffffffffffffffffffffffffffffff168673ffffffffffffffffffffffffffffffffffffffff168273ffffffffffffffffffffffffffffffffffffffff167fc3d58168c5ae7397731d063d5bbf3d657854427343f4c083240f7aacaa2d0f628787604051611906929190613b47565b60405180910390a461191c8187878787876121c5565b505050505050565b61192c6119c1565b73ffffffffffffffffffffffffffffffffffffffff168373ffffffffffffffffffffffffffffffffffffffff16148061197257506119718361196c6119c1565b61154d565b5b6119b1576040517f08c379a00000000000000000000000000000000000000000000000000000000081526004016119a890613a2c565b60405180910390fd5b6119bc838383611c51565b505050565b600033905090565b505050505050565b6000838311158290611a19576040517f08c379a0000000000000000000000000000000000000000000000000000000008152600401611a10919061394a565b60405180910390fd5b5060008385039050809150509392505050565b600080828401905083811015611a77576040517f08c379a0000000000000000000000000000000000000000000000000000000008152600401611a6e90613a0c565b60405180910390fd5b8091505092915050565b611aa08473ffffffffffffffffffffffffffffffffffffffff16612395565b15611c49578373ffffffffffffffffffffffffffffffffffffffff1663bc197c8187878686866040518663ffffffff1660e01b8152600401611ae6959493929190613741565b602060405180830381600087803b158015611b0057600080fd5b505af1925050508015611b3157506040513d601f19601f82011682018060405250810190611b2e9190612ea2565b60015b611bc057611b3d613e7f565b80611b485750611b85565b806040517f08c379a0000000000000000000000000000000000000000000000000000000008152600401611b7c919061394a565b60405180910390fd5b6040517f08c379a0000000000000000000000000000000000000000000000000000000008152600401611bb79061396c565b60405180910390fd5b63bc197c8160e01b7bffffffffffffffffffffffffffffffffffffffffffffffffffffffff1916817bffffffffffffffffffffffffffffffffffffffffffffffffffffffff191614611c47576040517f08c379a0000000000000000000000000000000000000000000000000000000008152600401611c3e9061398c565b60405180910390fd5b505b505050505050565b600073ffffffffffffffffffffffffffffffffffffffff168373ffffffffffffffffffffffffffffffffffffffff161415611cc1576040517f08c379a0000000000000000000000000000000000000000000000000000000008152600401611cb890613a8c565b60405180910390fd5b6000611ccb6119c1565b9050611cfb81856000611cdd87612155565b611ce687612155565b604051806020016040528060008152506119c9565b611d7882604051806060016040528060248152602001613fa9602491396001600087815260200190815260200160002060008873ffffffffffffffffffffffffffffffffffffffff1673ffffffffffffffffffffffffffffffffffffffff168152602001908152602001600020546119d19092919063ffffffff16565b6001600085815260200190815260200160002060008673ffffffffffffffffffffffffffffffffffffffff1673ffffffffffffffffffffffffffffffffffffffff16815260200190815260200160002081905550600073ffffffffffffffffffffffffffffffffffffffff168473ffffffffffffffffffffffffffffffffffffffff168273ffffffffffffffffffffffffffffffffffffffff167fc3d58168c5ae7397731d063d5bbf3d657854427343f4c083240f7aacaa2d0f628686604051611e43929190613b47565b60405180910390a450505050565b600073ffffffffffffffffffffffffffffffffffffffff168373ffffffffffffffffffffffffffffffffffffffff161415611ec1576040517f08c379a0000000000000000000000000000000000000000000000000000000008152600401611eb890613a8c565b60405180910390fd5b8051825114611f05576040517f08c379a0000000000000000000000000000000000000000000000000000000008152600401611efc90613aec565b60405180910390fd5b6000611f0f6119c1565b9050611f2f818560008686604051806020016040528060008152506119c9565b60005b835181101561205257611fde838281518110611f4a57fe5b6020026020010151604051806060016040528060248152602001613fa96024913960016000888681518110611f7b57fe5b6020026020010151815260200190815260200160002060008973ffffffffffffffffffffffffffffffffffffffff1673ffffffffffffffffffffffffffffffffffffffff168152602001908152602001600020546119d19092919063ffffffff16565b60016000868481518110611fee57fe5b6020026020010151815260200190815260200160002060008773ffffffffffffffffffffffffffffffffffffffff1673ffffffffffffffffffffffffffffffffffffffff168152602001908152602001600020819055508080600101915050611f32565b50600073ffffffffffffffffffffffffffffffffffffffff168473ffffffffffffffffffffffffffffffffffffffff168273ffffffffffffffffffffffffffffffffffffffff167f4a39dc06d4c0dbc64b70af90fd698a233a518aa5d07e595d983b8c0526c8f7fb86866040516120ca929190613825565b60405180910390a450505050565b6000806004600081546001019190508190559050846005600083815260200190815260200160002060006101000a81548173ffffffffffffffffffffffffffffffffffffffff021916908373ffffffffffffffffffffffffffffffffffffffff16021790555061214a858286866123e0565b809150509392505050565b606080600167ffffffffffffffff8111801561217057600080fd5b5060405190808252806020026020018201604052801561219f5781602001602082028036833780820191505090505b50905082816000815181106121b057fe5b60200260200101818152505080915050919050565b6121e48473ffffffffffffffffffffffffffffffffffffffff16612395565b1561238d578373ffffffffffffffffffffffffffffffffffffffff1663f23a6e6187878686866040518663ffffffff1660e01b815260040161222a9594939291906137a9565b602060405180830381600087803b15801561224457600080fd5b505af192505050801561227557506040513d601f19601f820116820180604052508101906122729190612ea2565b60015b61230457612281613e7f565b8061228c57506122c9565b806040517f08c379a00000000000000000000000000000000000000000000000000000000081526004016122c0919061394a565b60405180910390fd5b6040517f08c379a00000000000000000000000000000000000000000000000000000000081526004016122fb9061396c565b60405180910390fd5b63f23a6e6160e01b7bffffffffffffffffffffffffffffffffffffffffffffffffffffffff1916817bffffffffffffffffffffffffffffffffffffffffffffffffffffffff19161461238b576040517f08c379a00000000000000000000000000000000000000000000000000000000081526004016123829061398c565b60405180910390fd5b505b505050505050565b60008060007fc5d2460186f7233c927e7db2dcc703c0e500b653ca82273b7bfad8045d85a47060001b9050833f91508082141580156123d757506000801b8214155b92505050919050565b600073ffffffffffffffffffffffffffffffffffffffff168473ffffffffffffffffffffffffffffffffffffffff161415612450576040517f08c379a000000000000000000000000000000000000000000000000000000000815260040161244790613b0c565b60405180910390fd5b600061245a6119c1565b905061247b8160008761246c88612155565b61247588612155565b876119c9565b6124de836001600087815260200190815260200160002060008873ffffffffffffffffffffffffffffffffffffffff1673ffffffffffffffffffffffffffffffffffffffff16815260200190815260200160002054611a2c90919063ffffffff16565b6001600086815260200190815260200160002060008773ffffffffffffffffffffffffffffffffffffffff1673ffffffffffffffffffffffffffffffffffffffff168152602001908152602001600020819055508473ffffffffffffffffffffffffffffffffffffffff16600073ffffffffffffffffffffffffffffffffffffffff168273ffffffffffffffffffffffffffffffffffffffff167fc3d58168c5ae7397731d063d5bbf3d657854427343f4c083240f7aacaa2d0f6287876040516125a9929190613b47565b60405180910390a46125c0816000878787876121c5565b5050505050565b604051806060016040528060008152602001600073ffffffffffffffffffffffffffffffffffffffff168152602001606081525090565b828054600181600116156101000203166002900490600052602060002090601f016020900481019282601f1061263f57805160ff191683800117855561266d565b8280016001018555821561266d579182015b8281111561266c578251825591602001919060010190612651565b5b50905061267a919061267e565b5090565b5b8082111561269757600081600090555060010161267f565b5090565b6000813590506126aa81613f35565b92915050565b600082601f8301126126c157600080fd5b81356126d46126cf82613beb565b613bbe565b915081818352602084019350602081019050838560208402820111156126f957600080fd5b60005b83811015612729578161270f888261269b565b8452602084019350602083019250506001810190506126fc565b5050505092915050565b60008083601f84011261274557600080fd5b8235905067ffffffffffffffff81111561275e57600080fd5b60208301915083602082028301111561277657600080fd5b9250929050565b600082601f83011261278e57600080fd5b81356127a161279c82613c13565b613bbe565b915081818352602084019350602081019050838560208402820111156127c657600080fd5b60005b838110156127f657816127dc88826128f2565b8452602084019350602083019250506001810190506127c9565b5050505092915050565b60008135905061280f81613f4c565b92915050565b60008135905061282481613f63565b92915050565b60008151905061283981613f63565b92915050565b60008083601f84011261285157600080fd5b8235905067ffffffffffffffff81111561286a57600080fd5b60208301915083600182028301111561288257600080fd5b9250929050565b600082601f83011261289a57600080fd5b81356128ad6128a882613c3b565b613bbe565b915080825260208301602083018583830111156128c957600080fd5b6128d4838284613e1f565b50505092915050565b6000813590506128ec81613f7a565b92915050565b60008135905061290181613f91565b92915050565b6000806040838503121561291a57600080fd5b60006129288582860161269b565b92505060206129398582860161269b565b9150509250929050565b60008060008060008060008060c0898b03121561295f57600080fd5b600061296d8b828c0161269b565b985050602061297e8b828c0161269b565b975050604089013567ffffffffffffffff81111561299b57600080fd5b6129a78b828c0161277d565b965050606089013567ffffffffffffffff8111156129c457600080fd5b6129d08b828c0161277d565b955050608089013567ffffffffffffffff8111156129ed57600080fd5b6129f98b828c0161283f565b945094505060a089013567ffffffffffffffff811115612a1857600080fd5b612a248b828c01612733565b92509250509295985092959890939650565b600080600080600060a08688031215612a4e57600080fd5b6000612a5c8882890161269b565b9550506020612a6d8882890161269b565b945050604086013567ffffffffffffffff811115612a8a57600080fd5b612a968882890161277d565b935050606086013567ffffffffffffffff811115612ab357600080fd5b612abf8882890161277d565b925050608086013567ffffffffffffffff811115612adc57600080fd5b612ae888828901612889565b9150509295509295909350565b60008060008060008060008060c0898b031215612b1157600080fd5b6000612b1f8b828c0161269b565b9850506020612b308b828c0161269b565b9750506040612b418b828c016128f2565b9650506060612b528b828c016128f2565b955050608089013567ffffffffffffffff811115612b6f57600080fd5b612b7b8b828c0161283f565b945094505060a089013567ffffffffffffffff811115612b9a57600080fd5b612ba68b828c0161283f565b92509250509295985092959890939650565b600080600080600060a08688031215612bd057600080fd5b6000612bde8882890161269b565b9550506020612bef8882890161269b565b9450506040612c00888289016128f2565b9350506060612c11888289016128f2565b925050608086013567ffffffffffffffff811115612c2e57600080fd5b612c3a88828901612889565b9150509295509295909350565b600080600060608486031215612c5c57600080fd5b6000612c6a8682870161269b565b935050602084013567ffffffffffffffff811115612c8757600080fd5b612c938682870161277d565b925050604084013567ffffffffffffffff811115612cb057600080fd5b612cbc8682870161277d565b9150509250925092565b60008060408385031215612cd957600080fd5b6000612ce78582860161269b565b9250506020612cf885828601612800565b9150509250929050565b600080600080600060808688031215612d1a57600080fd5b6000612d288882890161269b565b9550506020612d39888289016128dd565b9450506040612d4a888289016128f2565b935050606086013567ffffffffffffffff811115612d6757600080fd5b612d738882890161283f565b92509250509295509295909350565b60008060408385031215612d9557600080fd5b6000612da38582860161269b565b9250506020612db4858286016128f2565b9150509250929050565b600080600060608486031215612dd357600080fd5b6000612de18682870161269b565b9350506020612df2868287016128f2565b9250506040612e03868287016128f2565b9150509250925092565b60008060408385031215612e2057600080fd5b600083013567ffffffffffffffff811115612e3a57600080fd5b612e46858286016126b0565b925050602083013567ffffffffffffffff811115612e6357600080fd5b612e6f8582860161277d565b9150509250929050565b600060208284031215612e8b57600080fd5b6000612e9984828501612815565b91505092915050565b600060208284031215612eb457600080fd5b6000612ec28482850161282a565b91505092915050565b600060208284031215612edd57600080fd5b6000612eeb848285016128f2565b91505092915050565b6000612f0184848461308a565b90509392505050565b6000612f16838361311d565b60208301905092915050565b6000612f2e8383613708565b60208301905092915050565b612f4381613da1565b82525050565b6000612f558385613ce4565b935083602084028501612f6784613c67565b8060005b87811015612fad578484038952612f828284613d4a565b612f8d868284612ef4565b9550612f9884613cbd565b935060208b019a505050600181019050612f6b565b50829750879450505050509392505050565b6000612fca82613c91565b612fd48185613cf5565b9350612fdf83613c71565b8060005b83811015613010578151612ff78882612f0a565b975061300283613cca565b925050600181019050612fe3565b5085935050505092915050565b600061302882613c9c565b6130328185613d06565b935061303d83613c81565b8060005b8381101561306e5781516130558882612f22565b975061306083613cd7565b925050600181019050613041565b5085935050505092915050565b61308481613db3565b82525050565b60006130968385613d17565b93506130a3838584613e1f565b6130ac83613e61565b840190509392505050565b60006130c38385613d28565b93506130d0838584613e1f565b6130d983613e61565b840190509392505050565b60006130ef82613ca7565b6130f98185613d28565b9350613109818560208601613e2e565b61311281613e61565b840191505092915050565b61312681613deb565b82525050565b61313581613deb565b82525050565b600061314682613cb2565b6131508185613d39565b9350613160818560208601613e2e565b61316981613e61565b840191505092915050565b6000613181603483613d39565b91507f455243313135353a207472616e7366657220746f206e6f6e204552433131353560008301527f526563656976657220696d706c656d656e7465720000000000000000000000006020830152604082019050919050565b60006131e7602883613d39565b91507f455243313135353a204552433131353552656365697665722072656a6563746560008301527f6420746f6b656e730000000000000000000000000000000000000000000000006020830152604082019050919050565b600061324d604483613d39565b91507f7361666542617463685472616e73666572416e6443616e63656c474f3a20436160008301527f6e63656c2064617461206d75737420657175616c2063616e63656c207265717560208301527f65737473000000000000000000000000000000000000000000000000000000006040830152606082019050919050565b60006132d9602b83613d39565b91507f455243313135353a2062616c616e636520717565727920666f7220746865207a60008301527f65726f20616464726573730000000000000000000000000000000000000000006020830152604082019050919050565b600061333f603183613d39565b91507f455243313135353a2062617463682062616c616e636520717565727920666f7260008301527f20746865207a65726f20616464726573730000000000000000000000000000006020830152604082019050919050565b60006133a5601b83613d39565b91507f536166654d6174683a206164646974696f6e206f766572666c6f7700000000006000830152602082019050919050565b60006133e5602983613d39565b91507f455243313135353a2063616c6c6572206973206e6f74206f776e6572206e6f7260008301527f20617070726f76656400000000000000000000000000000000000000000000006020830152604082019050919050565b600061344b602583613d39565b91507f455243313135353a207472616e7366657220746f20746865207a65726f20616460008301527f64726573730000000000000000000000000000000000000000000000000000006020830152604082019050919050565b60006134b1603283613d39565b91507f455243313135353a207472616e736665722063616c6c6572206973206e6f742060008301527f6f776e6572206e6f7220617070726f76656400000000000000000000000000006020830152604082019050919050565b6000613517602383613d39565b91507f455243313135353a206275726e2066726f6d20746865207a65726f206164647260008301527f65737300000000000000000000000000000000000000000000000000000000006020830152604082019050919050565b600061357d602983613d39565b91507f455243313135353a2073657474696e6720617070726f76616c2073746174757360008301527f20666f722073656c6600000000000000000000000000000000000000000000006020830152604082019050919050565b60006135e3602983613d39565b91507f455243313135353a206163636f756e747320616e6420696473206c656e67746860008301527f206d69736d6174636800000000000000000000000000000000000000000000006020830152604082019050919050565b6000613649602883613d39565b91507f455243313135353a2069647320616e6420616d6f756e7473206c656e6774682060008301527f6d69736d617463680000000000000000000000000000000000000000000000006020830152604082019050919050565b60006136af602183613d39565b91507f455243313135353a206d696e7420746f20746865207a65726f2061646472657360008301527f73000000000000000000000000000000000000000000000000000000000000006020830152604082019050919050565b61371181613e15565b82525050565b61372081613e15565b82525050565b600060208201905061373b6000830184612f3a565b92915050565b600060a0820190506137566000830188612f3a565b6137636020830187612f3a565b8181036040830152613775818661301d565b90508181036060830152613789818561301d565b9050818103608083015261379d81846130e4565b90509695505050505050565b600060a0820190506137be6000830188612f3a565b6137cb6020830187612f3a565b6137d86040830186613717565b6137e56060830185613717565b81810360808301526137f781846130e4565b90509695505050505050565b6000602082019050818103600083015261381d818461301d565b905092915050565b6000604082019050818103600083015261383f818561301d565b90508181036020830152613853818461301d565b90509392505050565b60006080820190508181036000830152613876818861301d565b9050818103602083015261388a818761301d565b9050818103604083015261389e8186612fbf565b905081810360608301526138b3818486612f49565b90509695505050505050565b60006020820190506138d4600083018461307b565b92915050565b60006060820190506138ef600083018661312c565b6138fc6020830185612f3a565b818103604083015261390e81846130e4565b9050949350505050565b600060408201905061392d600083018661312c565b81810360208301526139408184866130b7565b9050949350505050565b60006020820190508181036000830152613964818461313b565b905092915050565b6000602082019050818103600083015261398581613174565b9050919050565b600060208201905081810360008301526139a5816131da565b9050919050565b600060208201905081810360008301526139c581613240565b9050919050565b600060208201905081810360008301526139e5816132cc565b9050919050565b60006020820190508181036000830152613a0581613332565b9050919050565b60006020820190508181036000830152613a2581613398565b9050919050565b60006020820190508181036000830152613a45816133d8565b9050919050565b60006020820190508181036000830152613a658161343e565b9050919050565b60006020820190508181036000830152613a85816134a4565b9050919050565b60006020820190508181036000830152613aa58161350a565b9050919050565b60006020820190508181036000830152613ac581613570565b9050919050565b60006020820190508181036000830152613ae5816135d6565b9050919050565b60006020820190508181036000830152613b058161363c565b9050919050565b60006020820190508181036000830152613b25816136a2565b9050919050565b6000602082019050613b416000830184613717565b92915050565b6000604082019050613b5c6000830185613717565b613b696020830184613717565b9392505050565b6000608082019050613b856000830188613717565b613b926020830187613717565b613b9f604083018661312c565b8181036060830152613bb28184866130b7565b90509695505050505050565b6000604051905081810181811067ffffffffffffffff82111715613be157600080fd5b8060405250919050565b600067ffffffffffffffff821115613c0257600080fd5b602082029050602081019050919050565b600067ffffffffffffffff821115613c2a57600080fd5b602082029050602081019050919050565b600067ffffffffffffffff821115613c5257600080fd5b601f19601f8301169050602081019050919050565b6000819050919050565b6000819050602082019050919050565b6000819050602082019050919050565b600081519050919050565b600081519050919050565b600081519050919050565b600081519050919050565b6000602082019050919050565b6000602082019050919050565b6000602082019050919050565b600082825260208201905092915050565b600082825260208201905092915050565b600082825260208201905092915050565b600082825260208201905092915050565b600082825260208201905092915050565b600082825260208201905092915050565b60008083356001602003843603038112613d6357600080fd5b83810192508235915060208301925067ffffffffffffffff821115613d8757600080fd5b600182023603841315613d9957600080fd5b509250929050565b6000613dac82613df5565b9050919050565b60008115159050919050565b60007fffffffff0000000000000000000000000000000000000000000000000000000082169050919050565b6000819050919050565b600073ffffffffffffffffffffffffffffffffffffffff82169050919050565b6000819050919050565b82818337600083830152505050565b60005b83811015613e4c578082015181840152602081019050613e31565b83811115613e5b576000848401525b50505050565b6000601f19601f8301169050919050565b60008160e01c9050919050565b600060443d1015613e8f57613f32565b60046000803e613ea0600051613e72565b6308c379a08114613eb15750613f32565b60405160043d036004823e80513d602482011167ffffffffffffffff82111715613edd57505050613f32565b808201805167ffffffffffffffff811115613efc575050505050613f32565b8060208301013d8501811115613f1757505050505050613f32565b613f2082613e61565b60208401016040528296505050505050505b90565b613f3e81613da1565b8114613f4957600080fd5b50565b613f5581613db3565b8114613f6057600080fd5b50565b613f6c81613dbf565b8114613f7757600080fd5b50565b613f8381613deb565b8114613f8e57600080fd5b50565b613f9a81613e15565b8114613fa557600080fd5b5056fe455243313135353a206275726e20616d6f756e7420657863656564732062616c616e6365455243313135353a20696e73756666696369656e742062616c616e636520666f72207472616e73666572a2646970667358221220c11cb2d067ffddfa173a298f94db4fdb78feeeb0bd5d24644b89880b40070db264736f6c63430007000033",
  "immutableReferences": {},
  "source": "// SPDX-License-Identifier: MIT\npragma solidity >=0.4.22 <0.9.0;\n\npragma experimental ABIEncoderV2;\n\nimport \"@openzeppelin/contracts/token/ERC1155/ERC1155Burnable.sol\";\n\ncontract GORegistry is ERC1155Burnable {\n\n    uint256 public tokenNonce;\n\n    mapping (uint256 => address) public certificateOwners;\n\n    mapping(uint256 => GOCertificate) public theGOStorage;\n    mapping(uint256 => mapping(address => uint256)) canceledGOs;\n\n    modifier onlyCertificateOwner(uint256 certId){\n        require(certificateOwners[certId] ==  msg.sender);\n        _;\n    }\n\n    event OneGOIssued(address indexed issuingBody, int256 certificateType, bytes data);\n    event OneGOCanceled(address indexed cancelIssuer, address indexed cancelClaimer, \n        uint256 tokenId, uint256 amount, int256 certificateType, bytes cancelData);\n    event BatchGOCanceled(address indexed cancelIssuer, address indexed cancelClaimer,\n        uint256[] tokenIds, uint256[] amounts, int256[] certificateTypes, bytes[] cancelData);\n\n    struct GOCertificate {\n        int256 certificateType;\n        address issuingBody;\n        bytes data;\n    }\n\n\n    constructor() ERC1155(\"GOCertificateDomain/{id}\") { } //example domain, to be changed lates\n\n    function issueGoOCertificate(\n            address to, int256 _certificateType, \n            uint256 amount, bytes calldata data) \n        external returns(uint256 _id){\n            uint256 tokenId = _generateGOToken(msg.sender, amount, data);\n            if(amount > 0){\n                safeTransferFrom(msg.sender, to, tokenId, amount, data);\n            }\n            theGOStorage[tokenId] = GOCertificate({\n                certificateType: _certificateType,\n                issuingBody: msg.sender,\n                data: data\n            });\n            emit OneGOIssued(msg.sender, _certificateType, data);\n            return tokenId;\n    }\n\n    function _generateGOToken(address certificateOwner, \n        uint256 initialSupply, bytes memory data) private returns(uint256 id){\n        uint256 certificateId = ++tokenNonce;\n        certificateOwners[certificateId] = certificateOwner; \n\n        super._mint(certificateOwner, certificateId, initialSupply, data);\n        return certificateId;\n    }\n\n\n    function safeTransferAndCancelGO(address from, address to, \n        uint256 tokenId, uint256 amount, bytes calldata data, bytes calldata cancelData) external {\n            GOCertificate memory go = theGOStorage[tokenId];\n\n            if(from != to){\n                super.safeTransferFrom(from, to, tokenId, amount, data);\n            }\n            super._burn(to, tokenId, amount);\n            emit OneGOCanceled(from, to, tokenId, amount, go.certificateType, cancelData);\n    }\n\n    function safeBatchTransferAndCancelGO(address from, address to, uint256[] memory tokenIds, \n       uint256[] memory tokenAmounts,  bytes calldata data, bytes[] calldata cancelData) external \n    {\n        uint cancelRequests = tokenIds.length;\n        require(cancelData.length == cancelRequests, \n            \"safeBatchTransferAndCancelGO: Cancel data must equal cancel requests\");\n        \n        int256[] memory certificateTypes = new int256[](cancelRequests);\n        for(uint256 i = 0; i < cancelRequests; i++){\n            GOCertificate memory go = theGOStorage[tokenIds[i]];\n            certificateTypes[i] = go.certificateType;\n        }\n\n        if(from != to){\n            super.safeBatchTransferFrom(from, to, tokenIds, tokenAmounts, data);\n        }\n        super._burnBatch(to, tokenIds, tokenAmounts);\n        emit BatchGOCanceled(from, to, tokenIds, tokenAmounts, certificateTypes, cancelData);\n    }\n\n}\n\n\n",
  "sourcePath": "/home/tyrx/projects/GoO-bl/contracts/GORegistry.sol",
  "compiler": {
    "name": "solc",
    "version": "0.7.0+commit.9e61f92b.Emscripten.clang"
  },
  "schemaVersion": "3.3.3",
  "updatedAt": "2021-01-25T15:16:43.983Z",
  "devdoc": {
    "kind": "dev",
    "methods": {
      "balanceOf(address,uint256)": {
        "details": "See {IERC1155-balanceOf}. Requirements: - `account` cannot be the zero address."
      },
      "balanceOfBatch(address[],uint256[])": {
        "details": "See {IERC1155-balanceOfBatch}. Requirements: - `accounts` and `ids` must have the same length."
      },
      "isApprovedForAll(address,address)": {
        "details": "See {IERC1155-isApprovedForAll}."
      },
      "safeBatchTransferFrom(address,address,uint256[],uint256[],bytes)": {
        "details": "See {IERC1155-safeBatchTransferFrom}."
      },
      "safeTransferFrom(address,address,uint256,uint256,bytes)": {
        "details": "See {IERC1155-safeTransferFrom}."
      },
      "setApprovalForAll(address,bool)": {
        "details": "See {IERC1155-setApprovalForAll}."
      },
      "supportsInterface(bytes4)": {
        "details": "See {IERC165-supportsInterface}. Time complexity O(1), guaranteed to always use less than 30 000 gas."
      },
      "uri(uint256)": {
        "details": "See {IERC1155MetadataURI-uri}. This implementation returns the same URI for *all* token types. It relies on the token type ID substituion mechanism https://eips.ethereum.org/EIPS/eip-1155#metadata[defined in the EIP]. Clients calling this function must replace the `\\{id\\}` substring with the actual token type ID."
      }
    },
    "version": 1
  },
  "userdoc": {
    "kind": "user",
    "methods": {},
    "version": 1
  }
}