{
  "contractName": "GORegistry",
  "abi": [
    {
      "inputs": [],
      "stateMutability": "nonpayable",
      "type": "constructor"
    },
    {
      "anonymous": false,
      "inputs": [
        {
          "indexed": true,
          "internalType": "address",
          "name": "account",
          "type": "address"
        },
        {
          "indexed": true,
          "internalType": "address",
          "name": "operator",
          "type": "address"
        },
        {
          "indexed": false,
          "internalType": "bool",
          "name": "approved",
          "type": "bool"
        }
      ],
      "name": "ApprovalForAll",
      "type": "event"
    },
    {
      "anonymous": false,
      "inputs": [
        {
          "indexed": true,
          "internalType": "address",
          "name": "cancelIssuer",
          "type": "address"
        },
        {
          "indexed": true,
          "internalType": "address",
          "name": "cancelClaimer",
          "type": "address"
        },
        {
          "indexed": false,
          "internalType": "uint256[]",
          "name": "tokenIds",
          "type": "uint256[]"
        },
        {
          "indexed": false,
          "internalType": "uint256[]",
          "name": "amounts",
          "type": "uint256[]"
        },
        {
          "indexed": false,
          "internalType": "int256[]",
          "name": "certificateTypes",
          "type": "int256[]"
        },
        {
          "indexed": false,
          "internalType": "bytes[]",
          "name": "cancelData",
          "type": "bytes[]"
        }
      ],
      "name": "BatchGOCanceled",
      "type": "event"
    },
    {
      "anonymous": false,
      "inputs": [
        {
          "indexed": false,
          "internalType": "address",
          "name": "issuer",
          "type": "address"
        }
      ],
      "name": "IssuingBodyAdded",
      "type": "event"
    },
    {
      "anonymous": false,
      "inputs": [
        {
          "indexed": false,
          "internalType": "address",
          "name": "issuer",
          "type": "address"
        }
      ],
      "name": "IssuingBodyRemoved",
      "type": "event"
    },
    {
      "anonymous": false,
      "inputs": [
        {
          "indexed": true,
          "internalType": "address",
          "name": "cancelIssuer",
          "type": "address"
        },
        {
          "indexed": true,
          "internalType": "address",
          "name": "cancelClaimer",
          "type": "address"
        },
        {
          "indexed": false,
          "internalType": "uint256",
          "name": "tokenId",
          "type": "uint256"
        },
        {
          "indexed": false,
          "internalType": "uint256",
          "name": "amount",
          "type": "uint256"
        },
        {
          "indexed": false,
          "internalType": "int256",
          "name": "certificateType",
          "type": "int256"
        },
        {
          "indexed": false,
          "internalType": "bytes",
          "name": "cancelData",
          "type": "bytes"
        }
      ],
      "name": "OneGOCanceled",
      "type": "event"
    },
    {
      "anonymous": false,
      "inputs": [
        {
          "indexed": true,
          "internalType": "address",
          "name": "issuingBody",
          "type": "address"
        },
        {
          "indexed": false,
          "internalType": "uint256",
          "name": "amount",
          "type": "uint256"
        },
        {
          "indexed": false,
          "internalType": "int256",
          "name": "certificateType",
          "type": "int256"
        },
        {
          "indexed": false,
          "internalType": "bytes",
          "name": "data",
          "type": "bytes"
        }
      ],
      "name": "OneGOIssued",
      "type": "event"
    },
    {
      "anonymous": false,
      "inputs": [
        {
          "indexed": true,
          "internalType": "address",
          "name": "previousOwner",
          "type": "address"
        },
        {
          "indexed": true,
          "internalType": "address",
          "name": "newOwner",
          "type": "address"
        }
      ],
      "name": "OwnershipTransferred",
      "type": "event"
    },
    {
      "anonymous": false,
      "inputs": [
        {
          "indexed": true,
          "internalType": "address",
          "name": "operator",
          "type": "address"
        },
        {
          "indexed": true,
          "internalType": "address",
          "name": "from",
          "type": "address"
        },
        {
          "indexed": true,
          "internalType": "address",
          "name": "to",
          "type": "address"
        },
        {
          "indexed": false,
          "internalType": "uint256[]",
          "name": "ids",
          "type": "uint256[]"
        },
        {
          "indexed": false,
          "internalType": "uint256[]",
          "name": "values",
          "type": "uint256[]"
        }
      ],
      "name": "TransferBatch",
      "type": "event"
    },
    {
      "anonymous": false,
      "inputs": [
        {
          "indexed": true,
          "internalType": "address",
          "name": "operator",
          "type": "address"
        },
        {
          "indexed": true,
          "internalType": "address",
          "name": "from",
          "type": "address"
        },
        {
          "indexed": true,
          "internalType": "address",
          "name": "to",
          "type": "address"
        },
        {
          "indexed": false,
          "internalType": "uint256",
          "name": "id",
          "type": "uint256"
        },
        {
          "indexed": false,
          "internalType": "uint256",
          "name": "value",
          "type": "uint256"
        }
      ],
      "name": "TransferSingle",
      "type": "event"
    },
    {
      "anonymous": false,
      "inputs": [
        {
          "indexed": false,
          "internalType": "string",
          "name": "value",
          "type": "string"
        },
        {
          "indexed": true,
          "internalType": "uint256",
          "name": "id",
          "type": "uint256"
        }
      ],
      "name": "URI",
      "type": "event"
    },
    {
      "inputs": [
        {
          "internalType": "address",
          "name": "account",
          "type": "address"
        },
        {
          "internalType": "uint256",
          "name": "id",
          "type": "uint256"
        }
      ],
      "name": "balanceOf",
      "outputs": [
        {
          "internalType": "uint256",
          "name": "",
          "type": "uint256"
        }
      ],
      "stateMutability": "view",
      "type": "function"
    },
    {
      "inputs": [
        {
          "internalType": "address[]",
          "name": "accounts",
          "type": "address[]"
        },
        {
          "internalType": "uint256[]",
          "name": "ids",
          "type": "uint256[]"
        }
      ],
      "name": "balanceOfBatch",
      "outputs": [
        {
          "internalType": "uint256[]",
          "name": "",
          "type": "uint256[]"
        }
      ],
      "stateMutability": "view",
      "type": "function"
    },
    {
      "inputs": [
        {
          "internalType": "address",
          "name": "account",
          "type": "address"
        },
        {
          "internalType": "uint256",
          "name": "id",
          "type": "uint256"
        },
        {
          "internalType": "uint256",
          "name": "value",
          "type": "uint256"
        }
      ],
      "name": "burn",
      "outputs": [],
      "stateMutability": "nonpayable",
      "type": "function"
    },
    {
      "inputs": [
        {
          "internalType": "address",
          "name": "account",
          "type": "address"
        },
        {
          "internalType": "uint256[]",
          "name": "ids",
          "type": "uint256[]"
        },
        {
          "internalType": "uint256[]",
          "name": "values",
          "type": "uint256[]"
        }
      ],
      "name": "burnBatch",
      "outputs": [],
      "stateMutability": "nonpayable",
      "type": "function"
    },
    {
      "inputs": [
        {
          "internalType": "uint256",
          "name": "",
          "type": "uint256"
        },
        {
          "internalType": "address",
          "name": "",
          "type": "address"
        }
      ],
      "name": "canceledGOs",
      "outputs": [
        {
          "internalType": "uint256",
          "name": "",
          "type": "uint256"
        }
      ],
      "stateMutability": "view",
      "type": "function"
    },
    {
      "inputs": [
        {
          "internalType": "uint256",
          "name": "",
          "type": "uint256"
        }
      ],
      "name": "certificateIssuers",
      "outputs": [
        {
          "internalType": "address",
          "name": "",
          "type": "address"
        }
      ],
      "stateMutability": "view",
      "type": "function"
    },
    {
      "inputs": [
        {
          "internalType": "address",
          "name": "",
          "type": "address"
        }
      ],
      "name": "certifiedIssuers",
      "outputs": [
        {
          "internalType": "bool",
          "name": "",
          "type": "bool"
        }
      ],
      "stateMutability": "view",
      "type": "function"
    },
    {
      "inputs": [
        {
          "internalType": "address",
          "name": "account",
          "type": "address"
        },
        {
          "internalType": "address",
          "name": "operator",
          "type": "address"
        }
      ],
      "name": "isApprovedForAll",
      "outputs": [
        {
          "internalType": "bool",
          "name": "",
          "type": "bool"
        }
      ],
      "stateMutability": "view",
      "type": "function"
    },
    {
      "inputs": [],
      "name": "owner",
      "outputs": [
        {
          "internalType": "address",
          "name": "",
          "type": "address"
        }
      ],
      "stateMutability": "view",
      "type": "function"
    },
    {
      "inputs": [],
      "name": "renounceOwnership",
      "outputs": [],
      "stateMutability": "nonpayable",
      "type": "function"
    },
    {
      "inputs": [
        {
          "internalType": "address",
          "name": "from",
          "type": "address"
        },
        {
          "internalType": "address",
          "name": "to",
          "type": "address"
        },
        {
          "internalType": "uint256[]",
          "name": "ids",
          "type": "uint256[]"
        },
        {
          "internalType": "uint256[]",
          "name": "amounts",
          "type": "uint256[]"
        },
        {
          "internalType": "bytes",
          "name": "data",
          "type": "bytes"
        }
      ],
      "name": "safeBatchTransferFrom",
      "outputs": [],
      "stateMutability": "nonpayable",
      "type": "function"
    },
    {
      "inputs": [
        {
          "internalType": "address",
          "name": "from",
          "type": "address"
        },
        {
          "internalType": "address",
          "name": "to",
          "type": "address"
        },
        {
          "internalType": "uint256",
          "name": "id",
          "type": "uint256"
        },
        {
          "internalType": "uint256",
          "name": "amount",
          "type": "uint256"
        },
        {
          "internalType": "bytes",
          "name": "data",
          "type": "bytes"
        }
      ],
      "name": "safeTransferFrom",
      "outputs": [],
      "stateMutability": "nonpayable",
      "type": "function"
    },
    {
      "inputs": [
        {
          "internalType": "address",
          "name": "operator",
          "type": "address"
        },
        {
          "internalType": "bool",
          "name": "approved",
          "type": "bool"
        }
      ],
      "name": "setApprovalForAll",
      "outputs": [],
      "stateMutability": "nonpayable",
      "type": "function"
    },
    {
      "inputs": [
        {
          "internalType": "bytes4",
          "name": "interfaceId",
          "type": "bytes4"
        }
      ],
      "name": "supportsInterface",
      "outputs": [
        {
          "internalType": "bool",
          "name": "",
          "type": "bool"
        }
      ],
      "stateMutability": "view",
      "type": "function"
    },
    {
      "inputs": [
        {
          "internalType": "uint256",
          "name": "",
          "type": "uint256"
        }
      ],
      "name": "theGOStorage",
      "outputs": [
        {
          "internalType": "int256",
          "name": "certificateType",
          "type": "int256"
        },
        {
          "internalType": "address",
          "name": "issuingBody",
          "type": "address"
        },
        {
          "internalType": "bytes",
          "name": "data",
          "type": "bytes"
        },
        {
          "internalType": "bytes",
          "name": "validationFunction",
          "type": "bytes"
        }
      ],
      "stateMutability": "view",
      "type": "function"
    },
    {
      "inputs": [],
      "name": "tokenNonce",
      "outputs": [
        {
          "internalType": "uint256",
          "name": "",
          "type": "uint256"
        }
      ],
      "stateMutability": "view",
      "type": "function"
    },
    {
      "inputs": [
        {
          "internalType": "address",
          "name": "newOwner",
          "type": "address"
        }
      ],
      "name": "transferOwnership",
      "outputs": [],
      "stateMutability": "nonpayable",
      "type": "function"
    },
    {
      "inputs": [
        {
          "internalType": "uint256",
          "name": "",
          "type": "uint256"
        }
      ],
      "name": "uri",
      "outputs": [
        {
          "internalType": "string",
          "name": "",
          "type": "string"
        }
      ],
      "stateMutability": "view",
      "type": "function"
    },
    {
      "inputs": [
        {
          "internalType": "address",
          "name": "",
          "type": "address"
        }
      ],
      "name": "userToIssuingBody",
      "outputs": [
        {
          "internalType": "address",
          "name": "",
          "type": "address"
        }
      ],
      "stateMutability": "view",
      "type": "function"
    },
    {
      "inputs": [
        {
          "internalType": "address",
          "name": "to",
          "type": "address"
        },
        {
          "internalType": "int256",
          "name": "_certificateType",
          "type": "int256"
        },
        {
          "internalType": "uint256",
          "name": "amount",
          "type": "uint256"
        },
        {
          "internalType": "bytes",
          "name": "data",
          "type": "bytes"
        },
        {
          "internalType": "bytes",
          "name": "validationFunc",
          "type": "bytes"
        }
      ],
      "name": "issueGOCertificate",
      "outputs": [
        {
          "internalType": "uint256",
          "name": "_id",
          "type": "uint256"
        }
      ],
      "stateMutability": "nonpayable",
      "type": "function"
    },
    {
      "inputs": [
        {
          "internalType": "address",
          "name": "from",
          "type": "address"
        },
        {
          "internalType": "address",
          "name": "to",
          "type": "address"
        },
        {
          "internalType": "uint256",
          "name": "tokenId",
          "type": "uint256"
        },
        {
          "internalType": "uint256",
          "name": "amount",
          "type": "uint256"
        },
        {
          "internalType": "bytes",
          "name": "data",
          "type": "bytes"
        },
        {
          "internalType": "bytes",
          "name": "cancelData",
          "type": "bytes"
        }
      ],
      "name": "safeTransferAndCancelGO",
      "outputs": [],
      "stateMutability": "nonpayable",
      "type": "function"
    },
    {
      "inputs": [
        {
          "internalType": "address",
          "name": "from",
          "type": "address"
        },
        {
          "internalType": "address",
          "name": "to",
          "type": "address"
        },
        {
          "internalType": "uint256[]",
          "name": "tokenIds",
          "type": "uint256[]"
        },
        {
          "internalType": "uint256[]",
          "name": "tokenAmounts",
          "type": "uint256[]"
        },
        {
          "internalType": "bytes",
          "name": "data",
          "type": "bytes"
        },
        {
          "internalType": "bytes[]",
          "name": "cancelData",
          "type": "bytes[]"
        }
      ],
      "name": "safeBatchTransferAndCancelGO",
      "outputs": [],
      "stateMutability": "nonpayable",
      "type": "function"
    },
    {
      "inputs": [
        {
          "internalType": "address",
          "name": "issuer",
          "type": "address"
        }
      ],
      "name": "addCertifiedIssuer",
      "outputs": [],
      "stateMutability": "nonpayable",
      "type": "function"
    },
    {
      "inputs": [
        {
          "internalType": "address",
          "name": "issuer",
          "type": "address"
        }
      ],
      "name": "removeCertifiedIssuer",
      "outputs": [],
      "stateMutability": "nonpayable",
      "type": "function"
    },
    {
      "inputs": [
        {
          "internalType": "address",
          "name": "issuingBody",
          "type": "address"
        }
      ],
      "name": "registerForIssuingBody",
      "outputs": [],
      "stateMutability": "nonpayable",
      "type": "function"
    }
  ],
  "bytecode": "0x60806040523480156200001157600080fd5b506040518060400160405280601881526020017f474f4365727469666963617465446f6d61696e2f7b69647d0000000000000000815250620000606301ffc9a760e01b6200015960201b60201c565b62000071816200023160201b60201c565b6200008963d9b67a2660e01b6200015960201b60201c565b620000a1630e89341c60e01b6200015960201b60201c565b506000620000b46200024d60201b60201c565b905080600460006101000a81548173ffffffffffffffffffffffffffffffffffffffff021916908373ffffffffffffffffffffffffffffffffffffffff1602179055508073ffffffffffffffffffffffffffffffffffffffff16600073ffffffffffffffffffffffffffffffffffffffff167f8be0079c531659141344cd1fd0a4f28419497f9722a3daafe3b4186f6b6457e060405160405180910390a35062000370565b63ffffffff60e01b817bffffffffffffffffffffffffffffffffffffffffffffffffffffffff19161415620001c5576040517f08c379a0000000000000000000000000000000000000000000000000000000008152600401620001bc906200033d565b60405180910390fd5b6001600080837bffffffffffffffffffffffffffffffffffffffffffffffffffffffff19167bffffffffffffffffffffffffffffffffffffffffffffffffffffffff1916815260200190815260200160002060006101000a81548160ff02191690831515021790555050565b80600390805190602001906200024992919062000255565b5050565b600033905090565b828054600181600116156101000203166002900490600052602060002090601f016020900481019282601f106200029857805160ff1916838001178555620002c9565b82800160010185558215620002c9579182015b82811115620002c8578251825591602001919060010190620002ab565b5b509050620002d89190620002dc565b5090565b5b80821115620002f7576000816000905550600101620002dd565b5090565b60006200030a601c836200035f565b91507f4552433136353a20696e76616c696420696e74657266616365206964000000006000830152602082019050919050565b600060208201905081810360008301526200035881620002fb565b9050919050565b600082825260208201905092915050565b61593580620003806000396000f3fe608060405234801561001057600080fd5b50600436106101725760003560e01c8063715018a6116100de578063a22cb46511610097578063e985e9c511610071578063e985e9c514610480578063f242432a146104b0578063f2fde38b146104cc578063f5298aca146104e857610172565b8063a22cb46514610404578063bf01dbdb14610420578063dee2c0b01461045057610172565b8063715018a6146103565780637210f2871461036057806388125a69146103905780638da5cb5b146103ac57806390f71b44146103ca578063966123a5146103e857610172565b80632eb2c2d6116101305780632eb2c2d6146102835780634776a0d01461029f5780634839f888146102bb5780634e1273f4146102d75780636a45da2c146103075780636b20c4541461033a57610172565b8062fdd58e1461017757806301ffc9a7146101a75780630e89341c146101d75780631ad8b13b146102075780631d1c367f146102375780632d4568e714610267575b600080fd5b610191600480360381019061018c91906140d4565b610504565b60405161019e91906153ea565b60405180910390f35b6101c160048036038101906101bc91906141f4565b6105ce565b6040516101ce919061507a565b60405180910390f35b6101f160048036038101906101ec9190614246565b610635565b6040516101fe91906150e8565b60405180910390f35b610221600480360381019061021c9190613c00565b6106d9565b60405161022e919061507a565b60405180910390f35b610251600480360381019061024c9190614246565b6106f9565b60405161025e9190614ee1565b60405180910390f35b610281600480360381019061027c9190613c00565b61072c565b005b61029d60048036038101906102989190613d58565b6108c5565b005b6102b960048036038101906102b49190613e17565b610c86565b005b6102d560048036038101906102d09190613c00565b6110b9565b005b6102f160048036038101906102ec919061415f565b611252565b6040516102fe9190614fbe565b60405180910390f35b610321600480360381019061031c9190614246565b611418565b6040516103319493929190615095565b60405180910390f35b610354600480360381019061034f9190613f69565b611598565b005b61035e611635565b005b61037a60048036038101906103759190614024565b61178d565b60405161038791906153ea565b60405180910390f35b6103aa60048036038101906103a59190613c00565b611ae3565b005b6103b4611b64565b6040516103c19190614ee1565b60405180910390f35b6103d2611b8e565b6040516103df91906153ea565b60405180910390f35b61040260048036038101906103fd9190613c65565b611b94565b005b61041e60048036038101906104199190613fe8565b6120cb565b005b61043a6004803603810190610435919061426f565b61224c565b60405161044791906153ea565b60405180910390f35b61046a60048036038101906104659190613c00565b612271565b6040516104779190614ee1565b60405180910390f35b61049a60048036038101906104959190613c29565b6122a4565b6040516104a7919061507a565b60405180910390f35b6104ca60048036038101906104c59190613eda565b612338565b005b6104e660048036038101906104e19190613c00565b61267b565b005b61050260048036038101906104fd9190614110565b612842565b005b60008073ffffffffffffffffffffffffffffffffffffffff168373ffffffffffffffffffffffffffffffffffffffff161415610575576040517f08c379a000000000000000000000000000000000000000000000000000000000815260040161056c9061518a565b60405180910390fd5b6001600083815260200190815260200160002060008473ffffffffffffffffffffffffffffffffffffffff1673ffffffffffffffffffffffffffffffffffffffff16815260200190815260200160002054905092915050565b6000806000837bffffffffffffffffffffffffffffffffffffffffffffffffffffffff19167bffffffffffffffffffffffffffffffffffffffffffffffffffffffff1916815260200190815260200160002060009054906101000a900460ff169050919050565b606060038054600181600116156101000203166002900480601f0160208091040260200160405190810160405280929190818152602001828054600181600116156101000203166002900480156106cd5780601f106106a2576101008083540402835291602001916106cd565b820191906000526020600020905b8154815290600101906020018083116106b057829003601f168201915b50505050509050919050565b60096020528060005260406000206000915054906101000a900460ff1681565b60066020528060005260406000206000915054906101000a900473ffffffffffffffffffffffffffffffffffffffff1681565b6107346128df565b73ffffffffffffffffffffffffffffffffffffffff16600460009054906101000a900473ffffffffffffffffffffffffffffffffffffffff1673ffffffffffffffffffffffffffffffffffffffff16146107c3576040517f08c379a00000000000000000000000000000000000000000000000000000000081526004016107ba906152ea565b60405180910390fd5b600073ffffffffffffffffffffffffffffffffffffffff168173ffffffffffffffffffffffffffffffffffffffff161415610833576040517f08c379a000000000000000000000000000000000000000000000000000000000815260040161082a906153ca565b60405180910390fd5b6001600960008373ffffffffffffffffffffffffffffffffffffffff1673ffffffffffffffffffffffffffffffffffffffff16815260200190815260200160002060006101000a81548160ff0219169083151502179055507fa1c1bb3ed462b642c5d30550f566d9f267e84cbcc3b38f7718069df14a82d778816040516108ba9190614ee1565b60405180910390a150565b8151835114610909576040517f08c379a00000000000000000000000000000000000000000000000000000000081526004016109009061538a565b60405180910390fd5b600073ffffffffffffffffffffffffffffffffffffffff168473ffffffffffffffffffffffffffffffffffffffff161415610979576040517f08c379a00000000000000000000000000000000000000000000000000000000081526004016109709061526a565b60405180910390fd5b6109816128df565b73ffffffffffffffffffffffffffffffffffffffff168573ffffffffffffffffffffffffffffffffffffffff1614806109c757506109c6856109c16128df565b6122a4565b5b610a06576040517f08c379a00000000000000000000000000000000000000000000000000000000081526004016109fd9061528a565b60405180910390fd5b6000610a106128df565b9050610a208187878787876128e7565b60005b8451811015610bf1576000858281518110610a3a57fe5b602002602001015190506000858381518110610a5257fe5b60200260200101519050610ad9816040518060600160405280602a81526020016158d6602a91396001600086815260200190815260200160002060008d73ffffffffffffffffffffffffffffffffffffffff1673ffffffffffffffffffffffffffffffffffffffff168152602001908152602001600020546129bd9092919063ffffffff16565b6001600084815260200190815260200160002060008b73ffffffffffffffffffffffffffffffffffffffff1673ffffffffffffffffffffffffffffffffffffffff16815260200190815260200160002081905550610b90816001600085815260200190815260200160002060008b73ffffffffffffffffffffffffffffffffffffffff1673ffffffffffffffffffffffffffffffffffffffff16815260200190815260200160002054612a1890919063ffffffff16565b6001600084815260200190815260200160002060008a73ffffffffffffffffffffffffffffffffffffffff1673ffffffffffffffffffffffffffffffffffffffff168152602001908152602001600020819055505050806001019050610a23565b508473ffffffffffffffffffffffffffffffffffffffff168673ffffffffffffffffffffffffffffffffffffffff168273ffffffffffffffffffffffffffffffffffffffff167f4a39dc06d4c0dbc64b70af90fd698a233a518aa5d07e595d983b8c0526c8f7fb8787604051610c68929190614fe0565b60405180910390a4610c7e818787878787612a6d565b505050505050565b610c8e6138a4565b60076000888152602001908152602001600020604051806080016040529081600082015481526020016001820160009054906101000a900473ffffffffffffffffffffffffffffffffffffffff1673ffffffffffffffffffffffffffffffffffffffff1673ffffffffffffffffffffffffffffffffffffffff168152602001600282018054600181600116156101000203166002900480601f016020809104026020016040519081016040528092919081815260200182805460018160011615610100020316600290048015610da55780601f10610d7a57610100808354040283529160200191610da5565b820191906000526020600020905b815481529060010190602001808311610d8857829003601f168201915b50505050508152602001600382018054600181600116156101000203166002900480601f016020809104026020016040519081016040528092919081815260200182805460018160011615610100020316600290048015610e475780601f10610e1c57610100808354040283529160200191610e47565b820191906000526020600020905b815481529060010190602001808311610e2a57829003601f168201915b5050505050815250509050610e6481602001518260600151612c3d565b8773ffffffffffffffffffffffffffffffffffffffff168973ffffffffffffffffffffffffffffffffffffffff1614610eed57610ee88989898989898080601f016020809104026020016040519081016040528093929190818152602001838380828437600081840152601f19601f82011690508083019250505050505050612338565b610f7b565b610ef56128df565b73ffffffffffffffffffffffffffffffffffffffff168973ffffffffffffffffffffffffffffffffffffffff161480610f3b5750610f3a89610f356128df565b6122a4565b5b610f7a576040517f08c379a0000000000000000000000000000000000000000000000000000000008152600401610f719061520a565b60405180910390fd5b5b610f86888888612d1c565b610fe986600860008a815260200190815260200160002060008b73ffffffffffffffffffffffffffffffffffffffff1673ffffffffffffffffffffffffffffffffffffffff16815260200190815260200160002054612a1890919063ffffffff16565b6008600089815260200190815260200160002060008a73ffffffffffffffffffffffffffffffffffffffff1673ffffffffffffffffffffffffffffffffffffffff168152602001908152602001600020819055508773ffffffffffffffffffffffffffffffffffffffff168973ffffffffffffffffffffffffffffffffffffffff167f4f2004d0e230447d378ebe736da53bfaf73a8ccd5921fb49a215d027592602f48989856000015188886040516110a695949392919061546e565b60405180910390a3505050505050505050565b6110c16128df565b73ffffffffffffffffffffffffffffffffffffffff16600460009054906101000a900473ffffffffffffffffffffffffffffffffffffffff1673ffffffffffffffffffffffffffffffffffffffff1614611150576040517f08c379a0000000000000000000000000000000000000000000000000000000008152600401611147906152ea565b60405180910390fd5b600073ffffffffffffffffffffffffffffffffffffffff168173ffffffffffffffffffffffffffffffffffffffff1614156111c0576040517f08c379a00000000000000000000000000000000000000000000000000000000081526004016111b79061530a565b60405180910390fd5b6000600960008373ffffffffffffffffffffffffffffffffffffffff1673ffffffffffffffffffffffffffffffffffffffff16815260200190815260200160002060006101000a81548160ff0219169083151502179055507fb986caa98fc7e57839781bde0729a55c2bf9018e4862dcc868af399d27ece6ee816040516112479190614ee1565b60405180910390a150565b60608151835114611298576040517f08c379a000000000000000000000000000000000000000000000000000000000815260040161128f9061536a565b60405180910390fd5b6060835167ffffffffffffffff811180156112b257600080fd5b506040519080825280602002602001820160405280156112e15781602001602082028036833780820191505090505b50905060005b845181101561140d57600073ffffffffffffffffffffffffffffffffffffffff1685828151811061131457fe5b602002602001015173ffffffffffffffffffffffffffffffffffffffff161415611373576040517f08c379a000000000000000000000000000000000000000000000000000000000815260040161136a906151aa565b60405180910390fd5b6001600085838151811061138357fe5b6020026020010151815260200190815260200160002060008683815181106113a757fe5b602002602001015173ffffffffffffffffffffffffffffffffffffffff1673ffffffffffffffffffffffffffffffffffffffff168152602001908152602001600020548282815181106113f657fe5b6020026020010181815250508060010190506112e7565b508091505092915050565b60076020528060005260406000206000915090508060000154908060010160009054906101000a900473ffffffffffffffffffffffffffffffffffffffff1690806002018054600181600116156101000203166002900480601f0160208091040260200160405190810160405280929190818152602001828054600181600116156101000203166002900480156114f05780601f106114c5576101008083540402835291602001916114f0565b820191906000526020600020905b8154815290600101906020018083116114d357829003601f168201915b505050505090806003018054600181600116156101000203166002900480601f01602080910402602001604051908101604052809291908181526020018280546001816001161561010002031660029004801561158e5780601f106115635761010080835404028352916020019161158e565b820191906000526020600020905b81548152906001019060200180831161157157829003601f168201915b5050505050905084565b6115a06128df565b73ffffffffffffffffffffffffffffffffffffffff168373ffffffffffffffffffffffffffffffffffffffff1614806115e657506115e5836115e06128df565b6122a4565b5b611625576040517f08c379a000000000000000000000000000000000000000000000000000000000815260040161161c9061520a565b60405180910390fd5b611630838383612f1c565b505050565b61163d6128df565b73ffffffffffffffffffffffffffffffffffffffff16600460009054906101000a900473ffffffffffffffffffffffffffffffffffffffff1673ffffffffffffffffffffffffffffffffffffffff16146116cc576040517f08c379a00000000000000000000000000000000000000000000000000000000081526004016116c3906152ea565b60405180910390fd5b600073ffffffffffffffffffffffffffffffffffffffff16600460009054906101000a900473ffffffffffffffffffffffffffffffffffffffff1673ffffffffffffffffffffffffffffffffffffffff167f8be0079c531659141344cd1fd0a4f28419497f9722a3daafe3b4186f6b6457e060405160405180910390a36000600460006101000a81548173ffffffffffffffffffffffffffffffffffffffff021916908373ffffffffffffffffffffffffffffffffffffffff160217905550565b60003360011515600960008373ffffffffffffffffffffffffffffffffffffffff1673ffffffffffffffffffffffffffffffffffffffff16815260200190815260200160002060009054906101000a900460ff16151514611823576040517f08c379a000000000000000000000000000000000000000000000000000000000815260040161181a9061532a565b60405180910390fd5b6118713385858080601f016020809104026020016040519081016040528093929190818152602001838380828437600081840152601f19601f82011690508083019250505050505050612c3d565b60006118c2338989898080601f016020809104026020016040519081016040528093929190818152602001838380828437600081840152601f19601f820116905080830192505050505050506131a3565b9050600088111561191f5761191e338b838b8b8b8080601f016020809104026020016040519081016040528093929190818152602001838380828437600081840152601f19601f82011690508083019250505050505050612338565b5b60405180608001604052808a81526020013373ffffffffffffffffffffffffffffffffffffffff16815260200188888080601f016020809104026020016040519081016040528093929190818152602001838380828437600081840152601f19601f82011690508083019250505050505050815260200186868080601f016020809104026020016040519081016040528093929190818152602001838380828437600081840152601f19601f82011690508083019250505050505050815250600760008381526020019081526020016000206000820151816000015560208201518160010160006101000a81548173ffffffffffffffffffffffffffffffffffffffff021916908373ffffffffffffffffffffffffffffffffffffffff1602179055506040820151816002019080519060200190611a5e9291906138e2565b506060820151816003019080519060200190611a7b9291906138e2565b509050503373ffffffffffffffffffffffffffffffffffffffff167f73701a6649212452d22690b53e9bdf74df62350ef55096fd3da94f5f9d53feb4898b8a8a604051611acb9493929190615405565b60405180910390a28092505050979650505050505050565b80600a60003373ffffffffffffffffffffffffffffffffffffffff1673ffffffffffffffffffffffffffffffffffffffff16815260200190815260200160002060006101000a81548173ffffffffffffffffffffffffffffffffffffffff021916908373ffffffffffffffffffffffffffffffffffffffff16021790555050565b6000600460009054906101000a900473ffffffffffffffffffffffffffffffffffffffff16905090565b60055481565b600086519050808383905014611bdf576040517f08c379a0000000000000000000000000000000000000000000000000000000008152600401611bd69061514a565b60405180910390fd5b8773ffffffffffffffffffffffffffffffffffffffff168973ffffffffffffffffffffffffffffffffffffffff1614611c6857611c638989898989898080601f016020809104026020016040519081016040528093929190818152602001838380828437600081840152601f19601f820116905080830192505050505050506108c5565b611cf6565b611c706128df565b73ffffffffffffffffffffffffffffffffffffffff168973ffffffffffffffffffffffffffffffffffffffff161480611cb65750611cb589611cb06128df565b6122a4565b5b611cf5576040517f08c379a0000000000000000000000000000000000000000000000000000000008152600401611cec9061520a565b60405180910390fd5b5b60608167ffffffffffffffff81118015611d0f57600080fd5b50604051908082528060200260200182016040528015611d3e5781602001602082028036833780820191505090505b50905060005b8281101561204657611dd5888281518110611d5b57fe5b6020026020010151600860008c8581518110611d7357fe5b6020026020010151815260200190815260200160002060008d73ffffffffffffffffffffffffffffffffffffffff1673ffffffffffffffffffffffffffffffffffffffff16815260200190815260200160002054612a1890919063ffffffff16565b600860008b8481518110611de557fe5b6020026020010151815260200190815260200160002060008c73ffffffffffffffffffffffffffffffffffffffff1673ffffffffffffffffffffffffffffffffffffffff16815260200190815260200160002081905550611e446138a4565b600760008b8481518110611e5457fe5b60200260200101518152602001908152602001600020604051806080016040529081600082015481526020016001820160009054906101000a900473ffffffffffffffffffffffffffffffffffffffff1673ffffffffffffffffffffffffffffffffffffffff1673ffffffffffffffffffffffffffffffffffffffff168152602001600282018054600181600116156101000203166002900480601f016020809104026020016040519081016040528092919081815260200182805460018160011615610100020316600290048015611f6e5780601f10611f4357610100808354040283529160200191611f6e565b820191906000526020600020905b815481529060010190602001808311611f5157829003601f168201915b50505050508152602001600382018054600181600116156101000203166002900480601f0160208091040260200160405190810160405280929190818152602001828054600181600116156101000203166002900480156120105780601f10611fe557610100808354040283529160200191612010565b820191906000526020600020905b815481529060010190602001808311611ff357829003601f168201915b5050505050815250509050806000015183838151811061202c57fe5b602002602001018181525050508080600101915050611d44565b50612052898989612f1c565b8873ffffffffffffffffffffffffffffffffffffffff168a73ffffffffffffffffffffffffffffffffffffffff167f953af56f12086fd901d7e8a392cfdc0c08e38bed8535ae07c9140b4055b148c88a8a8589896040516120b7959493929190615017565b60405180910390a350505050505050505050565b8173ffffffffffffffffffffffffffffffffffffffff166120ea6128df565b73ffffffffffffffffffffffffffffffffffffffff161415612141576040517f08c379a00000000000000000000000000000000000000000000000000000000081526004016121389061534a565b60405180910390fd5b806002600061214e6128df565b73ffffffffffffffffffffffffffffffffffffffff1673ffffffffffffffffffffffffffffffffffffffff16815260200190815260200160002060008473ffffffffffffffffffffffffffffffffffffffff1673ffffffffffffffffffffffffffffffffffffffff16815260200190815260200160002060006101000a81548160ff0219169083151502179055508173ffffffffffffffffffffffffffffffffffffffff166121fb6128df565b73ffffffffffffffffffffffffffffffffffffffff167f17307eab39ab6107e8899845ad3d59bd9653f200f220920489ca2b5937696c3183604051612240919061507a565b60405180910390a35050565b6008602052816000526040600020602052806000526040600020600091509150505481565b600a6020528060005260406000206000915054906101000a900473ffffffffffffffffffffffffffffffffffffffff1681565b6000600260008473ffffffffffffffffffffffffffffffffffffffff1673ffffffffffffffffffffffffffffffffffffffff16815260200190815260200160002060008373ffffffffffffffffffffffffffffffffffffffff1673ffffffffffffffffffffffffffffffffffffffff16815260200190815260200160002060009054906101000a900460ff16905092915050565b600073ffffffffffffffffffffffffffffffffffffffff168473ffffffffffffffffffffffffffffffffffffffff1614156123a8576040517f08c379a000000000000000000000000000000000000000000000000000000000815260040161239f9061526a565b60405180910390fd5b6123b06128df565b73ffffffffffffffffffffffffffffffffffffffff168573ffffffffffffffffffffffffffffffffffffffff1614806123f657506123f5856123f06128df565b6122a4565b5b612435576040517f08c379a000000000000000000000000000000000000000000000000000000000815260040161242c9061520a565b60405180910390fd5b600061243f6128df565b905061245f81878761245088613220565b61245988613220565b876128e7565b6124dc836040518060600160405280602a81526020016158d6602a91396001600088815260200190815260200160002060008a73ffffffffffffffffffffffffffffffffffffffff1673ffffffffffffffffffffffffffffffffffffffff168152602001908152602001600020546129bd9092919063ffffffff16565b6001600086815260200190815260200160002060008873ffffffffffffffffffffffffffffffffffffffff1673ffffffffffffffffffffffffffffffffffffffff16815260200190815260200160002081905550612593836001600087815260200190815260200160002060008873ffffffffffffffffffffffffffffffffffffffff1673ffffffffffffffffffffffffffffffffffffffff16815260200190815260200160002054612a1890919063ffffffff16565b6001600086815260200190815260200160002060008773ffffffffffffffffffffffffffffffffffffffff1673ffffffffffffffffffffffffffffffffffffffff168152602001908152602001600020819055508473ffffffffffffffffffffffffffffffffffffffff168673ffffffffffffffffffffffffffffffffffffffff168273ffffffffffffffffffffffffffffffffffffffff167fc3d58168c5ae7397731d063d5bbf3d657854427343f4c083240f7aacaa2d0f62878760405161265d929190615445565b60405180910390a4612673818787878787613290565b505050505050565b6126836128df565b73ffffffffffffffffffffffffffffffffffffffff16600460009054906101000a900473ffffffffffffffffffffffffffffffffffffffff1673ffffffffffffffffffffffffffffffffffffffff1614612712576040517f08c379a0000000000000000000000000000000000000000000000000000000008152600401612709906152ea565b60405180910390fd5b600073ffffffffffffffffffffffffffffffffffffffff168173ffffffffffffffffffffffffffffffffffffffff161415612782576040517f08c379a0000000000000000000000000000000000000000000000000000000008152600401612779906151ca565b60405180910390fd5b8073ffffffffffffffffffffffffffffffffffffffff16600460009054906101000a900473ffffffffffffffffffffffffffffffffffffffff1673ffffffffffffffffffffffffffffffffffffffff167f8be0079c531659141344cd1fd0a4f28419497f9722a3daafe3b4186f6b6457e060405160405180910390a380600460006101000a81548173ffffffffffffffffffffffffffffffffffffffff021916908373ffffffffffffffffffffffffffffffffffffffff16021790555050565b61284a6128df565b73ffffffffffffffffffffffffffffffffffffffff168373ffffffffffffffffffffffffffffffffffffffff161480612890575061288f8361288a6128df565b6122a4565b5b6128cf576040517f08c379a00000000000000000000000000000000000000000000000000000000081526004016128c69061520a565b60405180910390fd5b6128da838383612d1c565b505050565b600033905090565b6128f5868686868686613460565b6000600760008560008151811061290857fe5b6020026020010151815260200190815260200160002060010160009054906101000a900473ffffffffffffffffffffffffffffffffffffffff1690506000600a60008773ffffffffffffffffffffffffffffffffffffffff1673ffffffffffffffffffffffffffffffffffffffff16815260200190815260200160002060009054906101000a900473ffffffffffffffffffffffffffffffffffffffff1690506129b28282613468565b505050505050505050565b6000838311158290612a05576040517f08c379a00000000000000000000000000000000000000000000000000000000081526004016129fc91906150e8565b60405180910390fd5b5060008385039050809150509392505050565b600080828401905083811015612a63576040517f08c379a0000000000000000000000000000000000000000000000000000000008152600401612a5a906151ea565b60405180910390fd5b8091505092915050565b612a8c8473ffffffffffffffffffffffffffffffffffffffff1661365f565b15612c35578373ffffffffffffffffffffffffffffffffffffffff1663bc197c8187878686866040518663ffffffff1660e01b8152600401612ad2959493929190614efc565b602060405180830381600087803b158015612aec57600080fd5b505af1925050508015612b1d57506040513d601f19601f82011682018060405250810190612b1a919061421d565b60015b612bac57612b29615788565b80612b345750612b71565b806040517f08c379a0000000000000000000000000000000000000000000000000000000008152600401612b6891906150e8565b60405180910390fd5b6040517f08c379a0000000000000000000000000000000000000000000000000000000008152600401612ba39061510a565b60405180910390fd5b63bc197c8160e01b7bffffffffffffffffffffffffffffffffffffffffffffffffffffffff1916817bffffffffffffffffffffffffffffffffffffffffffffffffffffffff191614612c33576040517f08c379a0000000000000000000000000000000000000000000000000000000008152600401612c2a9061512a565b60405180910390fd5b505b505050505050565b612c46826136aa565b15612d1857600060608373ffffffffffffffffffffffffffffffffffffffff1683604051612c749190614eca565b600060405180830381855afa9150503d8060008114612caf576040519150601f19603f3d011682016040523d82523d6000602084013e612cb4565b606091505b5091509150818015612cd6575080806020019051810190612cd591906141cb565b5b612d15576040517f08c379a0000000000000000000000000000000000000000000000000000000008152600401612d0c906152aa565b60405180910390fd5b50505b5050565b600073ffffffffffffffffffffffffffffffffffffffff168373ffffffffffffffffffffffffffffffffffffffff161415612d8c576040517f08c379a0000000000000000000000000000000000000000000000000000000008152600401612d83906152ca565b60405180910390fd5b6000612d966128df565b9050612dc681856000612da887613220565b612db187613220565b604051806020016040528060008152506128e7565b612e43826040518060600160405280602481526020016158b2602491396001600087815260200190815260200160002060008873ffffffffffffffffffffffffffffffffffffffff1673ffffffffffffffffffffffffffffffffffffffff168152602001908152602001600020546129bd9092919063ffffffff16565b6001600085815260200190815260200160002060008673ffffffffffffffffffffffffffffffffffffffff1673ffffffffffffffffffffffffffffffffffffffff16815260200190815260200160002081905550600073ffffffffffffffffffffffffffffffffffffffff168473ffffffffffffffffffffffffffffffffffffffff168273ffffffffffffffffffffffffffffffffffffffff167fc3d58168c5ae7397731d063d5bbf3d657854427343f4c083240f7aacaa2d0f628686604051612f0e929190615445565b60405180910390a450505050565b600073ffffffffffffffffffffffffffffffffffffffff168373ffffffffffffffffffffffffffffffffffffffff161415612f8c576040517f08c379a0000000000000000000000000000000000000000000000000000000008152600401612f83906152ca565b60405180910390fd5b8051825114612fd0576040517f08c379a0000000000000000000000000000000000000000000000000000000008152600401612fc79061538a565b60405180910390fd5b6000612fda6128df565b9050612ffa818560008686604051806020016040528060008152506128e7565b60005b835181101561311d576130a983828151811061301557fe5b60200260200101516040518060600160405280602481526020016158b2602491396001600088868151811061304657fe5b6020026020010151815260200190815260200160002060008973ffffffffffffffffffffffffffffffffffffffff1673ffffffffffffffffffffffffffffffffffffffff168152602001908152602001600020546129bd9092919063ffffffff16565b600160008684815181106130b957fe5b6020026020010151815260200190815260200160002060008773ffffffffffffffffffffffffffffffffffffffff1673ffffffffffffffffffffffffffffffffffffffff168152602001908152602001600020819055508080600101915050612ffd565b50600073ffffffffffffffffffffffffffffffffffffffff168473ffffffffffffffffffffffffffffffffffffffff168273ffffffffffffffffffffffffffffffffffffffff167f4a39dc06d4c0dbc64b70af90fd698a233a518aa5d07e595d983b8c0526c8f7fb8686604051613195929190614fe0565b60405180910390a450505050565b6000806005600081546001019190508190559050846006600083815260200190815260200160002060006101000a81548173ffffffffffffffffffffffffffffffffffffffff021916908373ffffffffffffffffffffffffffffffffffffffff160217905550613215858286866136bd565b809150509392505050565b606080600167ffffffffffffffff8111801561323b57600080fd5b5060405190808252806020026020018201604052801561326a5781602001602082028036833780820191505090505b509050828160008151811061327b57fe5b60200260200101818152505080915050919050565b6132af8473ffffffffffffffffffffffffffffffffffffffff1661365f565b15613458578373ffffffffffffffffffffffffffffffffffffffff1663f23a6e6187878686866040518663ffffffff1660e01b81526004016132f5959493929190614f64565b602060405180830381600087803b15801561330f57600080fd5b505af192505050801561334057506040513d601f19601f8201168201806040525081019061333d919061421d565b60015b6133cf5761334c615788565b806133575750613394565b806040517f08c379a000000000000000000000000000000000000000000000000000000000815260040161338b91906150e8565b60405180910390fd5b6040517f08c379a00000000000000000000000000000000000000000000000000000000081526004016133c69061510a565b60405180910390fd5b63f23a6e6160e01b7bffffffffffffffffffffffffffffffffffffffffffffffffffffffff1916817bffffffffffffffffffffffffffffffffffffffffffffffffffffffff191614613456576040517f08c379a000000000000000000000000000000000000000000000000000000000815260040161344d9061512a565b60405180910390fd5b505b505050505050565b505050505050565b6000613473836136aa565b6134b2576040517f08c379a00000000000000000000000000000000000000000000000000000000081526004016134a99061522a565b60405180910390fd5b6134bb826136aa565b6134fa576040517f08c379a00000000000000000000000000000000000000000000000000000000081526004016134f19061516a565b60405180910390fd5b60608360405160240161350d9190614ee1565b6040516020818303038152906040527f6bc26187000000000000000000000000000000000000000000000000000000007bffffffffffffffffffffffffffffffffffffffffffffffffffffffff19166020820180517bffffffffffffffffffffffffffffffffffffffffffffffffffffffff83818316178352505050509050600060608473ffffffffffffffffffffffffffffffffffffffff16836040516135b59190614eca565b600060405180830381855afa9150503d80600081146135f0576040519150601f19603f3d011682016040523d82523d6000602084013e6135f5565b606091505b509150915081801561361757508080602001905181019061361691906141cb565b5b613656576040517f08c379a000000000000000000000000000000000000000000000000000000000815260040161364d9061524a565b60405180910390fd5b50505092915050565b60008060007fc5d2460186f7233c927e7db2dcc703c0e500b653ca82273b7bfad8045d85a47060001b9050833f91508082141580156136a157506000801b8214155b92505050919050565b600080823b905060008111915050919050565b600073ffffffffffffffffffffffffffffffffffffffff168473ffffffffffffffffffffffffffffffffffffffff16141561372d576040517f08c379a0000000000000000000000000000000000000000000000000000000008152600401613724906153aa565b60405180910390fd5b60006137376128df565b90506137588160008761374988613220565b61375288613220565b876128e7565b6137bb836001600087815260200190815260200160002060008873ffffffffffffffffffffffffffffffffffffffff1673ffffffffffffffffffffffffffffffffffffffff16815260200190815260200160002054612a1890919063ffffffff16565b6001600086815260200190815260200160002060008773ffffffffffffffffffffffffffffffffffffffff1673ffffffffffffffffffffffffffffffffffffffff168152602001908152602001600020819055508473ffffffffffffffffffffffffffffffffffffffff16600073ffffffffffffffffffffffffffffffffffffffff168273ffffffffffffffffffffffffffffffffffffffff167fc3d58168c5ae7397731d063d5bbf3d657854427343f4c083240f7aacaa2d0f628787604051613886929190615445565b60405180910390a461389d81600087878787613290565b5050505050565b604051806080016040528060008152602001600073ffffffffffffffffffffffffffffffffffffffff16815260200160608152602001606081525090565b828054600181600116156101000203166002900490600052602060002090601f016020900481019282601f1061392357805160ff1916838001178555613951565b82800160010185558215613951579182015b82811115613950578251825591602001919060010190613935565b5b50905061395e9190613962565b5090565b5b8082111561397b576000816000905550600101613963565b5090565b60008135905061398e8161583e565b92915050565b600082601f8301126139a557600080fd5b81356139b86139b3826154e9565b6154bc565b915081818352602084019350602081019050838560208402820111156139dd57600080fd5b60005b83811015613a0d57816139f3888261397f565b8452602084019350602083019250506001810190506139e0565b5050505092915050565b60008083601f840112613a2957600080fd5b8235905067ffffffffffffffff811115613a4257600080fd5b602083019150836020820283011115613a5a57600080fd5b9250929050565b600082601f830112613a7257600080fd5b8135613a85613a8082615511565b6154bc565b91508181835260208401935060208101905083856020840282011115613aaa57600080fd5b60005b83811015613ada5781613ac08882613beb565b845260208401935060208301925050600181019050613aad565b5050505092915050565b600081359050613af381615855565b92915050565b600081519050613b0881615855565b92915050565b600081359050613b1d8161586c565b92915050565b600081519050613b328161586c565b92915050565b60008083601f840112613b4a57600080fd5b8235905067ffffffffffffffff811115613b6357600080fd5b602083019150836001820283011115613b7b57600080fd5b9250929050565b600082601f830112613b9357600080fd5b8135613ba6613ba182615539565b6154bc565b91508082526020830160208301858383011115613bc257600080fd5b613bcd838284615728565b50505092915050565b600081359050613be581615883565b92915050565b600081359050613bfa8161589a565b92915050565b600060208284031215613c1257600080fd5b6000613c208482850161397f565b91505092915050565b60008060408385031215613c3c57600080fd5b6000613c4a8582860161397f565b9250506020613c5b8582860161397f565b9150509250929050565b60008060008060008060008060c0898b031215613c8157600080fd5b6000613c8f8b828c0161397f565b9850506020613ca08b828c0161397f565b975050604089013567ffffffffffffffff811115613cbd57600080fd5b613cc98b828c01613a61565b965050606089013567ffffffffffffffff811115613ce657600080fd5b613cf28b828c01613a61565b955050608089013567ffffffffffffffff811115613d0f57600080fd5b613d1b8b828c01613b38565b945094505060a089013567ffffffffffffffff811115613d3a57600080fd5b613d468b828c01613a17565b92509250509295985092959890939650565b600080600080600060a08688031215613d7057600080fd5b6000613d7e8882890161397f565b9550506020613d8f8882890161397f565b945050604086013567ffffffffffffffff811115613dac57600080fd5b613db888828901613a61565b935050606086013567ffffffffffffffff811115613dd557600080fd5b613de188828901613a61565b925050608086013567ffffffffffffffff811115613dfe57600080fd5b613e0a88828901613b82565b9150509295509295909350565b60008060008060008060008060c0898b031215613e3357600080fd5b6000613e418b828c0161397f565b9850506020613e528b828c0161397f565b9750506040613e638b828c01613beb565b9650506060613e748b828c01613beb565b955050608089013567ffffffffffffffff811115613e9157600080fd5b613e9d8b828c01613b38565b945094505060a089013567ffffffffffffffff811115613ebc57600080fd5b613ec88b828c01613b38565b92509250509295985092959890939650565b600080600080600060a08688031215613ef257600080fd5b6000613f008882890161397f565b9550506020613f118882890161397f565b9450506040613f2288828901613beb565b9350506060613f3388828901613beb565b925050608086013567ffffffffffffffff811115613f5057600080fd5b613f5c88828901613b82565b9150509295509295909350565b600080600060608486031215613f7e57600080fd5b6000613f8c8682870161397f565b935050602084013567ffffffffffffffff811115613fa957600080fd5b613fb586828701613a61565b925050604084013567ffffffffffffffff811115613fd257600080fd5b613fde86828701613a61565b9150509250925092565b60008060408385031215613ffb57600080fd5b60006140098582860161397f565b925050602061401a85828601613ae4565b9150509250929050565b600080600080600080600060a0888a03121561403f57600080fd5b600061404d8a828b0161397f565b975050602061405e8a828b01613bd6565b965050604061406f8a828b01613beb565b955050606088013567ffffffffffffffff81111561408c57600080fd5b6140988a828b01613b38565b9450945050608088013567ffffffffffffffff8111156140b757600080fd5b6140c38a828b01613b38565b925092505092959891949750929550565b600080604083850312156140e757600080fd5b60006140f58582860161397f565b925050602061410685828601613beb565b9150509250929050565b60008060006060848603121561412557600080fd5b60006141338682870161397f565b935050602061414486828701613beb565b925050604061415586828701613beb565b9150509250925092565b6000806040838503121561417257600080fd5b600083013567ffffffffffffffff81111561418c57600080fd5b61419885828601613994565b925050602083013567ffffffffffffffff8111156141b557600080fd5b6141c185828601613a61565b9150509250929050565b6000602082840312156141dd57600080fd5b60006141eb84828501613af9565b91505092915050565b60006020828403121561420657600080fd5b600061421484828501613b0e565b91505092915050565b60006020828403121561422f57600080fd5b600061423d84828501613b23565b91505092915050565b60006020828403121561425857600080fd5b600061426684828501613beb565b91505092915050565b6000806040838503121561428257600080fd5b600061429085828601613beb565b92505060206142a18582860161397f565b9150509250929050565b60006142b8848484614441565b90509392505050565b60006142cd8383614505565b60208301905092915050565b60006142e58383614eac565b60208301905092915050565b6142fa816156aa565b82525050565b600061430c83856155e2565b93508360208402850161431e84615565565b8060005b878110156143645784840389526143398284615653565b6143448682846142ab565b955061434f846155bb565b935060208b019a505050600181019050614322565b50829750879450505050509392505050565b60006143818261558f565b61438b81856155f3565b93506143968361556f565b8060005b838110156143c75781516143ae88826142c1565b97506143b9836155c8565b92505060018101905061439a565b5085935050505092915050565b60006143df8261559a565b6143e98185615604565b93506143f48361557f565b8060005b8381101561442557815161440c88826142d9565b9750614417836155d5565b9250506001810190506143f8565b5085935050505092915050565b61443b816156bc565b82525050565b600061444d8385615615565b935061445a838584615728565b6144638361576a565b840190509392505050565b600061447a8385615626565b9350614487838584615728565b6144908361576a565b840190509392505050565b60006144a6826155a5565b6144b08185615626565b93506144c0818560208601615737565b6144c98161576a565b840191505092915050565b60006144df826155a5565b6144e98185615637565b93506144f9818560208601615737565b80840191505092915050565b61450e816156f4565b82525050565b61451d816156f4565b82525050565b600061452e826155b0565b6145388185615642565b9350614548818560208601615737565b6145518161576a565b840191505092915050565b6000614569603483615642565b91507f455243313135353a207472616e7366657220746f206e6f6e204552433131353560008301527f526563656976657220696d706c656d656e7465720000000000000000000000006020830152604082019050919050565b60006145cf602883615642565b91507f455243313135353a204552433131353552656365697665722072656a6563746560008301527f6420746f6b656e730000000000000000000000000000000000000000000000006020830152604082019050919050565b6000614635604483615642565b91507f7361666542617463685472616e73666572416e6443616e63656c474f3a20436160008301527f6e63656c2064617461206d75737420657175616c2063616e63656c207265717560208301527f65737473000000000000000000000000000000000000000000000000000000006040830152606082019050919050565b60006146c1602a83615642565b91507f546f2061646472657373206d75737420626520616e2069737375696e6720626f60008301527f64792061646472657373000000000000000000000000000000000000000000006020830152604082019050919050565b6000614727602b83615642565b91507f455243313135353a2062616c616e636520717565727920666f7220746865207a60008301527f65726f20616464726573730000000000000000000000000000000000000000006020830152604082019050919050565b600061478d603183615642565b91507f455243313135353a2062617463682062616c616e636520717565727920666f7260008301527f20746865207a65726f20616464726573730000000000000000000000000000006020830152604082019050919050565b60006147f3602683615642565b91507f4f776e61626c653a206e6577206f776e657220697320746865207a65726f206160008301527f64647265737300000000000000000000000000000000000000000000000000006020830152604082019050919050565b6000614859601b83615642565b91507f536166654d6174683a206164646974696f6e206f766572666c6f7700000000006000830152602082019050919050565b6000614899602983615642565b91507f455243313135353a2063616c6c6572206973206e6f74206f776e6572206e6f7260008301527f20617070726f76656400000000000000000000000000000000000000000000006020830152604082019050919050565b60006148ff602c83615642565b91507f46726f6d2061646472657373206d75737420626520616e2069737375696e672060008301527f626f6479206164647265737300000000000000000000000000000000000000006020830152604082019050919050565b6000614965604283615642565b91507f5468652072656365697665722069737375696e6720626f647920646f6573206e60008301527f6f7420747261646520776974682073656e64696e672069737375696e6720626f60208301527f64790000000000000000000000000000000000000000000000000000000000006040830152606082019050919050565b60006149f1602583615642565b91507f455243313135353a207472616e7366657220746f20746865207a65726f20616460008301527f64726573730000000000000000000000000000000000000000000000000000006020830152604082019050919050565b6000614a57603283615642565b91507f455243313135353a207472616e736665722063616c6c6572206973206e6f742060008301527f6f776e6572206e6f7220617070726f76656400000000000000000000000000006020830152604082019050919050565b6000614abd606d83615642565b91507f546865207265717565737420686173206e6f74206265656e2076616c6964617460008301527f656420627920746865206973737565722121205468652072657175657374206d60208301527f61792068617665206265656e2077697468647261776e2c20657870697265642c60408301527f20206f722063616e63656c6564000000000000000000000000000000000000006060830152608082019050919050565b6000614b6f602383615642565b91507f455243313135353a206275726e2066726f6d20746865207a65726f206164647260008301527f65737300000000000000000000000000000000000000000000000000000000006020830152604082019050919050565b6000614bd5602083615642565b91507f4f776e61626c653a2063616c6c6572206973206e6f7420746865206f776e65726000830152602082019050919050565b6000614c15602f83615642565b91507f43616e206e6f742072656d6f7665207a65726f2061646472657373206173206360008301527f65727469666965642069737375657200000000000000000000000000000000006020830152604082019050919050565b6000614c7b601f83615642565b91507f596f7520617265206e6f74206120636572746966696564206973737565722e006000830152602082019050919050565b6000614cbb602983615642565b91507f455243313135353a2073657474696e6720617070726f76616c2073746174757360008301527f20666f722073656c6600000000000000000000000000000000000000000000006020830152604082019050919050565b6000614d21602983615642565b91507f455243313135353a206163636f756e747320616e6420696473206c656e67746860008301527f206d69736d6174636800000000000000000000000000000000000000000000006020830152604082019050919050565b6000614d87602883615642565b91507f455243313135353a2069647320616e6420616d6f756e7473206c656e6774682060008301527f6d69736d617463680000000000000000000000000000000000000000000000006020830152604082019050919050565b6000614ded602183615642565b91507f455243313135353a206d696e7420746f20746865207a65726f2061646472657360008301527f73000000000000000000000000000000000000000000000000000000000000006020830152604082019050919050565b6000614e53602c83615642565b91507f43616e206e6f7420616464207a65726f2061646472657373206173206365727460008301527f69666965642069737375657200000000000000000000000000000000000000006020830152604082019050919050565b614eb58161571e565b82525050565b614ec48161571e565b82525050565b6000614ed682846144d4565b915081905092915050565b6000602082019050614ef660008301846142f1565b92915050565b600060a082019050614f1160008301886142f1565b614f1e60208301876142f1565b8181036040830152614f3081866143d4565b90508181036060830152614f4481856143d4565b90508181036080830152614f58818461449b565b90509695505050505050565b600060a082019050614f7960008301886142f1565b614f8660208301876142f1565b614f936040830186614ebb565b614fa06060830185614ebb565b8181036080830152614fb2818461449b565b90509695505050505050565b60006020820190508181036000830152614fd881846143d4565b905092915050565b60006040820190508181036000830152614ffa81856143d4565b9050818103602083015261500e81846143d4565b90509392505050565b6000608082019050818103600083015261503181886143d4565b9050818103602083015261504581876143d4565b905081810360408301526150598186614376565b9050818103606083015261506e818486614300565b90509695505050505050565b600060208201905061508f6000830184614432565b92915050565b60006080820190506150aa6000830187614514565b6150b760208301866142f1565b81810360408301526150c9818561449b565b905081810360608301526150dd818461449b565b905095945050505050565b600060208201905081810360008301526151028184614523565b905092915050565b600060208201905081810360008301526151238161455c565b9050919050565b60006020820190508181036000830152615143816145c2565b9050919050565b6000602082019050818103600083015261516381614628565b9050919050565b60006020820190508181036000830152615183816146b4565b9050919050565b600060208201905081810360008301526151a38161471a565b9050919050565b600060208201905081810360008301526151c381614780565b9050919050565b600060208201905081810360008301526151e3816147e6565b9050919050565b600060208201905081810360008301526152038161484c565b9050919050565b600060208201905081810360008301526152238161488c565b9050919050565b60006020820190508181036000830152615243816148f2565b9050919050565b6000602082019050818103600083015261526381614958565b9050919050565b60006020820190508181036000830152615283816149e4565b9050919050565b600060208201905081810360008301526152a381614a4a565b9050919050565b600060208201905081810360008301526152c381614ab0565b9050919050565b600060208201905081810360008301526152e381614b62565b9050919050565b6000602082019050818103600083015261530381614bc8565b9050919050565b6000602082019050818103600083015261532381614c08565b9050919050565b6000602082019050818103600083015261534381614c6e565b9050919050565b6000602082019050818103600083015261536381614cae565b9050919050565b6000602082019050818103600083015261538381614d14565b9050919050565b600060208201905081810360008301526153a381614d7a565b9050919050565b600060208201905081810360008301526153c381614de0565b9050919050565b600060208201905081810360008301526153e381614e46565b9050919050565b60006020820190506153ff6000830184614ebb565b92915050565b600060608201905061541a6000830187614ebb565b6154276020830186614514565b818103604083015261543a81848661446e565b905095945050505050565b600060408201905061545a6000830185614ebb565b6154676020830184614ebb565b9392505050565b60006080820190506154836000830188614ebb565b6154906020830187614ebb565b61549d6040830186614514565b81810360608301526154b081848661446e565b90509695505050505050565b6000604051905081810181811067ffffffffffffffff821117156154df57600080fd5b8060405250919050565b600067ffffffffffffffff82111561550057600080fd5b602082029050602081019050919050565b600067ffffffffffffffff82111561552857600080fd5b602082029050602081019050919050565b600067ffffffffffffffff82111561555057600080fd5b601f19601f8301169050602081019050919050565b6000819050919050565b6000819050602082019050919050565b6000819050602082019050919050565b600081519050919050565b600081519050919050565b600081519050919050565b600081519050919050565b6000602082019050919050565b6000602082019050919050565b6000602082019050919050565b600082825260208201905092915050565b600082825260208201905092915050565b600082825260208201905092915050565b600082825260208201905092915050565b600082825260208201905092915050565b600081905092915050565b600082825260208201905092915050565b6000808335600160200384360303811261566c57600080fd5b83810192508235915060208301925067ffffffffffffffff82111561569057600080fd5b6001820236038413156156a257600080fd5b509250929050565b60006156b5826156fe565b9050919050565b60008115159050919050565b60007fffffffff0000000000000000000000000000000000000000000000000000000082169050919050565b6000819050919050565b600073ffffffffffffffffffffffffffffffffffffffff82169050919050565b6000819050919050565b82818337600083830152505050565b60005b8381101561575557808201518184015260208101905061573a565b83811115615764576000848401525b50505050565b6000601f19601f8301169050919050565b60008160e01c9050919050565b600060443d10156157985761583b565b60046000803e6157a960005161577b565b6308c379a081146157ba575061583b565b60405160043d036004823e80513d602482011167ffffffffffffffff821117156157e65750505061583b565b808201805167ffffffffffffffff81111561580557505050505061583b565b8060208301013d85018111156158205750505050505061583b565b6158298261576a565b60208401016040528296505050505050505b90565b615847816156aa565b811461585257600080fd5b50565b61585e816156bc565b811461586957600080fd5b50565b615875816156c8565b811461588057600080fd5b50565b61588c816156f4565b811461589757600080fd5b50565b6158a38161571e565b81146158ae57600080fd5b5056fe455243313135353a206275726e20616d6f756e7420657863656564732062616c616e6365455243313135353a20696e73756666696369656e742062616c616e636520666f72207472616e73666572a26469706673582212205a4a061b2ea92127e93d833551b8eec9c9e245e4192fce81576958bb17db152c64736f6c63430007000033",
  "immutableReferences": {},
  "source": "// SPDX-License-Identifier: MIT\npragma solidity >=0.4.22 <0.9.0;\n\npragma experimental ABIEncoderV2;\n\nimport \"@openzeppelin/contracts/token/ERC1155/ERC1155Burnable.sol\";\nimport \"@openzeppelin/contracts/access/Ownable.sol\";\nimport \"@openzeppelin/contracts/math/SafeMath.sol\";\n\ncontract GORegistry is ERC1155Burnable, Ownable {\n    using SafeMath for uint256;\n\n    uint256 public tokenNonce;\n\n    mapping(uint256 => address) public certificateIssuers;\n\n    mapping(uint256 => GOCertificate) public theGOStorage;\n    mapping(uint256 => mapping(address => uint256)) public canceledGOs;\n\n    mapping(address => bool) public certifiedIssuers;\n\n    mapping(address => address) public userToIssuingBody;\n\n    modifier onlyCertificateOwner(uint256 certId) {\n        require(certificateIssuers[certId] == msg.sender);\n        _;\n    }\n\n    modifier onlyCertifiedIssuers(address issuer) {\n        require(\n            certifiedIssuers[issuer] == true,\n            \"You are not a certified issuer.\"\n        );\n        _;\n    }\n\n    event OneGOIssued(\n        address indexed issuingBody,\n        uint256 amount,\n        int256 certificateType,\n        bytes data\n    );\n    event OneGOCanceled(\n        address indexed cancelIssuer,\n        address indexed cancelClaimer,\n        uint256 tokenId,\n        uint256 amount,\n        int256 certificateType,\n        bytes cancelData\n    );\n    event BatchGOCanceled(\n        address indexed cancelIssuer,\n        address indexed cancelClaimer,\n        uint256[] tokenIds,\n        uint256[] amounts,\n        int256[] certificateTypes,\n        bytes[] cancelData\n    );\n    event IssuingBodyAdded(address issuer);\n    event IssuingBodyRemoved(address issuer);\n\n    struct GOCertificate {\n        int256 certificateType;\n        address issuingBody;\n        bytes data;\n        bytes validationFunction;\n    }\n\n    //example token metadata domain, not really existing\n    constructor() ERC1155(\"GOCertificateDomain/{id}\") Ownable() {}\n\n    function issueGOCertificate(\n        address to,\n        int256 _certificateType,\n        uint256 amount,\n        bytes calldata data,\n        bytes calldata validationFunc\n    ) external onlyCertifiedIssuers(msg.sender) returns (uint256 _id) {\n        _isValid(msg.sender, validationFunc);\n        uint256 tokenId = _generateGOToken(msg.sender, amount, data);\n        if (amount > 0) {\n            safeTransferFrom(msg.sender, to, tokenId, amount, data);\n        }\n        theGOStorage[tokenId] = GOCertificate({\n            certificateType: _certificateType,\n            issuingBody: msg.sender,\n            data: data,\n            validationFunction: validationFunc\n        });\n        emit OneGOIssued(msg.sender, amount, _certificateType, data);\n        return tokenId;\n    }\n\n    function _beforeTokenTransfer(\n        address operator,\n        address from,\n        address to,\n        uint256[] memory ids,\n        uint256[] memory amounts,\n        bytes memory data\n    ) internal virtual override {\n        super._beforeTokenTransfer(operator, from, to, ids, amounts, data);\n        address fromIB = theGOStorage[ids[0]].issuingBody;\n        address toIB = userToIssuingBody[to];\n        _doesFromTradeWithTo(fromIB, toIB);\n    }\n\n    function safeTransferAndCancelGO(\n        address from,\n        address to,\n        uint256 tokenId,\n        uint256 amount,\n        bytes calldata data,\n        bytes calldata cancelData\n    ) external {\n        GOCertificate memory go = theGOStorage[tokenId];\n        _isValid(go.issuingBody, go.validationFunction);\n        if (from != to) {\n            super.safeTransferFrom(from, to, tokenId, amount, data);\n        } else {\n            require(\n                from == _msgSender() || isApprovedForAll(from, _msgSender()),\n                \"ERC1155: caller is not owner nor approved\"\n            );\n        }\n        super._burn(to, tokenId, amount);\n        canceledGOs[tokenId][to] = canceledGOs[tokenId][to].add(amount);\n        emit OneGOCanceled(\n            from,\n            to,\n            tokenId,\n            amount,\n            go.certificateType,\n            cancelData\n        );\n    }\n\n    function safeBatchTransferAndCancelGO(\n        address from,\n        address to,\n        uint256[] memory tokenIds,\n        uint256[] memory tokenAmounts,\n        bytes calldata data,\n        bytes[] calldata cancelData\n    ) external {\n        uint256 cancelRequests = tokenIds.length;\n        require(\n            cancelData.length == cancelRequests,\n            \"safeBatchTransferAndCancelGO: Cancel data must equal cancel requests\"\n        );\n        if (from != to) {\n            super.safeBatchTransferFrom(from, to, tokenIds, tokenAmounts, data);\n        } else {\n            require(\n                from == _msgSender() || isApprovedForAll(from, _msgSender()),\n                \"ERC1155: caller is not owner nor approved\"\n            );\n        }\n        int256[] memory certificateTypes = new int256[](cancelRequests);\n        for (uint256 i = 0; i < cancelRequests; i++) {\n            canceledGOs[tokenIds[i]][to] = canceledGOs[tokenIds[i]][to].add(\n                tokenAmounts[i]\n            );\n            GOCertificate memory go = theGOStorage[tokenIds[i]];\n            certificateTypes[i] = go.certificateType;\n        }\n\n        super._burnBatch(to, tokenIds, tokenAmounts);\n        emit BatchGOCanceled(\n            from,\n            to,\n            tokenIds,\n            tokenAmounts,\n            certificateTypes,\n            cancelData\n        );\n    }\n\n    function addCertifiedIssuer(address issuer) external onlyOwner() {\n        require(\n            issuer != address(0),\n            \"Can not add zero address as certified issuer\"\n        );\n        certifiedIssuers[issuer] = true;\n        emit IssuingBodyAdded(issuer);\n    }\n\n    function removeCertifiedIssuer(address issuer) external onlyOwner() {\n        require(\n            issuer != address(0),\n            \"Can not remove zero address as certified issuer\"\n        );\n        certifiedIssuers[issuer] = false;\n        emit IssuingBodyRemoved(issuer);\n    }\n\n    //Can only be called by Issuing body address, sender must be the registrant\n    function registerForIssuingBody(address issuingBody) public {\n        userToIssuingBody[msg.sender] = issuingBody;\n    }\n\n    /////////////    Private  ////////////////\n\n    function _generateGOToken(\n        address certificateIssuer,\n        uint256 initialSupply,\n        bytes memory data\n    ) private returns (uint256 id) {\n        uint256 certificateId = ++tokenNonce;\n        certificateIssuers[certificateId] = certificateIssuer;\n        super._mint(certificateIssuer, certificateId, initialSupply, data);\n        return certificateId;\n    }\n\n    function _isValid(address sender, bytes memory validationFunction)\n        internal\n        view\n    {\n        if (_isOfTypeContract(sender)) {\n            (bool success, bytes memory result) =\n                sender.staticcall(validationFunction);\n\n            require(\n                success && abi.decode(result, (bool)),\n                \"The request has not been validated by the issuer!! The request may have been withdrawn, expired,  or canceled\"\n            );\n        }\n    }\n\n    function _isOfTypeContract(address theAddress) private view returns (bool) {\n        uint256 size;\n        assembly {\n            size := extcodesize(theAddress)\n        }\n        return size > 0;\n    }\n\n    function _doesFromTradeWithTo(address from, address to)\n        private\n        view\n        returns (bool)\n    {\n        require(\n            _isOfTypeContract(from),\n            \"From address must be an issuing body address\"\n        );\n        require(\n            _isOfTypeContract(to),\n            \"To address must be an issuing body address\"\n        );\n        bytes memory validateFunc =\n            abi.encodeWithSignature(\"isTradingWith(address)\", from);\n        (bool success, bytes memory result) = to.staticcall(validateFunc);\n        require(\n            success && abi.decode(result, (bool)),\n            \"The receiver issuing body does not trade with sending issuing body\"\n        );\n    }\n}\n",
  "sourcePath": "/home/tyrx/projects/GoO-bl/contracts/GORegistry.sol",
  "compiler": {
    "name": "solc",
    "version": "0.7.0+commit.9e61f92b.Emscripten.clang"
  },
  "schemaVersion": "3.3.3",
  "updatedAt": "2021-02-08T22:17:26.985Z",
  "devdoc": {
    "kind": "dev",
    "methods": {
      "balanceOf(address,uint256)": {
        "details": "See {IERC1155-balanceOf}. Requirements: - `account` cannot be the zero address."
      },
      "balanceOfBatch(address[],uint256[])": {
        "details": "See {IERC1155-balanceOfBatch}. Requirements: - `accounts` and `ids` must have the same length."
      },
      "isApprovedForAll(address,address)": {
        "details": "See {IERC1155-isApprovedForAll}."
      },
      "owner()": {
        "details": "Returns the address of the current owner."
      },
      "renounceOwnership()": {
        "details": "Leaves the contract without owner. It will not be possible to call `onlyOwner` functions anymore. Can only be called by the current owner. NOTE: Renouncing ownership will leave the contract without an owner, thereby removing any functionality that is only available to the owner."
      },
      "safeBatchTransferFrom(address,address,uint256[],uint256[],bytes)": {
        "details": "See {IERC1155-safeBatchTransferFrom}."
      },
      "safeTransferFrom(address,address,uint256,uint256,bytes)": {
        "details": "See {IERC1155-safeTransferFrom}."
      },
      "setApprovalForAll(address,bool)": {
        "details": "See {IERC1155-setApprovalForAll}."
      },
      "supportsInterface(bytes4)": {
        "details": "See {IERC165-supportsInterface}. Time complexity O(1), guaranteed to always use less than 30 000 gas."
      },
      "transferOwnership(address)": {
        "details": "Transfers ownership of the contract to a new account (`newOwner`). Can only be called by the current owner."
      },
      "uri(uint256)": {
        "details": "See {IERC1155MetadataURI-uri}. This implementation returns the same URI for *all* token types. It relies on the token type ID substituion mechanism https://eips.ethereum.org/EIPS/eip-1155#metadata[defined in the EIP]. Clients calling this function must replace the `\\{id\\}` substring with the actual token type ID."
      }
    },
    "version": 1
  },
  "userdoc": {
    "kind": "user",
    "methods": {},
    "version": 1
  }
}